{
  "_format": "hh-sol-artifact-1",
  "contractName": "Payments",
  "sourceName": "src/web3/contracts/Payments.sol",
  "abi": [
    {
      "inputs": [
        {
          "internalType": "uint256",
          "name": "_initialPlatformBps",
          "type": "uint256"
        },
        {
          "internalType": "address",
          "name": "_initialPlatformAddress",
          "type": "address"
        },
        {
          "internalType": "address",
          "name": "_usdcContractAddress",
          "type": "address"
        }
      ],
      "stateMutability": "nonpayable",
      "type": "constructor"
    },
    {
      "anonymous": false,
      "inputs": [
        {
          "indexed": true,
          "internalType": "address",
          "name": "seller",
          "type": "address"
        },
        {
          "indexed": false,
          "internalType": "uint256",
          "name": "_price",
          "type": "uint256"
        },
        {
          "indexed": false,
          "internalType": "uint256",
          "name": "_fee",
          "type": "uint256"
        },
        {
          "indexed": true,
          "internalType": "address",
          "name": "buyer",
          "type": "address"
        },
        {
          "indexed": false,
          "internalType": "string",
          "name": "productId",
          "type": "string"
        }
      ],
      "name": "PaidProduct",
      "type": "event"
    },
    {
      "anonymous": false,
      "inputs": [
        {
          "indexed": true,
          "internalType": "address",
          "name": "seller",
          "type": "address"
        },
        {
          "indexed": false,
          "internalType": "uint256",
          "name": "_price",
          "type": "uint256"
        },
        {
          "indexed": false,
          "internalType": "uint256",
          "name": "_fee",
          "type": "uint256"
        },
        {
          "indexed": true,
          "internalType": "address",
          "name": "buyer",
          "type": "address"
        },
        {
          "indexed": false,
          "internalType": "string",
          "name": "requestId",
          "type": "string"
        }
      ],
      "name": "PaidRequest",
      "type": "event"
    },
    {
      "inputs": [],
      "name": "allowance",
      "outputs": [
        {
          "internalType": "uint256",
          "name": "",
          "type": "uint256"
        }
      ],
      "stateMutability": "view",
      "type": "function"
    },
    {
      "inputs": [],
      "name": "balance",
      "outputs": [
        {
          "internalType": "uint256",
          "name": "",
          "type": "uint256"
        }
      ],
      "stateMutability": "view",
      "type": "function"
    },
    {
      "inputs": [],
      "name": "feeAccount",
      "outputs": [
        {
          "internalType": "address payable",
          "name": "",
          "type": "address"
        }
      ],
      "stateMutability": "view",
      "type": "function"
    },
    {
      "inputs": [],
      "name": "feePercent",
      "outputs": [
        {
          "internalType": "uint256",
          "name": "",
          "type": "uint256"
        }
      ],
      "stateMutability": "view",
      "type": "function"
    },
    {
      "inputs": [],
      "name": "owner",
      "outputs": [
        {
          "internalType": "address",
          "name": "",
          "type": "address"
        }
      ],
      "stateMutability": "view",
      "type": "function"
    },
    {
      "inputs": [
        {
          "internalType": "uint256",
          "name": "_value",
          "type": "uint256"
        },
        {
          "internalType": "address",
          "name": "_toAddress",
          "type": "address"
        },
        {
          "internalType": "address",
          "name": "_affiliateAddress",
          "type": "address"
        },
        {
          "internalType": "uint256",
          "name": "_affiliateBps",
          "type": "uint256"
        }
      ],
      "name": "pay",
      "outputs": [],
      "stateMutability": "payable",
      "type": "function"
    },
    {
      "inputs": [
        {
          "internalType": "address payable",
          "name": "seller",
          "type": "address"
        },
        {
          "internalType": "uint256",
          "name": "fee",
          "type": "uint256"
        },
        {
          "internalType": "uint256",
          "name": "amount",
          "type": "uint256"
        },
        {
          "internalType": "string",
          "name": "productId",
          "type": "string"
        }
      ],
      "name": "payProduct",
      "outputs": [],
      "stateMutability": "payable",
      "type": "function"
    },
    {
      "inputs": [
        {
          "internalType": "address payable",
          "name": "seller",
          "type": "address"
        },
        {
          "internalType": "uint256",
          "name": "fee",
          "type": "uint256"
        },
        {
          "internalType": "uint256",
          "name": "amount",
          "type": "uint256"
        },
        {
          "internalType": "string",
          "name": "requestId",
          "type": "string"
        }
      ],
      "name": "payRequest",
      "outputs": [],
      "stateMutability": "payable",
      "type": "function"
    },
    {
      "inputs": [],
      "name": "platformAddress",
      "outputs": [
        {
          "internalType": "address",
          "name": "",
          "type": "address"
        }
      ],
      "stateMutability": "view",
      "type": "function"
    },
    {
      "inputs": [],
      "name": "platformBps",
      "outputs": [
        {
          "internalType": "uint256",
          "name": "",
          "type": "uint256"
        }
      ],
      "stateMutability": "view",
      "type": "function"
    },
    {
      "inputs": [
        {
          "internalType": "address",
          "name": "_newPlatformAddress",
          "type": "address"
        }
      ],
      "name": "setPlatformAddress",
      "outputs": [],
      "stateMutability": "nonpayable",
      "type": "function"
    },
    {
      "inputs": [
        {
          "internalType": "uint256",
          "name": "_newPlatformBps",
          "type": "uint256"
        }
      ],
      "name": "setPlatformBps",
      "outputs": [],
      "stateMutability": "nonpayable",
      "type": "function"
    },
    {
      "inputs": [],
      "name": "usdcContract",
      "outputs": [
        {
          "internalType": "contract ERC20",
          "name": "",
          "type": "address"
        }
      ],
      "stateMutability": "view",
      "type": "function"
    }
  ],
  "bytecode": "0x60c06040523480156200001157600080fd5b5060405162001c3c38038062001c3c83398181016040528101906200003791906200017f565b60016000819055508173ffffffffffffffffffffffffffffffffffffffff1660808173ffffffffffffffffffffffffffffffffffffffff1660601b815250508260a0818152505033600160006101000a81548173ffffffffffffffffffffffffffffffffffffffff021916908373ffffffffffffffffffffffffffffffffffffffff1602179055508260028190555081600360006101000a81548173ffffffffffffffffffffffffffffffffffffffff021916908373ffffffffffffffffffffffffffffffffffffffff16021790555080600460006101000a81548173ffffffffffffffffffffffffffffffffffffffff021916908373ffffffffffffffffffffffffffffffffffffffff16021790555050505062000252565b60008151905062000162816200021e565b92915050565b600081519050620001798162000238565b92915050565b6000806000606084860312156200019b576200019a62000219565b5b6000620001ab8682870162000168565b9350506020620001be8682870162000151565b9250506040620001d18682870162000151565b9150509250925092565b6000620001e882620001ef565b9050919050565b600073ffffffffffffffffffffffffffffffffffffffff82169050919050565b6000819050919050565b600080fd5b6200022981620001db565b81146200023557600080fd5b50565b62000243816200020f565b81146200024f57600080fd5b50565b60805160601c60a0516119b36200028960003960006103110152600081816102ed01528181610c600152610da501526119b36000f3fe6080604052600436106100c25760003560e01c8063b69ef8a81161007f578063de242ff411610059578063de242ff414610237578063de4dc6e114610262578063e4b69fa31461027e578063f76835e61461029a576100c2565b8063b69ef8a8146101b8578063cc03c342146101e3578063dbe55e561461020c576100c2565b80631323e88b146100c757806365e17c9d146100f25780637fd6f15c1461011d5780638da5cb5b14610148578063a7f6d13f14610173578063ac6c7bd11461018f575b600080fd5b3480156100d357600080fd5b506100dc6102c5565b6040516100e99190611335565b60405180910390f35b3480156100fe57600080fd5b506101076102eb565b60405161011491906112ba565b60405180910390f35b34801561012957600080fd5b5061013261030f565b60405161013f9190611410565b60405180910390f35b34801561015457600080fd5b5061015d610333565b60405161016a919061129f565b60405180910390f35b61018d600480360381019061018891906110f1565b610359565b005b34801561019b57600080fd5b506101b660048036038101906101b19190611097565b6108b8565b005b3480156101c457600080fd5b506101cd610997565b6040516101da9190611410565b60405180910390f35b3480156101ef57600080fd5b5061020a60048036038101906102059190610fba565b610a49565b005b34801561021857600080fd5b50610221610b1d565b60405161022e919061129f565b60405180910390f35b34801561024357600080fd5b5061024c610b43565b6040516102599190611410565b60405180910390f35b61027c60048036038101906102779190610fe7565b610bf7565b005b61029860048036038101906102939190610fe7565b610d3c565b005b3480156102a657600080fd5b506102af610e81565b6040516102bc9190611410565b60405180910390f35b600460009054906101000a900473ffffffffffffffffffffffffffffffffffffffff1681565b7f000000000000000000000000000000000000000000000000000000000000000081565b7f000000000000000000000000000000000000000000000000000000000000000081565b600160009054906101000a900473ffffffffffffffffffffffffffffffffffffffff1681565b83600460009054906101000a900473ffffffffffffffffffffffffffffffffffffffff1673ffffffffffffffffffffffffffffffffffffffff166370a08231336040518263ffffffff1660e01b81526004016103b5919061129f565b60206040518083038186803b1580156103cd57600080fd5b505afa1580156103e1573d6000803e3d6000fd5b505050506040513d601f19601f8201168201806040525081019061040591906110c4565b1015610446576040517f08c379a000000000000000000000000000000000000000000000000000000000815260040161043d90611370565b60405180910390fd5b600061271082866104579190611562565b6104619190611531565b9050600460009054906101000a900473ffffffffffffffffffffffffffffffffffffffff1673ffffffffffffffffffffffffffffffffffffffff166370a08231336040518263ffffffff1660e01b81526004016104be919061129f565b60206040518083038186803b1580156104d657600080fd5b505afa1580156104ea573d6000803e3d6000fd5b505050506040513d601f19601f8201168201806040525081019061050e91906110c4565b811115610550576040517f08c379a0000000000000000000000000000000000000000000000000000000008152600401610547906113f0565b60405180910390fd5b6000612710600254876105639190611562565b61056d9190611531565b9050600460009054906101000a900473ffffffffffffffffffffffffffffffffffffffff1673ffffffffffffffffffffffffffffffffffffffff166370a08231336040518263ffffffff1660e01b81526004016105ca919061129f565b60206040518083038186803b1580156105e257600080fd5b505afa1580156105f6573d6000803e3d6000fd5b505050506040513d601f19601f8201168201806040525081019061061a91906110c4565b81111561065c576040517f08c379a0000000000000000000000000000000000000000000000000000000008152600401610653906113b0565b60405180910390fd5b600081838861066b91906115bc565b61067591906115bc565b9050600460009054906101000a900473ffffffffffffffffffffffffffffffffffffffff1673ffffffffffffffffffffffffffffffffffffffff166323b872dd3387866040518463ffffffff1660e01b81526004016106d6939291906112fe565b602060405180830381600087803b1580156106f057600080fd5b505af1158015610704573d6000803e3d6000fd5b505050506040513d601f19601f82011682018060405250810190610728919061106a565b50600460009054906101000a900473ffffffffffffffffffffffffffffffffffffffff1673ffffffffffffffffffffffffffffffffffffffff166323b872dd33600360009054906101000a900473ffffffffffffffffffffffffffffffffffffffff16856040518463ffffffff1660e01b81526004016107aa939291906112fe565b602060405180830381600087803b1580156107c457600080fd5b505af11580156107d8573d6000803e3d6000fd5b505050506040513d601f19601f820116820180604052508101906107fc919061106a565b50600460009054906101000a900473ffffffffffffffffffffffffffffffffffffffff1673ffffffffffffffffffffffffffffffffffffffff166323b872dd3388846040518463ffffffff1660e01b815260040161085c939291906112fe565b602060405180830381600087803b15801561087657600080fd5b505af115801561088a573d6000803e3d6000fd5b505050506040513d601f19601f820116820180604052508101906108ae919061106a565b5050505050505050565b600160009054906101000a900473ffffffffffffffffffffffffffffffffffffffff1673ffffffffffffffffffffffffffffffffffffffff163373ffffffffffffffffffffffffffffffffffffffff1614610948576040517f08c379a000000000000000000000000000000000000000000000000000000000815260040161093f90611350565b60405180910390fd5b61271081111561098d576040517f08c379a000000000000000000000000000000000000000000000000000000000815260040161098490611390565b60405180910390fd5b8060028190555050565b6000600460009054906101000a900473ffffffffffffffffffffffffffffffffffffffff1673ffffffffffffffffffffffffffffffffffffffff166370a08231336040518263ffffffff1660e01b81526004016109f4919061129f565b60206040518083038186803b158015610a0c57600080fd5b505afa158015610a20573d6000803e3d6000fd5b505050506040513d601f19601f82011682018060405250810190610a4491906110c4565b905090565b600160009054906101000a900473ffffffffffffffffffffffffffffffffffffffff1673ffffffffffffffffffffffffffffffffffffffff163373ffffffffffffffffffffffffffffffffffffffff1614610ad9576040517f08c379a0000000000000000000000000000000000000000000000000000000008152600401610ad090611350565b60405180910390fd5b80600360006101000a81548173ffffffffffffffffffffffffffffffffffffffff021916908373ffffffffffffffffffffffffffffffffffffffff16021790555050565b600360009054906101000a900473ffffffffffffffffffffffffffffffffffffffff1681565b6000600460009054906101000a900473ffffffffffffffffffffffffffffffffffffffff1673ffffffffffffffffffffffffffffffffffffffff1663dd62ed3e33306040518363ffffffff1660e01b8152600401610ba29291906112d5565b60206040518083038186803b158015610bba57600080fd5b505afa158015610bce573d6000803e3d6000fd5b505050506040513d601f19601f82011682018060405250810190610bf291906110c4565b905090565b610bff610e87565b8282610c0b91906114db565b471015610c1757600080fd5b8373ffffffffffffffffffffffffffffffffffffffff166108fc839081150290604051600060405180830381858888f19350505050158015610c5d573d6000803e3d6000fd5b507f000000000000000000000000000000000000000000000000000000000000000073ffffffffffffffffffffffffffffffffffffffff166108fc849081150290604051600060405180830381858888f19350505050158015610cc4573d6000803e3d6000fd5b503373ffffffffffffffffffffffffffffffffffffffff168473ffffffffffffffffffffffffffffffffffffffff167f1e7d74f8a1a8c785acc386e0fd1a380084b958b426fe00ad6773933ee95ef147858585604051610d269392919061142b565b60405180910390a3610d36610ed7565b50505050565b610d44610e87565b8282610d5091906114db565b471015610d5c57600080fd5b8373ffffffffffffffffffffffffffffffffffffffff166108fc839081150290604051600060405180830381858888f19350505050158015610da2573d6000803e3d6000fd5b507f000000000000000000000000000000000000000000000000000000000000000073ffffffffffffffffffffffffffffffffffffffff166108fc849081150290604051600060405180830381858888f19350505050158015610e09573d6000803e3d6000fd5b503373ffffffffffffffffffffffffffffffffffffffff168473ffffffffffffffffffffffffffffffffffffffff167f0ff97934f575a676c1042055533700adf633d2df7983d40f3b1ea563bb4c3746858585604051610e6b9392919061142b565b60405180910390a3610e7b610ed7565b50505050565b60025481565b60026000541415610ecd576040517f08c379a0000000000000000000000000000000000000000000000000000000008152600401610ec4906113d0565b60405180910390fd5b6002600081905550565b6001600081905550565b6000610ef4610eef8461148e565b611469565b905082815260208101848484011115610f1057610f0f611773565b5b610f1b84828561166e565b509392505050565b600081359050610f3281611921565b92915050565b600081359050610f4781611938565b92915050565b600081519050610f5c8161194f565b92915050565b600082601f830112610f7757610f7661176e565b5b8135610f87848260208601610ee1565b91505092915050565b600081359050610f9f81611966565b92915050565b600081519050610fb481611966565b92915050565b600060208284031215610fd057610fcf61177d565b5b6000610fde84828501610f23565b91505092915050565b600080600080608085870312156110015761100061177d565b5b600061100f87828801610f38565b945050602061102087828801610f90565b935050604061103187828801610f90565b925050606085013567ffffffffffffffff81111561105257611051611778565b5b61105e87828801610f62565b91505092959194509250565b6000602082840312156110805761107f61177d565b5b600061108e84828501610f4d565b91505092915050565b6000602082840312156110ad576110ac61177d565b5b60006110bb84828501610f90565b91505092915050565b6000602082840312156110da576110d961177d565b5b60006110e884828501610fa5565b91505092915050565b6000806000806080858703121561110b5761110a61177d565b5b600061111987828801610f90565b945050602061112a87828801610f23565b935050604061113b87828801610f23565b925050606061114c87828801610f90565b91505092959194509250565b61116181611602565b82525050565b611170816115f0565b82525050565b61117f8161164a565b82525050565b6000611190826114bf565b61119a81856114ca565b93506111aa81856020860161167d565b6111b381611782565b840191505092915050565b60006111cb6025836114ca565b91506111d682611793565b604082019050919050565b60006111ee6014836114ca565b91506111f9826117e2565b602082019050919050565b6000611211602f836114ca565b915061121c8261180b565b604082019050919050565b60006112346026836114ca565b915061123f8261185a565b604082019050919050565b6000611257601f836114ca565b9150611262826118a9565b602082019050919050565b600061127a6027836114ca565b9150611285826118d2565b604082019050919050565b61129981611640565b82525050565b60006020820190506112b46000830184611167565b92915050565b60006020820190506112cf6000830184611158565b92915050565b60006040820190506112ea6000830185611167565b6112f76020830184611167565b9392505050565b60006060820190506113136000830186611167565b6113206020830185611167565b61132d6040830184611290565b949350505050565b600060208201905061134a6000830184611176565b92915050565b60006020820190508181036000830152611369816111be565b9050919050565b60006020820190508181036000830152611389816111e1565b9050919050565b600060208201905081810360008301526113a981611204565b9050919050565b600060208201905081810360008301526113c981611227565b9050919050565b600060208201905081810360008301526113e98161124a565b9050919050565b600060208201905081810360008301526114098161126d565b9050919050565b60006020820190506114256000830184611290565b92915050565b60006060820190506114406000830186611290565b61144d6020830185611290565b818103604083015261145f8184611185565b9050949350505050565b6000611473611484565b905061147f82826116b0565b919050565b6000604051905090565b600067ffffffffffffffff8211156114a9576114a861173f565b5b6114b282611782565b9050602081019050919050565b600081519050919050565b600082825260208201905092915050565b60006114e682611640565b91506114f183611640565b9250827fffffffffffffffffffffffffffffffffffffffffffffffffffffffffffffffff03821115611526576115256116e1565b5b828201905092915050565b600061153c82611640565b915061154783611640565b92508261155757611556611710565b5b828204905092915050565b600061156d82611640565b915061157883611640565b9250817fffffffffffffffffffffffffffffffffffffffffffffffffffffffffffffffff04831182151516156115b1576115b06116e1565b5b828202905092915050565b60006115c782611640565b91506115d283611640565b9250828210156115e5576115e46116e1565b5b828203905092915050565b60006115fb82611620565b9050919050565b600061160d82611620565b9050919050565b60008115159050919050565b600073ffffffffffffffffffffffffffffffffffffffff82169050919050565b6000819050919050565b60006116558261165c565b9050919050565b600061166782611620565b9050919050565b82818337600083830152505050565b60005b8381101561169b578082015181840152602081019050611680565b838111156116aa576000848401525b50505050565b6116b982611782565b810181811067ffffffffffffffff821117156116d8576116d761173f565b5b80604052505050565b7f4e487b7100000000000000000000000000000000000000000000000000000000600052601160045260246000fd5b7f4e487b7100000000000000000000000000000000000000000000000000000000600052601260045260246000fd5b7f4e487b7100000000000000000000000000000000000000000000000000000000600052604160045260246000fd5b600080fd5b600080fd5b600080fd5b600080fd5b6000601f19601f8301169050919050565b7f4f6e6c7920746865206f776e65722063616e2063616c6c20746869732066756e60008201527f6374696f6e000000000000000000000000000000000000000000000000000000602082015250565b7f496e73756666696369656e742062616c616e6365000000000000000000000000600082015250565b7f506c6174666f726d20626173697320706f696e74732073686f756c642062652060008201527f3c3d203130303030202831303025290000000000000000000000000000000000602082015250565b7f4e6f7420656e6f7567682062616c616e636520746f207061792074686520706c60008201527f6174666f726d0000000000000000000000000000000000000000000000000000602082015250565b7f5265656e7472616e637947756172643a207265656e7472616e742063616c6c00600082015250565b7f4e6f7420656e6f7567682062616c616e636520746f207061792074686520616660008201527f66696c6961746500000000000000000000000000000000000000000000000000602082015250565b61192a816115f0565b811461193557600080fd5b50565b61194181611602565b811461194c57600080fd5b50565b61195881611614565b811461196357600080fd5b50565b61196f81611640565b811461197a57600080fd5b5056fea2646970667358221220ca170b6839abaca44dace0d041eb8363a6617ddc3f74ceb630080d5fd69dc2ee64736f6c63430008060033",
  "linkReferences": {},
  "deployedLinkReferences": {}
}