{
  "_format": "hh-sol-artifact-1",
  "contractName": "SingleEditionMintable",
  "sourceName": "src/web3/contracts/SingleEditionMintable.sol",
  "abi": [
    {
      "inputs": [
        {
          "internalType": "contract SharedNFTLogic",
          "name": "_sharedNFTLogic",
          "type": "address"
        },
        {
          "internalType": "address",
          "name": "_feeAccount",
          "type": "address"
        }
      ],
      "stateMutability": "nonpayable",
      "type": "constructor"
    },
    {
      "anonymous": false,
      "inputs": [
        {
          "indexed": true,
          "internalType": "address",
          "name": "owner",
          "type": "address"
        },
        {
          "indexed": true,
          "internalType": "address",
          "name": "approved",
          "type": "address"
        },
        {
          "indexed": true,
          "internalType": "uint256",
          "name": "tokenId",
          "type": "uint256"
        }
      ],
      "name": "Approval",
      "type": "event"
    },
    {
      "anonymous": false,
      "inputs": [
        {
          "indexed": true,
          "internalType": "address",
          "name": "owner",
          "type": "address"
        },
        {
          "indexed": true,
          "internalType": "address",
          "name": "operator",
          "type": "address"
        },
        {
          "indexed": false,
          "internalType": "bool",
          "name": "approved",
          "type": "bool"
        }
      ],
      "name": "ApprovalForAll",
      "type": "event"
    },
    {
      "anonymous": false,
      "inputs": [
        {
          "indexed": false,
          "internalType": "uint256",
          "name": "price",
          "type": "uint256"
        },
        {
          "indexed": false,
          "internalType": "address",
          "name": "owner",
          "type": "address"
        }
      ],
      "name": "EditionSold",
      "type": "event"
    },
    {
      "anonymous": false,
      "inputs": [
        {
          "indexed": false,
          "internalType": "uint8",
          "name": "version",
          "type": "uint8"
        }
      ],
      "name": "Initialized",
      "type": "event"
    },
    {
      "anonymous": false,
      "inputs": [
        {
          "indexed": true,
          "internalType": "address",
          "name": "previousOwner",
          "type": "address"
        },
        {
          "indexed": true,
          "internalType": "address",
          "name": "newOwner",
          "type": "address"
        }
      ],
      "name": "OwnershipTransferred",
      "type": "event"
    },
    {
      "anonymous": false,
      "inputs": [
        {
          "indexed": true,
          "internalType": "address",
          "name": "creator",
          "type": "address"
        },
        {
          "indexed": true,
          "internalType": "address",
          "name": "sender",
          "type": "address"
        },
        {
          "indexed": false,
          "internalType": "uint256",
          "name": "amount",
          "type": "uint256"
        },
        {
          "indexed": false,
          "internalType": "uint256",
          "name": "applicationFee",
          "type": "uint256"
        },
        {
          "indexed": true,
          "internalType": "address",
          "name": "editionContractAddress",
          "type": "address"
        },
        {
          "indexed": false,
          "internalType": "string",
          "name": "orderId",
          "type": "string"
        }
      ],
      "name": "PaidFee",
      "type": "event"
    },
    {
      "anonymous": false,
      "inputs": [
        {
          "indexed": false,
          "internalType": "uint256",
          "name": "amount",
          "type": "uint256"
        }
      ],
      "name": "PriceChanged",
      "type": "event"
    },
    {
      "anonymous": false,
      "inputs": [
        {
          "indexed": true,
          "internalType": "address",
          "name": "from",
          "type": "address"
        },
        {
          "indexed": true,
          "internalType": "address",
          "name": "to",
          "type": "address"
        },
        {
          "indexed": true,
          "internalType": "uint256",
          "name": "tokenId",
          "type": "uint256"
        }
      ],
      "name": "Transfer",
      "type": "event"
    },
    {
      "inputs": [
        {
          "internalType": "address",
          "name": "to",
          "type": "address"
        },
        {
          "internalType": "uint256",
          "name": "tokenId",
          "type": "uint256"
        }
      ],
      "name": "approve",
      "outputs": [],
      "stateMutability": "nonpayable",
      "type": "function"
    },
    {
      "inputs": [
        {
          "internalType": "address",
          "name": "owner",
          "type": "address"
        }
      ],
      "name": "balanceOf",
      "outputs": [
        {
          "internalType": "uint256",
          "name": "",
          "type": "uint256"
        }
      ],
      "stateMutability": "view",
      "type": "function"
    },
    {
      "inputs": [
        {
          "internalType": "uint256",
          "name": "tokenId",
          "type": "uint256"
        }
      ],
      "name": "burn",
      "outputs": [],
      "stateMutability": "nonpayable",
      "type": "function"
    },
    {
      "inputs": [],
      "name": "contractURI",
      "outputs": [
        {
          "internalType": "string",
          "name": "",
          "type": "string"
        }
      ],
      "stateMutability": "view",
      "type": "function"
    },
    {
      "inputs": [],
      "name": "contractURI_",
      "outputs": [
        {
          "internalType": "string",
          "name": "",
          "type": "string"
        }
      ],
      "stateMutability": "view",
      "type": "function"
    },
    {
      "inputs": [],
      "name": "description",
      "outputs": [
        {
          "internalType": "string",
          "name": "",
          "type": "string"
        }
      ],
      "stateMutability": "view",
      "type": "function"
    },
    {
      "inputs": [],
      "name": "editionSize",
      "outputs": [
        {
          "internalType": "uint256",
          "name": "",
          "type": "uint256"
        }
      ],
      "stateMutability": "view",
      "type": "function"
    },
    {
      "inputs": [],
      "name": "feeAccount",
      "outputs": [
        {
          "internalType": "address payable",
          "name": "",
          "type": "address"
        }
      ],
      "stateMutability": "view",
      "type": "function"
    },
    {
      "inputs": [
        {
          "internalType": "uint256",
          "name": "tokenId",
          "type": "uint256"
        }
      ],
      "name": "getApproved",
      "outputs": [
        {
          "internalType": "address",
          "name": "",
          "type": "address"
        }
      ],
      "stateMutability": "view",
      "type": "function"
    },
    {
      "inputs": [],
      "name": "getURIs",
      "outputs": [
        {
          "internalType": "string",
          "name": "",
          "type": "string"
        },
        {
          "internalType": "bytes32",
          "name": "",
          "type": "bytes32"
        },
        {
          "internalType": "string",
          "name": "",
          "type": "string"
        },
        {
          "internalType": "bytes32",
          "name": "",
          "type": "bytes32"
        }
      ],
      "stateMutability": "view",
      "type": "function"
    },
    {
      "inputs": [
        {
          "internalType": "address",
          "name": "_owner",
          "type": "address"
        },
        {
          "internalType": "string",
          "name": "_name",
          "type": "string"
        },
        {
          "internalType": "string",
          "name": "_symbol",
          "type": "string"
        },
        {
          "internalType": "string",
          "name": "_description",
          "type": "string"
        },
        {
          "internalType": "string",
          "name": "_imageUrl",
          "type": "string"
        },
        {
          "internalType": "string",
          "name": "_contractURI",
          "type": "string"
        },
        {
          "internalType": "uint256",
          "name": "_editionSize",
          "type": "uint256"
        },
        {
          "internalType": "uint256",
          "name": "_royaltyBPS",
          "type": "uint256"
        },
        {
          "internalType": "uint256",
          "name": "_salePrice",
          "type": "uint256"
        }
      ],
      "name": "initialize",
      "outputs": [],
      "stateMutability": "nonpayable",
      "type": "function"
    },
    {
      "inputs": [
        {
          "internalType": "address",
          "name": "owner",
          "type": "address"
        },
        {
          "internalType": "address",
          "name": "operator",
          "type": "address"
        }
      ],
      "name": "isApprovedForAll",
      "outputs": [
        {
          "internalType": "bool",
          "name": "",
          "type": "bool"
        }
      ],
      "stateMutability": "view",
      "type": "function"
    },
    {
      "inputs": [
        {
          "internalType": "address",
          "name": "to",
          "type": "address"
        }
      ],
      "name": "mintEdition",
      "outputs": [
        {
          "internalType": "uint256",
          "name": "",
          "type": "uint256"
        }
      ],
      "stateMutability": "nonpayable",
      "type": "function"
    },
    {
      "inputs": [
        {
          "internalType": "address[]",
          "name": "recipients",
          "type": "address[]"
        }
      ],
      "name": "mintEditions",
      "outputs": [
        {
          "internalType": "uint256",
          "name": "",
          "type": "uint256"
        }
      ],
      "stateMutability": "nonpayable",
      "type": "function"
    },
    {
      "inputs": [],
      "name": "name",
      "outputs": [
        {
          "internalType": "string",
          "name": "",
          "type": "string"
        }
      ],
      "stateMutability": "view",
      "type": "function"
    },
    {
      "inputs": [],
      "name": "numberCanMint",
      "outputs": [
        {
          "internalType": "uint256",
          "name": "",
          "type": "uint256"
        }
      ],
      "stateMutability": "view",
      "type": "function"
    },
    {
      "inputs": [],
      "name": "owner",
      "outputs": [
        {
          "internalType": "address",
          "name": "",
          "type": "address"
        }
      ],
      "stateMutability": "view",
      "type": "function"
    },
    {
      "inputs": [
        {
          "internalType": "uint256",
          "name": "tokenId",
          "type": "uint256"
        }
      ],
      "name": "ownerOf",
      "outputs": [
        {
          "internalType": "address",
          "name": "",
          "type": "address"
        }
      ],
      "stateMutability": "view",
      "type": "function"
    },
    {
      "inputs": [
        {
          "internalType": "string",
          "name": "orderId",
          "type": "string"
        }
      ],
      "name": "purchase",
      "outputs": [
        {
          "internalType": "uint256",
          "name": "",
          "type": "uint256"
        }
      ],
      "stateMutability": "payable",
      "type": "function"
    },
    {
      "inputs": [],
      "name": "renounceOwnership",
      "outputs": [],
      "stateMutability": "nonpayable",
      "type": "function"
    },
    {
      "inputs": [
        {
          "internalType": "uint256",
          "name": "",
          "type": "uint256"
        },
        {
          "internalType": "uint256",
          "name": "_salePrice",
          "type": "uint256"
        }
      ],
      "name": "royaltyInfo",
      "outputs": [
        {
          "internalType": "address",
          "name": "receiver",
          "type": "address"
        },
        {
          "internalType": "uint256",
          "name": "royaltyAmount",
          "type": "uint256"
        }
      ],
      "stateMutability": "view",
      "type": "function"
    },
    {
      "inputs": [
        {
          "internalType": "address",
          "name": "from",
          "type": "address"
        },
        {
          "internalType": "address",
          "name": "to",
          "type": "address"
        },
        {
          "internalType": "uint256",
          "name": "tokenId",
          "type": "uint256"
        }
      ],
      "name": "safeTransferFrom",
      "outputs": [],
      "stateMutability": "nonpayable",
      "type": "function"
    },
    {
      "inputs": [
        {
          "internalType": "address",
          "name": "from",
          "type": "address"
        },
        {
          "internalType": "address",
          "name": "to",
          "type": "address"
        },
        {
          "internalType": "uint256",
          "name": "tokenId",
          "type": "uint256"
        },
        {
          "internalType": "bytes",
          "name": "data",
          "type": "bytes"
        }
      ],
      "name": "safeTransferFrom",
      "outputs": [],
      "stateMutability": "nonpayable",
      "type": "function"
    },
    {
      "inputs": [],
      "name": "salePrice",
      "outputs": [
        {
          "internalType": "uint256",
          "name": "",
          "type": "uint256"
        }
      ],
      "stateMutability": "view",
      "type": "function"
    },
    {
      "inputs": [
        {
          "internalType": "address",
          "name": "operator",
          "type": "address"
        },
        {
          "internalType": "bool",
          "name": "approved",
          "type": "bool"
        }
      ],
      "name": "setApprovalForAll",
      "outputs": [],
      "stateMutability": "nonpayable",
      "type": "function"
    },
    {
      "inputs": [
        {
          "internalType": "address",
          "name": "minter",
          "type": "address"
        },
        {
          "internalType": "bool",
          "name": "allowed",
          "type": "bool"
        }
      ],
      "name": "setApprovedMinter",
      "outputs": [],
      "stateMutability": "nonpayable",
      "type": "function"
    },
    {
      "inputs": [
        {
          "internalType": "uint256",
          "name": "_salePrice",
          "type": "uint256"
        }
      ],
      "name": "setSalePrice",
      "outputs": [],
      "stateMutability": "nonpayable",
      "type": "function"
    },
    {
      "inputs": [
        {
          "internalType": "bytes4",
          "name": "interfaceId",
          "type": "bytes4"
        }
      ],
      "name": "supportsInterface",
      "outputs": [
        {
          "internalType": "bool",
          "name": "",
          "type": "bool"
        }
      ],
      "stateMutability": "view",
      "type": "function"
    },
    {
      "inputs": [],
      "name": "symbol",
      "outputs": [
        {
          "internalType": "string",
          "name": "",
          "type": "string"
        }
      ],
      "stateMutability": "view",
      "type": "function"
    },
    {
      "inputs": [
        {
          "internalType": "uint256",
          "name": "tokenId",
          "type": "uint256"
        }
      ],
      "name": "tokenURI",
      "outputs": [
        {
          "internalType": "string",
          "name": "",
          "type": "string"
        }
      ],
      "stateMutability": "view",
      "type": "function"
    },
    {
      "inputs": [],
      "name": "totalSupply",
      "outputs": [
        {
          "internalType": "uint256",
          "name": "",
          "type": "uint256"
        }
      ],
      "stateMutability": "view",
      "type": "function"
    },
    {
      "inputs": [
        {
          "internalType": "address",
          "name": "from",
          "type": "address"
        },
        {
          "internalType": "address",
          "name": "to",
          "type": "address"
        },
        {
          "internalType": "uint256",
          "name": "tokenId",
          "type": "uint256"
        }
      ],
      "name": "transferFrom",
      "outputs": [],
      "stateMutability": "nonpayable",
      "type": "function"
    },
    {
      "inputs": [
        {
          "internalType": "address",
          "name": "newOwner",
          "type": "address"
        }
      ],
      "name": "transferOwnership",
      "outputs": [],
      "stateMutability": "nonpayable",
      "type": "function"
    },
    {
      "inputs": [
        {
          "internalType": "string",
          "name": "_imageUrl",
          "type": "string"
        },
        {
          "internalType": "string",
          "name": "_animationUrl",
          "type": "string"
        }
      ],
      "name": "updateEditionURLs",
      "outputs": [],
      "stateMutability": "nonpayable",
      "type": "function"
    },
    {
      "inputs": [],
      "name": "withdraw",
      "outputs": [],
      "stateMutability": "nonpayable",
      "type": "function"
    }
  ],
  "bytecode": "0x60c06040523480156200001157600080fd5b5060405162004ac838038062004ac88339818101604052810190620000379190620000db565b8073ffffffffffffffffffffffffffffffffffffffff1660808173ffffffffffffffffffffffffffffffffffffffff1660601b815250508173ffffffffffffffffffffffffffffffffffffffff1660a08173ffffffffffffffffffffffffffffffffffffffff1660601b815250505050620001a3565b600081519050620000be816200016f565b92915050565b600081519050620000d58162000189565b92915050565b60008060408385031215620000f557620000f46200016a565b5b60006200010585828601620000c4565b92505060206200011885828601620000ad565b9150509250929050565b60006200012f826200014a565b9050919050565b6000620001438262000122565b9050919050565b600073ffffffffffffffffffffffffffffffffffffffff82169050919050565b600080fd5b6200017a8162000122565b81146200018657600080fd5b50565b620001948162000136565b8114620001a057600080fd5b50565b60805160601c60a05160601c6148ee620001da6000396000505060008181610fc8015281816112d40152611d4501526148ee6000f3fe6080604052600436106102045760003560e01c80636352211e11610118578063b88d4fde116100a0578063e8a3d4851161006f578063e8a3d48514610770578063e985e9c51461079b578063f2fde38b146107d8578063f4ed0f4614610801578063f51f96dd1461082c57610204565b8063b88d4fde146106b8578063c87b56dd146106e1578063d40cd8be1461071e578063e444bfcc1461074757610204565b80637284e416116100e75780637284e416146105d15780638da5cb5b146105fc57806395d89b4114610627578063a22cb46514610652578063a66ff0af1461067b57610204565b80636352211e1461051557806365e17c9d1461055257806370a082311461057d578063715018a6146105ba57610204565b806323b872dd1161019b57806335a6907a1161016a57806335a6907a146104515780633ccfd60b1461047c57806342842e0e1461049357806342966c68146104bc57806359f5e0ce146104e557610204565b806323b872dd1461039357806328c5440f146103bc57806329ec16dd146103ea5780632a55205a1461041357610204565b80630b65b6e7116101d75780630b65b6e7146102d75780630f6a93491461030257806318160ddd1461033f5780631919fed71461036a57610204565b806301ffc9a71461020957806306fdde0314610246578063081812fc14610271578063095ea7b3146102ae575b600080fd5b34801561021557600080fd5b50610230600480360381019061022b9190613497565b610857565b60405161023d9190613ad0565b60405180910390f35b34801561025257600080fd5b5061025b6108d1565b6040516102689190613b06565b60405180910390f35b34801561027d57600080fd5b50610298600480360381019061029391906135b2565b610963565b6040516102a59190613a25565b60405180910390f35b3480156102ba57600080fd5b506102d560048036038101906102d0919061340e565b6109a9565b005b3480156102e357600080fd5b506102ec610ac1565b6040516102f99190613e3b565b60405180910390f35b34801561030e57600080fd5b506103296004803603810190610324919061344e565b610b1e565b6040516103369190613e3b565b60405180910390f35b34801561034b57600080fd5b50610354610b77565b6040516103619190613e3b565b60405180910390f35b34801561037657600080fd5b50610391600480360381019061038c91906135b2565b610b94565b005b34801561039f57600080fd5b506103ba60048036038101906103b591906131a2565b610bdf565b005b3480156103c857600080fd5b506103d1610c3f565b6040516103e19493929190613b28565b60405180910390f35b3480156103f657600080fd5b50610411600480360381019061040c9190613278565b610d77565b005b34801561041f57600080fd5b5061043a600480360381019061043591906135df565b610dda565b604051610448929190613aa7565b60405180910390f35b34801561045d57600080fd5b50610466610e5b565b6040516104739190613b06565b60405180910390f35b34801561048857600080fd5b50610491610ee9565b005b34801561049f57600080fd5b506104ba60048036038101906104b591906131a2565b610f04565b005b3480156104c857600080fd5b506104e360048036038101906104de91906135b2565b610f24565b005b6104ff60048036038101906104fa91906134f1565b610f80565b60405161050c9190613e3b565b60405180910390f35b34801561052157600080fd5b5061053c600480360381019061053791906135b2565b61124b565b6040516105499190613a25565b60405180910390f35b34801561055e57600080fd5b506105676112d2565b6040516105749190613a40565b60405180910390f35b34801561058957600080fd5b506105a4600480360381019061059f9190613135565b6112f6565b6040516105b19190613e3b565b60405180910390f35b3480156105c657600080fd5b506105cf6113ae565b005b3480156105dd57600080fd5b506105e66113c2565b6040516105f39190613b06565b60405180910390f35b34801561060857600080fd5b50610611611450565b60405161061e9190613a25565b60405180910390f35b34801561063357600080fd5b5061063c61145f565b6040516106499190613b06565b60405180910390f35b34801561065e57600080fd5b5061067960048036038101906106749190613278565b6114f1565b005b34801561068757600080fd5b506106a2600480360381019061069d9190613135565b611507565b6040516106af9190613e3b565b60405180910390f35b3480156106c457600080fd5b506106df60048036038101906106da91906131f5565b6115fe565b005b3480156106ed57600080fd5b50610708600480360381019061070391906135b2565b611660565b6040516107159190613b06565b60405180910390f35b34801561072a57600080fd5b50610745600480360381019061074091906132b8565b61173c565b005b34801561075357600080fd5b5061076e6004803603810190610769919061353a565b6118fa565b005b34801561077c57600080fd5b50610785611934565b6040516107929190613b06565b60405180910390f35b3480156107a757600080fd5b506107c260048036038101906107bd9190613162565b6119c6565b6040516107cf9190613ad0565b60405180910390f35b3480156107e457600080fd5b506107ff60048036038101906107fa9190613135565b611a5a565b005b34801561080d57600080fd5b50610816611ade565b6040516108239190613e3b565b60405180910390f35b34801561083857600080fd5b50610841611ae4565b60405161084e9190613e3b565b60405180910390f35b6000817bffffffffffffffffffffffffffffffffffffffffffffffffffffffff19167f2a55205a000000000000000000000000000000000000000000000000000000007bffffffffffffffffffffffffffffffffffffffffffffffffffffffff191614806108ca57506108c982611aea565b5b9050919050565b6060606580546108e0906141b9565b80601f016020809104026020016040519081016040528092919081815260200182805461090c906141b9565b80156109595780601f1061092e57610100808354040283529160200191610959565b820191906000526020600020905b81548152906001019060200180831161093c57829003601f168201915b5050505050905090565b600061096e82611bcc565b6069600083815260200190815260200160002060009054906101000a900473ffffffffffffffffffffffffffffffffffffffff169050919050565b60006109b48261124b565b90508073ffffffffffffffffffffffffffffffffffffffff168373ffffffffffffffffffffffffffffffffffffffff161415610a25576040517f08c379a0000000000000000000000000000000000000000000000000000000008152600401610a1c90613dbb565b60405180910390fd5b8073ffffffffffffffffffffffffffffffffffffffff16610a44611c17565b73ffffffffffffffffffffffffffffffffffffffff161480610a735750610a7281610a6d611c17565b6119c6565b5b610ab2576040517f08c379a0000000000000000000000000000000000000000000000000000000008152600401610aa990613ddb565b60405180910390fd5b610abc8383611c1f565b505050565b60008060cf541415610af5577fffffffffffffffffffffffffffffffffffffffffffffffffffffffffffffffff9050610b1b565b610aff60d0611cd8565b600160cf54610b0e9190613fb3565b610b189190614094565b90505b90565b6000610b28611ce6565b610b67576040517f08c379a0000000000000000000000000000000000000000000000000000000008152600401610b5e90613d7b565b60405180910390fd5b610b7082611e37565b9050919050565b60006001610b8560d0611cd8565b610b8f9190614094565b905090565b610b9c611f29565b8060d3819055507fa6dc15bdb68da224c66db4b3838d9a2b205138e8cff6774e57d0af91e196d62260d354604051610bd49190613e3b565b60405180910390a150565b610bf0610bea611c17565b82611fa7565b610c2f576040517f08c379a0000000000000000000000000000000000000000000000000000000008152600401610c2690613b7b565b60405180910390fd5b610c3a83838361203c565b505050565b606060006060600060cd60ce5460cb60cc54838054610c5d906141b9565b80601f0160208091040260200160405190810160405280929190818152602001828054610c89906141b9565b8015610cd65780601f10610cab57610100808354040283529160200191610cd6565b820191906000526020600020905b815481529060010190602001808311610cb957829003601f168201915b50505050509350818054610ce9906141b9565b80601f0160208091040260200160405190810160405280929190818152602001828054610d15906141b9565b8015610d625780601f10610d3757610100808354040283529160200191610d62565b820191906000526020600020905b815481529060010190602001808311610d4557829003601f168201915b50505050509150935093509350935090919293565b610d7f611f29565b8060d260008473ffffffffffffffffffffffffffffffffffffffff1673ffffffffffffffffffffffffffffffffffffffff16815260200190815260200160002060006101000a81548160ff0219169083151502179055505050565b600080600073ffffffffffffffffffffffffffffffffffffffff16610dfd611450565b73ffffffffffffffffffffffffffffffffffffffff161415610e2c57610e21611450565b600091509150610e54565b610e34611450565b61271060d15485610e45919061403a565b610e4f9190614009565b915091505b9250929050565b60c98054610e68906141b9565b80601f0160208091040260200160405190810160405280929190818152602001828054610e94906141b9565b8015610ee15780601f10610eb657610100808354040283529160200191610ee1565b820191906000526020600020905b815481529060010190602001808311610ec457829003601f168201915b505050505081565b610ef1611f29565b610f02610efc611450565b47612336565b565b610f1f838383604051806020016040528060008152506115fe565b505050565b610f35610f2f611c17565b82611fa7565b610f74576040517f08c379a0000000000000000000000000000000000000000000000000000000008152600401610f6b90613cdb565b60405180910390fd5b610f7d8161242a565b50565b60008060d35411610fc6576040517f08c379a0000000000000000000000000000000000000000000000000000000008152600401610fbd90613d1b565b60405180910390fd5b7f000000000000000000000000000000000000000000000000000000000000000073ffffffffffffffffffffffffffffffffffffffff166108fc606460053461100f919061403a565b6110199190614009565b9081150290604051600060405180830381858888f19350505050158015611044573d6000803e3d6000fd5b5061104d611450565b73ffffffffffffffffffffffffffffffffffffffff166108fc6064605f34611075919061403a565b61107f9190614009565b9081150290604051600060405180830381858888f193505050501580156110aa573d6000803e3d6000fd5b506000600167ffffffffffffffff8111156110c8576110c76142d8565b5b6040519080825280602002602001820160405280156110f65781602001602082028036833780820191505090505b509050338160008151811061110e5761110d6142a9565b5b602002602001019073ffffffffffffffffffffffffffffffffffffffff16908173ffffffffffffffffffffffffffffffffffffffff16815250507f60a6c75698fadb72223808131f9f9bb9db3afa32122db6d94fb8fc985a504baa60d3543360405161117b929190613e56565b60405180910390a13073ffffffffffffffffffffffffffffffffffffffff163373ffffffffffffffffffffffffffffffffffffffff166111b9611450565b73ffffffffffffffffffffffffffffffffffffffff167f5c9f69ec0522df0c750f4751ecf3c4a8cfe8b2fe0368ca1cb427fcb445a6a9b16064605f346111ff919061403a565b6112099190614009565b6064600534611218919061403a565b6112229190614009565b8860405161123293929190613e7f565b60405180910390a461124381611e37565b915050919050565b60008061125783612578565b9050600073ffffffffffffffffffffffffffffffffffffffff168173ffffffffffffffffffffffffffffffffffffffff1614156112c9576040517f08c379a00000000000000000000000000000000000000000000000000000000081526004016112c090613d9b565b60405180910390fd5b80915050919050565b7f000000000000000000000000000000000000000000000000000000000000000081565b60008073ffffffffffffffffffffffffffffffffffffffff168273ffffffffffffffffffffffffffffffffffffffff161415611367576040517f08c379a000000000000000000000000000000000000000000000000000000000815260040161135e90613cbb565b60405180910390fd5b606860008373ffffffffffffffffffffffffffffffffffffffff1673ffffffffffffffffffffffffffffffffffffffff168152602001908152602001600020549050919050565b6113b6611f29565b6113c060006125b5565b565b60ca80546113cf906141b9565b80601f01602080910402602001604051908101604052809291908181526020018280546113fb906141b9565b80156114485780601f1061141d57610100808354040283529160200191611448565b820191906000526020600020905b81548152906001019060200180831161142b57829003601f168201915b505050505081565b600061145a61267b565b905090565b60606066805461146e906141b9565b80601f016020809104026020016040519081016040528092919081815260200182805461149a906141b9565b80156114e75780601f106114bc576101008083540402835291602001916114e7565b820191906000526020600020905b8154815290600101906020018083116114ca57829003601f168201915b5050505050905090565b6115036114fc611c17565b83836126a5565b5050565b6000611511611ce6565b611550576040517f08c379a000000000000000000000000000000000000000000000000000000000815260040161154790613d7b565b60405180910390fd5b6000600167ffffffffffffffff81111561156d5761156c6142d8565b5b60405190808252806020026020018201604052801561159b5781602001602082028036833780820191505090505b50905082816000815181106115b3576115b26142a9565b5b602002602001019073ffffffffffffffffffffffffffffffffffffffff16908173ffffffffffffffffffffffffffffffffffffffff16815250506115f681611e37565b915050919050565b61160f611609611c17565b83611fa7565b61164e576040517f08c379a000000000000000000000000000000000000000000000000000000000815260040161164590613b7b565b60405180910390fd5b61165a84848484612812565b50505050565b606061166b8261286e565b6116aa576040517f08c379a00000000000000000000000000000000000000000000000000000000081526004016116a190613c9b565b60405180910390fd5b60c980546116b7906141b9565b80601f01602080910402602001604051908101604052809291908181526020018280546116e3906141b9565b80156117305780601f1061170557610100808354040283529160200191611730565b820191906000526020600020905b81548152906001019060200180831161171357829003601f168201915b50505050509050919050565b60008060019054906101000a900460ff1615905080801561176d5750600160008054906101000a900460ff1660ff16105b8061179a575061177c306128af565b1580156117995750600160008054906101000a900460ff1660ff16145b5b6117d9576040517f08c379a00000000000000000000000000000000000000000000000000000000081526004016117d090613cfb565b60405180910390fd5b60016000806101000a81548160ff021916908360ff1602179055508015611816576001600060016101000a81548160ff0219169083151502179055505b61182089896128d2565b61182861292f565b6118318a611a5a565b8660ca9080519060200190611847929190612eab565b508560cd908051906020019061185e929190612eab565b508360cf819055508260d1819055508160d3819055508460c9908051906020019061188a929190612eab565b5061189560d0612988565b80156118ee5760008060016101000a81548160ff0219169083151502179055507f7f26b83ff96e1f2b6a682f133852f6798a09c465da95921460cefb384740249860016040516118e59190613aeb565b60405180910390a15b50505050505050505050565b611902611f29565b8160cd9080519060200190611918929190612eab565b508060cb908051906020019061192f929190612eab565b505050565b606060c98054611943906141b9565b80601f016020809104026020016040519081016040528092919081815260200182805461196f906141b9565b80156119bc5780601f10611991576101008083540402835291602001916119bc565b820191906000526020600020905b81548152906001019060200180831161199f57829003601f168201915b5050505050905090565b6000606a60008473ffffffffffffffffffffffffffffffffffffffff1673ffffffffffffffffffffffffffffffffffffffff16815260200190815260200160002060008373ffffffffffffffffffffffffffffffffffffffff1673ffffffffffffffffffffffffffffffffffffffff16815260200190815260200160002060009054906101000a900460ff16905092915050565b611a62611f29565b600073ffffffffffffffffffffffffffffffffffffffff168173ffffffffffffffffffffffffffffffffffffffff161415611ad2576040517f08c379a0000000000000000000000000000000000000000000000000000000008152600401611ac990613bbb565b60405180910390fd5b611adb816125b5565b50565b60cf5481565b60d35481565b60007f80ac58cd000000000000000000000000000000000000000000000000000000007bffffffffffffffffffffffffffffffffffffffffffffffffffffffff1916827bffffffffffffffffffffffffffffffffffffffffffffffffffffffff19161480611bb557507f5b5e139f000000000000000000000000000000000000000000000000000000007bffffffffffffffffffffffffffffffffffffffffffffffffffffffff1916827bffffffffffffffffffffffffffffffffffffffffffffffffffffffff1916145b80611bc55750611bc48261299e565b5b9050919050565b611bd58161286e565b611c14576040517f08c379a0000000000000000000000000000000000000000000000000000000008152600401611c0b90613d9b565b60405180910390fd5b50565b600033905090565b816069600083815260200190815260200160002060006101000a81548173ffffffffffffffffffffffffffffffffffffffff021916908373ffffffffffffffffffffffffffffffffffffffff160217905550808273ffffffffffffffffffffffffffffffffffffffff16611c928361124b565b73ffffffffffffffffffffffffffffffffffffffff167f8c5be1e5ebec7d5bd14f71427d1e84f3dd0314c0f7b2291e5b200ac8c7c3b92560405160405180910390a45050565b600081600001549050919050565b60003373ffffffffffffffffffffffffffffffffffffffff16611d07611450565b73ffffffffffffffffffffffffffffffffffffffff161415611d2c5760019050611e34565b3373ffffffffffffffffffffffffffffffffffffffff167f000000000000000000000000000000000000000000000000000000000000000073ffffffffffffffffffffffffffffffffffffffff161415611d895760019050611e34565b60d260008073ffffffffffffffffffffffffffffffffffffffff1673ffffffffffffffffffffffffffffffffffffffff16815260200190815260200160002060009054906101000a900460ff1615611de45760019050611e34565b60d260003373ffffffffffffffffffffffffffffffffffffffff1673ffffffffffffffffffffffffffffffffffffffff16815260200190815260200160002060009054906101000a900460ff1690505b90565b600080611e4460d0611cd8565b905060006001845183611e579190613fb3565b611e619190614094565b9050600060cf541480611e76575060cf548111155b611eb5576040517f08c379a0000000000000000000000000000000000000000000000000000000008152600401611eac90613dfb565b60405180910390fd5b5b80611ec160d0611cd8565b11611f1657611f078483611ed560d0611cd8565b611edf9190614094565b81518110611ef057611eef6142a9565b5b6020026020010151611f0260d0611cd8565b612a08565b611f1160d0612988565b611eb6565b611f2060d0611cd8565b92505050919050565b611f31611c17565b73ffffffffffffffffffffffffffffffffffffffff16611f4f611450565b73ffffffffffffffffffffffffffffffffffffffff1614611fa5576040517f08c379a0000000000000000000000000000000000000000000000000000000008152600401611f9c90613d5b565b60405180910390fd5b565b600080611fb38361124b565b90508073ffffffffffffffffffffffffffffffffffffffff168473ffffffffffffffffffffffffffffffffffffffff161480611ff55750611ff481856119c6565b5b8061203357508373ffffffffffffffffffffffffffffffffffffffff1661201b84610963565b73ffffffffffffffffffffffffffffffffffffffff16145b91505092915050565b8273ffffffffffffffffffffffffffffffffffffffff1661205c8261124b565b73ffffffffffffffffffffffffffffffffffffffff16146120b2576040517f08c379a00000000000000000000000000000000000000000000000000000000081526004016120a990613bdb565b60405180910390fd5b600073ffffffffffffffffffffffffffffffffffffffff168273ffffffffffffffffffffffffffffffffffffffff161415612122576040517f08c379a000000000000000000000000000000000000000000000000000000000815260040161211990613c1b565b60405180910390fd5b61212f8383836001612c26565b8273ffffffffffffffffffffffffffffffffffffffff1661214f8261124b565b73ffffffffffffffffffffffffffffffffffffffff16146121a5576040517f08c379a000000000000000000000000000000000000000000000000000000000815260040161219c90613bdb565b60405180910390fd5b6069600082815260200190815260200160002060006101000a81549073ffffffffffffffffffffffffffffffffffffffff02191690556001606860008573ffffffffffffffffffffffffffffffffffffffff1673ffffffffffffffffffffffffffffffffffffffff168152602001908152602001600020600082825403925050819055506001606860008473ffffffffffffffffffffffffffffffffffffffff1673ffffffffffffffffffffffffffffffffffffffff16815260200190815260200160002060008282540192505081905550816067600083815260200190815260200160002060006101000a81548173ffffffffffffffffffffffffffffffffffffffff021916908373ffffffffffffffffffffffffffffffffffffffff160217905550808273ffffffffffffffffffffffffffffffffffffffff168473ffffffffffffffffffffffffffffffffffffffff167fddf252ad1be2c89b69c2b068fc378daa952ba7f163c4a11628f55a4df523b3ef60405160405180910390a46123318383836001612c2c565b505050565b80471015612379576040517f08c379a000000000000000000000000000000000000000000000000000000000815260040161237090613c7b565b60405180910390fd5b60008273ffffffffffffffffffffffffffffffffffffffff168260405161239f90613a10565b60006040518083038185875af1925050503d80600081146123dc576040519150601f19603f3d011682016040523d82523d6000602084013e6123e1565b606091505b5050905080612425576040517f08c379a000000000000000000000000000000000000000000000000000000000815260040161241c90613c5b565b60405180910390fd5b505050565b60006124358261124b565b9050612445816000846001612c26565b61244e8261124b565b90506069600083815260200190815260200160002060006101000a81549073ffffffffffffffffffffffffffffffffffffffff02191690556001606860008373ffffffffffffffffffffffffffffffffffffffff1673ffffffffffffffffffffffffffffffffffffffff168152602001908152602001600020600082825403925050819055506067600083815260200190815260200160002060006101000a81549073ffffffffffffffffffffffffffffffffffffffff021916905581600073ffffffffffffffffffffffffffffffffffffffff168273ffffffffffffffffffffffffffffffffffffffff167fddf252ad1be2c89b69c2b068fc378daa952ba7f163c4a11628f55a4df523b3ef60405160405180910390a4612574816000846001612c2c565b5050565b60006067600083815260200190815260200160002060009054906101000a900473ffffffffffffffffffffffffffffffffffffffff169050919050565b6000609760009054906101000a900473ffffffffffffffffffffffffffffffffffffffff16905081609760006101000a81548173ffffffffffffffffffffffffffffffffffffffff021916908373ffffffffffffffffffffffffffffffffffffffff1602179055508173ffffffffffffffffffffffffffffffffffffffff168173ffffffffffffffffffffffffffffffffffffffff167f8be0079c531659141344cd1fd0a4f28419497f9722a3daafe3b4186f6b6457e060405160405180910390a35050565b6000609760009054906101000a900473ffffffffffffffffffffffffffffffffffffffff16905090565b8173ffffffffffffffffffffffffffffffffffffffff168373ffffffffffffffffffffffffffffffffffffffff161415612714576040517f08c379a000000000000000000000000000000000000000000000000000000000815260040161270b90613c3b565b60405180910390fd5b80606a60008573ffffffffffffffffffffffffffffffffffffffff1673ffffffffffffffffffffffffffffffffffffffff16815260200190815260200160002060008473ffffffffffffffffffffffffffffffffffffffff1673ffffffffffffffffffffffffffffffffffffffff16815260200190815260200160002060006101000a81548160ff0219169083151502179055508173ffffffffffffffffffffffffffffffffffffffff168373ffffffffffffffffffffffffffffffffffffffff167f17307eab39ab6107e8899845ad3d59bd9653f200f220920489ca2b5937696c31836040516128059190613ad0565b60405180910390a3505050565b61281d84848461203c565b61282984848484612c32565b612868576040517f08c379a000000000000000000000000000000000000000000000000000000000815260040161285f90613b9b565b60405180910390fd5b50505050565b60008073ffffffffffffffffffffffffffffffffffffffff1661289083612578565b73ffffffffffffffffffffffffffffffffffffffff1614159050919050565b6000808273ffffffffffffffffffffffffffffffffffffffff163b119050919050565b600060019054906101000a900460ff16612921576040517f08c379a000000000000000000000000000000000000000000000000000000000815260040161291890613e1b565b60405180910390fd5b61292b8282612dc9565b5050565b600060019054906101000a900460ff1661297e576040517f08c379a000000000000000000000000000000000000000000000000000000000815260040161297590613e1b565b60405180910390fd5b612986612e4a565b565b6001816000016000828254019250508190555050565b60007f01ffc9a7000000000000000000000000000000000000000000000000000000007bffffffffffffffffffffffffffffffffffffffffffffffffffffffff1916827bffffffffffffffffffffffffffffffffffffffffffffffffffffffff1916149050919050565b600073ffffffffffffffffffffffffffffffffffffffff168273ffffffffffffffffffffffffffffffffffffffff161415612a78576040517f08c379a0000000000000000000000000000000000000000000000000000000008152600401612a6f90613d3b565b60405180910390fd5b612a818161286e565b15612ac1576040517f08c379a0000000000000000000000000000000000000000000000000000000008152600401612ab890613bfb565b60405180910390fd5b612acf600083836001612c26565b612ad88161286e565b15612b18576040517f08c379a0000000000000000000000000000000000000000000000000000000008152600401612b0f90613bfb565b60405180910390fd5b6001606860008473ffffffffffffffffffffffffffffffffffffffff1673ffffffffffffffffffffffffffffffffffffffff16815260200190815260200160002060008282540192505081905550816067600083815260200190815260200160002060006101000a81548173ffffffffffffffffffffffffffffffffffffffff021916908373ffffffffffffffffffffffffffffffffffffffff160217905550808273ffffffffffffffffffffffffffffffffffffffff16600073ffffffffffffffffffffffffffffffffffffffff167fddf252ad1be2c89b69c2b068fc378daa952ba7f163c4a11628f55a4df523b3ef60405160405180910390a4612c22600083836001612c2c565b5050565b50505050565b50505050565b6000612c538473ffffffffffffffffffffffffffffffffffffffff166128af565b15612dbc578373ffffffffffffffffffffffffffffffffffffffff1663150b7a02612c7c611c17565b8786866040518563ffffffff1660e01b8152600401612c9e9493929190613a5b565b602060405180830381600087803b158015612cb857600080fd5b505af1925050508015612ce957506040513d601f19601f82011682018060405250810190612ce691906134c4565b60015b612d6c573d8060008114612d19576040519150601f19603f3d011682016040523d82523d6000602084013e612d1e565b606091505b50600081511415612d64576040517f08c379a0000000000000000000000000000000000000000000000000000000008152600401612d5b90613b9b565b60405180910390fd5b805181602001fd5b63150b7a0260e01b7bffffffffffffffffffffffffffffffffffffffffffffffffffffffff1916817bffffffffffffffffffffffffffffffffffffffffffffffffffffffff191614915050612dc1565b600190505b949350505050565b600060019054906101000a900460ff16612e18576040517f08c379a0000000000000000000000000000000000000000000000000000000008152600401612e0f90613e1b565b60405180910390fd5b8160659080519060200190612e2e929190612eab565b508060669080519060200190612e45929190612eab565b505050565b600060019054906101000a900460ff16612e99576040517f08c379a0000000000000000000000000000000000000000000000000000000008152600401612e9090613e1b565b60405180910390fd5b612ea9612ea4611c17565b6125b5565b565b828054612eb7906141b9565b90600052602060002090601f016020900481019282612ed95760008555612f20565b82601f10612ef257805160ff1916838001178555612f20565b82800160010185558215612f20579182015b82811115612f1f578251825591602001919060010190612f04565b5b509050612f2d9190612f31565b5090565b5b80821115612f4a576000816000905550600101612f32565b5090565b6000612f61612f5c84613ee2565b613ebd565b90508083825260208201905082856020860282011115612f8457612f8361430c565b5b60005b85811015612fb45781612f9a8882613042565b845260208401935060208301925050600181019050612f87565b5050509392505050565b6000612fd1612fcc84613f0e565b613ebd565b905082815260208101848484011115612fed57612fec614311565b5b612ff8848285614177565b509392505050565b600061301361300e84613f3f565b613ebd565b90508281526020810184848401111561302f5761302e614311565b5b61303a848285614177565b509392505050565b6000813590506130518161485c565b92915050565b600082601f83011261306c5761306b614307565b5b813561307c848260208601612f4e565b91505092915050565b60008135905061309481614873565b92915050565b6000813590506130a98161488a565b92915050565b6000815190506130be8161488a565b92915050565b600082601f8301126130d9576130d8614307565b5b81356130e9848260208601612fbe565b91505092915050565b600082601f83011261310757613106614307565b5b8135613117848260208601613000565b91505092915050565b60008135905061312f816148a1565b92915050565b60006020828403121561314b5761314a61431b565b5b600061315984828501613042565b91505092915050565b600080604083850312156131795761317861431b565b5b600061318785828601613042565b925050602061319885828601613042565b9150509250929050565b6000806000606084860312156131bb576131ba61431b565b5b60006131c986828701613042565b93505060206131da86828701613042565b92505060406131eb86828701613120565b9150509250925092565b6000806000806080858703121561320f5761320e61431b565b5b600061321d87828801613042565b945050602061322e87828801613042565b935050604061323f87828801613120565b925050606085013567ffffffffffffffff8111156132605761325f614316565b5b61326c878288016130c4565b91505092959194509250565b6000806040838503121561328f5761328e61431b565b5b600061329d85828601613042565b92505060206132ae85828601613085565b9150509250929050565b60008060008060008060008060006101208a8c0312156132db576132da61431b565b5b60006132e98c828d01613042565b99505060208a013567ffffffffffffffff81111561330a57613309614316565b5b6133168c828d016130f2565b98505060408a013567ffffffffffffffff81111561333757613336614316565b5b6133438c828d016130f2565b97505060608a013567ffffffffffffffff81111561336457613363614316565b5b6133708c828d016130f2565b96505060808a013567ffffffffffffffff81111561339157613390614316565b5b61339d8c828d016130f2565b95505060a08a013567ffffffffffffffff8111156133be576133bd614316565b5b6133ca8c828d016130f2565b94505060c06133db8c828d01613120565b93505060e06133ec8c828d01613120565b9250506101006133fe8c828d01613120565b9150509295985092959850929598565b600080604083850312156134255761342461431b565b5b600061343385828601613042565b925050602061344485828601613120565b9150509250929050565b6000602082840312156134645761346361431b565b5b600082013567ffffffffffffffff81111561348257613481614316565b5b61348e84828501613057565b91505092915050565b6000602082840312156134ad576134ac61431b565b5b60006134bb8482850161309a565b91505092915050565b6000602082840312156134da576134d961431b565b5b60006134e8848285016130af565b91505092915050565b6000602082840312156135075761350661431b565b5b600082013567ffffffffffffffff81111561352557613524614316565b5b613531848285016130f2565b91505092915050565b600080604083850312156135515761355061431b565b5b600083013567ffffffffffffffff81111561356f5761356e614316565b5b61357b858286016130f2565b925050602083013567ffffffffffffffff81111561359c5761359b614316565b5b6135a8858286016130f2565b9150509250929050565b6000602082840312156135c8576135c761431b565b5b60006135d684828501613120565b91505092915050565b600080604083850312156135f6576135f561431b565b5b600061360485828601613120565b925050602061361585828601613120565b9150509250929050565b613628816140da565b82525050565b613637816140c8565b82525050565b613646816140ec565b82525050565b613655816140f8565b82525050565b600061366682613f70565b6136708185613f86565b9350613680818560208601614186565b61368981614320565b840191505092915050565b61369d81614165565b82525050565b60006136ae82613f7b565b6136b88185613fa2565b93506136c8818560208601614186565b6136d181614320565b840191505092915050565b60006136e9602d83613fa2565b91506136f482614331565b604082019050919050565b600061370c603283613fa2565b915061371782614380565b604082019050919050565b600061372f602683613fa2565b915061373a826143cf565b604082019050919050565b6000613752602583613fa2565b915061375d8261441e565b604082019050919050565b6000613775601c83613fa2565b91506137808261446d565b602082019050919050565b6000613798602483613fa2565b91506137a382614496565b604082019050919050565b60006137bb601983613fa2565b91506137c6826144e5565b602082019050919050565b60006137de603a83613fa2565b91506137e98261450e565b604082019050919050565b6000613801601d83613fa2565b915061380c8261455d565b602082019050919050565b6000613824600883613fa2565b915061382f82614586565b602082019050919050565b6000613847602983613fa2565b9150613852826145af565b604082019050919050565b600061386a600c83613fa2565b9150613875826145fe565b602082019050919050565b600061388d602e83613fa2565b915061389882614627565b604082019050919050565b60006138b0600c83613fa2565b91506138bb82614676565b602082019050919050565b60006138d3602083613fa2565b91506138de8261469f565b602082019050919050565b60006138f6602083613fa2565b9150613901826146c8565b602082019050919050565b6000613919601d83613fa2565b9150613924826146f1565b602082019050919050565b600061393c601883613fa2565b91506139478261471a565b602082019050919050565b600061395f602183613fa2565b915061396a82614743565b604082019050919050565b6000613982600083613f97565b915061398d82614792565b600082019050919050565b60006139a5603d83613fa2565b91506139b082614795565b604082019050919050565b60006139c8600883613fa2565b91506139d3826147e4565b602082019050919050565b60006139eb602b83613fa2565b91506139f68261480d565b604082019050919050565b613a0a8161414e565b82525050565b6000613a1b82613975565b9150819050919050565b6000602082019050613a3a600083018461362e565b92915050565b6000602082019050613a55600083018461361f565b92915050565b6000608082019050613a70600083018761362e565b613a7d602083018661362e565b613a8a6040830185613a01565b8181036060830152613a9c818461365b565b905095945050505050565b6000604082019050613abc600083018561362e565b613ac96020830184613a01565b9392505050565b6000602082019050613ae5600083018461363d565b92915050565b6000602082019050613b006000830184613694565b92915050565b60006020820190508181036000830152613b2081846136a3565b905092915050565b60006080820190508181036000830152613b4281876136a3565b9050613b51602083018661364c565b8181036040830152613b6381856136a3565b9050613b72606083018461364c565b95945050505050565b60006020820190508181036000830152613b94816136dc565b9050919050565b60006020820190508181036000830152613bb4816136ff565b9050919050565b60006020820190508181036000830152613bd481613722565b9050919050565b60006020820190508181036000830152613bf481613745565b9050919050565b60006020820190508181036000830152613c1481613768565b9050919050565b60006020820190508181036000830152613c348161378b565b9050919050565b60006020820190508181036000830152613c54816137ae565b9050919050565b60006020820190508181036000830152613c74816137d1565b9050919050565b60006020820190508181036000830152613c94816137f4565b9050919050565b60006020820190508181036000830152613cb481613817565b9050919050565b60006020820190508181036000830152613cd48161383a565b9050919050565b60006020820190508181036000830152613cf48161385d565b9050919050565b60006020820190508181036000830152613d1481613880565b9050919050565b60006020820190508181036000830152613d34816138a3565b9050919050565b60006020820190508181036000830152613d54816138c6565b9050919050565b60006020820190508181036000830152613d74816138e9565b9050919050565b60006020820190508181036000830152613d948161390c565b9050919050565b60006020820190508181036000830152613db48161392f565b9050919050565b60006020820190508181036000830152613dd481613952565b9050919050565b60006020820190508181036000830152613df481613998565b9050919050565b60006020820190508181036000830152613e14816139bb565b9050919050565b60006020820190508181036000830152613e34816139de565b9050919050565b6000602082019050613e506000830184613a01565b92915050565b6000604082019050613e6b6000830185613a01565b613e78602083018461362e565b9392505050565b6000606082019050613e946000830186613a01565b613ea16020830185613a01565b8181036040830152613eb381846136a3565b9050949350505050565b6000613ec7613ed8565b9050613ed382826141eb565b919050565b6000604051905090565b600067ffffffffffffffff821115613efd57613efc6142d8565b5b602082029050602081019050919050565b600067ffffffffffffffff821115613f2957613f286142d8565b5b613f3282614320565b9050602081019050919050565b600067ffffffffffffffff821115613f5a57613f596142d8565b5b613f6382614320565b9050602081019050919050565b600081519050919050565b600081519050919050565b600082825260208201905092915050565b600081905092915050565b600082825260208201905092915050565b6000613fbe8261414e565b9150613fc98361414e565b9250827fffffffffffffffffffffffffffffffffffffffffffffffffffffffffffffffff03821115613ffe57613ffd61421c565b5b828201905092915050565b60006140148261414e565b915061401f8361414e565b92508261402f5761402e61424b565b5b828204905092915050565b60006140458261414e565b91506140508361414e565b9250817fffffffffffffffffffffffffffffffffffffffffffffffffffffffffffffffff04831182151516156140895761408861421c565b5b828202905092915050565b600061409f8261414e565b91506140aa8361414e565b9250828210156140bd576140bc61421c565b5b828203905092915050565b60006140d38261412e565b9050919050565b60006140e58261412e565b9050919050565b60008115159050919050565b6000819050919050565b60007fffffffff0000000000000000000000000000000000000000000000000000000082169050919050565b600073ffffffffffffffffffffffffffffffffffffffff82169050919050565b6000819050919050565b600060ff82169050919050565b600061417082614158565b9050919050565b82818337600083830152505050565b60005b838110156141a4578082015181840152602081019050614189565b838111156141b3576000848401525b50505050565b600060028204905060018216806141d157607f821691505b602082108114156141e5576141e461427a565b5b50919050565b6141f482614320565b810181811067ffffffffffffffff82111715614213576142126142d8565b5b80604052505050565b7f4e487b7100000000000000000000000000000000000000000000000000000000600052601160045260246000fd5b7f4e487b7100000000000000000000000000000000000000000000000000000000600052601260045260246000fd5b7f4e487b7100000000000000000000000000000000000000000000000000000000600052602260045260246000fd5b7f4e487b7100000000000000000000000000000000000000000000000000000000600052603260045260246000fd5b7f4e487b7100000000000000000000000000000000000000000000000000000000600052604160045260246000fd5b600080fd5b600080fd5b600080fd5b600080fd5b600080fd5b6000601f19601f8301169050919050565b7f4552433732313a2063616c6c6572206973206e6f7420746f6b656e206f776e6560008201527f72206f7220617070726f76656400000000000000000000000000000000000000602082015250565b7f4552433732313a207472616e7366657220746f206e6f6e20455243373231526560008201527f63656976657220696d706c656d656e7465720000000000000000000000000000602082015250565b7f4f776e61626c653a206e6577206f776e657220697320746865207a65726f206160008201527f6464726573730000000000000000000000000000000000000000000000000000602082015250565b7f4552433732313a207472616e736665722066726f6d20696e636f72726563742060008201527f6f776e6572000000000000000000000000000000000000000000000000000000602082015250565b7f4552433732313a20746f6b656e20616c7265616479206d696e74656400000000600082015250565b7f4552433732313a207472616e7366657220746f20746865207a65726f2061646460008201527f7265737300000000000000000000000000000000000000000000000000000000602082015250565b7f4552433732313a20617070726f766520746f2063616c6c657200000000000000600082015250565b7f416464726573733a20756e61626c6520746f2073656e642076616c75652c207260008201527f6563697069656e74206d61792068617665207265766572746564000000000000602082015250565b7f416464726573733a20696e73756666696369656e742062616c616e6365000000600082015250565b7f4e6f20746f6b656e000000000000000000000000000000000000000000000000600082015250565b7f4552433732313a2061646472657373207a65726f206973206e6f74206120766160008201527f6c6964206f776e65720000000000000000000000000000000000000000000000602082015250565b7f4e6f7420617070726f7665640000000000000000000000000000000000000000600082015250565b7f496e697469616c697a61626c653a20636f6e747261637420697320616c72656160008201527f647920696e697469616c697a6564000000000000000000000000000000000000602082015250565b7f4e6f7420666f722073616c650000000000000000000000000000000000000000600082015250565b7f4552433732313a206d696e7420746f20746865207a65726f2061646472657373600082015250565b7f4f776e61626c653a2063616c6c6572206973206e6f7420746865206f776e6572600082015250565b7f4e6565647320746f20626520616e20616c6c6f776564206d696e746572000000600082015250565b7f4552433732313a20696e76616c696420746f6b656e2049440000000000000000600082015250565b7f4552433732313a20617070726f76616c20746f2063757272656e74206f776e6560008201527f7200000000000000000000000000000000000000000000000000000000000000602082015250565b50565b7f4552433732313a20617070726f76652063616c6c6572206973206e6f7420746f60008201527f6b656e206f776e6572206f7220617070726f76656420666f7220616c6c000000602082015250565b7f536f6c64206f7574000000000000000000000000000000000000000000000000600082015250565b7f496e697469616c697a61626c653a20636f6e7472616374206973206e6f74206960008201527f6e697469616c697a696e67000000000000000000000000000000000000000000602082015250565b614865816140c8565b811461487057600080fd5b50565b61487c816140ec565b811461488757600080fd5b50565b61489381614102565b811461489e57600080fd5b50565b6148aa8161414e565b81146148b557600080fd5b5056fea2646970667358221220fd23e4795ca14465d081b40759e07f56f30bc84dafef5ab6547b525e6b6d1d0864736f6c63430008060033",
  "linkReferences": {},
  "deployedLinkReferences": {}
}