{
  "_format": "hh-sol-artifact-1",
  "contractName": "SingleEditionMintable",
  "sourceName": "src/web3/contracts/SingleEditionMintable.sol",
  "abi": [
    {
      "inputs": [
        {
          "internalType": "contract SharedNFTLogic",
          "name": "_sharedNFTLogic",
          "type": "address"
        },
        {
          "internalType": "address",
          "name": "_feeAccount",
          "type": "address"
        }
      ],
      "stateMutability": "nonpayable",
      "type": "constructor"
    },
    {
      "anonymous": false,
      "inputs": [
        {
          "indexed": true,
          "internalType": "address",
          "name": "owner",
          "type": "address"
        },
        {
          "indexed": true,
          "internalType": "address",
          "name": "approved",
          "type": "address"
        },
        {
          "indexed": true,
          "internalType": "uint256",
          "name": "tokenId",
          "type": "uint256"
        }
      ],
      "name": "Approval",
      "type": "event"
    },
    {
      "anonymous": false,
      "inputs": [
        {
          "indexed": true,
          "internalType": "address",
          "name": "owner",
          "type": "address"
        },
        {
          "indexed": true,
          "internalType": "address",
          "name": "operator",
          "type": "address"
        },
        {
          "indexed": false,
          "internalType": "bool",
          "name": "approved",
          "type": "bool"
        }
      ],
      "name": "ApprovalForAll",
      "type": "event"
    },
    {
      "anonymous": false,
      "inputs": [
        {
          "indexed": false,
          "internalType": "uint256",
          "name": "price",
          "type": "uint256"
        },
        {
          "indexed": false,
          "internalType": "address",
          "name": "owner",
          "type": "address"
        }
      ],
      "name": "EditionSold",
      "type": "event"
    },
    {
      "anonymous": false,
      "inputs": [
        {
          "indexed": false,
          "internalType": "uint8",
          "name": "version",
          "type": "uint8"
        }
      ],
      "name": "Initialized",
      "type": "event"
    },
    {
      "anonymous": false,
      "inputs": [
        {
          "indexed": true,
          "internalType": "address",
          "name": "previousOwner",
          "type": "address"
        },
        {
          "indexed": true,
          "internalType": "address",
          "name": "newOwner",
          "type": "address"
        }
      ],
      "name": "OwnershipTransferred",
      "type": "event"
    },
    {
      "anonymous": false,
      "inputs": [
        {
          "indexed": true,
          "internalType": "address",
          "name": "creator",
          "type": "address"
        },
        {
          "indexed": true,
          "internalType": "address",
          "name": "sender",
          "type": "address"
        },
        {
          "indexed": false,
          "internalType": "uint256",
          "name": "amount",
          "type": "uint256"
        },
        {
          "indexed": false,
          "internalType": "uint256",
          "name": "applicationFee",
          "type": "uint256"
        },
        {
          "indexed": true,
          "internalType": "address",
          "name": "editionContractAddress",
          "type": "address"
        },
        {
          "indexed": false,
          "internalType": "string",
          "name": "orderId",
          "type": "string"
        }
      ],
      "name": "PaidFee",
      "type": "event"
    },
    {
      "anonymous": false,
      "inputs": [
        {
          "indexed": false,
          "internalType": "uint256",
          "name": "amount",
          "type": "uint256"
        }
      ],
      "name": "PriceChanged",
      "type": "event"
    },
    {
      "anonymous": false,
      "inputs": [
        {
          "indexed": true,
          "internalType": "address",
          "name": "from",
          "type": "address"
        },
        {
          "indexed": true,
          "internalType": "address",
          "name": "to",
          "type": "address"
        },
        {
          "indexed": true,
          "internalType": "uint256",
          "name": "tokenId",
          "type": "uint256"
        }
      ],
      "name": "Transfer",
      "type": "event"
    },
    {
      "inputs": [
        {
          "internalType": "address",
          "name": "to",
          "type": "address"
        },
        {
          "internalType": "uint256",
          "name": "tokenId",
          "type": "uint256"
        }
      ],
      "name": "approve",
      "outputs": [],
      "stateMutability": "nonpayable",
      "type": "function"
    },
    {
      "inputs": [
        {
          "internalType": "address",
          "name": "owner",
          "type": "address"
        }
      ],
      "name": "balanceOf",
      "outputs": [
        {
          "internalType": "uint256",
          "name": "",
          "type": "uint256"
        }
      ],
      "stateMutability": "view",
      "type": "function"
    },
    {
      "inputs": [
        {
          "internalType": "uint256",
          "name": "tokenId",
          "type": "uint256"
        }
      ],
      "name": "burn",
      "outputs": [],
      "stateMutability": "nonpayable",
      "type": "function"
    },
    {
      "inputs": [],
      "name": "contractURI",
      "outputs": [
        {
          "internalType": "string",
          "name": "",
          "type": "string"
        }
      ],
      "stateMutability": "view",
      "type": "function"
    },
    {
      "inputs": [],
      "name": "contractURI_",
      "outputs": [
        {
          "internalType": "string",
          "name": "",
          "type": "string"
        }
      ],
      "stateMutability": "view",
      "type": "function"
    },
    {
      "inputs": [],
      "name": "description",
      "outputs": [
        {
          "internalType": "string",
          "name": "",
          "type": "string"
        }
      ],
      "stateMutability": "view",
      "type": "function"
    },
    {
      "inputs": [],
      "name": "editionSize",
      "outputs": [
        {
          "internalType": "uint256",
          "name": "",
          "type": "uint256"
        }
      ],
      "stateMutability": "view",
      "type": "function"
    },
    {
      "inputs": [],
      "name": "feeAccount",
      "outputs": [
        {
          "internalType": "address payable",
          "name": "",
          "type": "address"
        }
      ],
      "stateMutability": "view",
      "type": "function"
    },
    {
      "inputs": [
        {
          "internalType": "uint256",
          "name": "tokenId",
          "type": "uint256"
        }
      ],
      "name": "getApproved",
      "outputs": [
        {
          "internalType": "address",
          "name": "",
          "type": "address"
        }
      ],
      "stateMutability": "view",
      "type": "function"
    },
    {
      "inputs": [],
      "name": "getURIs",
      "outputs": [
        {
          "internalType": "string",
          "name": "",
          "type": "string"
        },
        {
          "internalType": "bytes32",
          "name": "",
          "type": "bytes32"
        },
        {
          "internalType": "string",
          "name": "",
          "type": "string"
        },
        {
          "internalType": "bytes32",
          "name": "",
          "type": "bytes32"
        }
      ],
      "stateMutability": "view",
      "type": "function"
    },
    {
      "inputs": [
        {
          "internalType": "address",
          "name": "_owner",
          "type": "address"
        },
        {
          "internalType": "string",
          "name": "_name",
          "type": "string"
        },
        {
          "internalType": "string",
          "name": "_symbol",
          "type": "string"
        },
        {
          "internalType": "string",
          "name": "_description",
          "type": "string"
        },
        {
          "internalType": "string",
          "name": "_imageUrl",
          "type": "string"
        },
        {
          "internalType": "string",
          "name": "_contractURI",
          "type": "string"
        },
        {
          "internalType": "uint256",
          "name": "_editionSize",
          "type": "uint256"
        },
        {
          "internalType": "uint256",
          "name": "_royaltyBPS",
          "type": "uint256"
        },
        {
          "internalType": "uint256",
          "name": "_salePrice",
          "type": "uint256"
        }
      ],
      "name": "initialize",
      "outputs": [],
      "stateMutability": "nonpayable",
      "type": "function"
    },
    {
      "inputs": [
        {
          "internalType": "address",
          "name": "owner",
          "type": "address"
        },
        {
          "internalType": "address",
          "name": "operator",
          "type": "address"
        }
      ],
      "name": "isApprovedForAll",
      "outputs": [
        {
          "internalType": "bool",
          "name": "",
          "type": "bool"
        }
      ],
      "stateMutability": "view",
      "type": "function"
    },
    {
      "inputs": [
        {
          "internalType": "address",
          "name": "to",
          "type": "address"
        }
      ],
      "name": "mintEdition",
      "outputs": [
        {
          "internalType": "uint256",
          "name": "",
          "type": "uint256"
        }
      ],
      "stateMutability": "nonpayable",
      "type": "function"
    },
    {
      "inputs": [
        {
          "internalType": "address[]",
          "name": "recipients",
          "type": "address[]"
        }
      ],
      "name": "mintEditions",
      "outputs": [
        {
          "internalType": "uint256",
          "name": "",
          "type": "uint256"
        }
      ],
      "stateMutability": "nonpayable",
      "type": "function"
    },
    {
      "inputs": [],
      "name": "name",
      "outputs": [
        {
          "internalType": "string",
          "name": "",
          "type": "string"
        }
      ],
      "stateMutability": "view",
      "type": "function"
    },
    {
      "inputs": [],
      "name": "numberCanMint",
      "outputs": [
        {
          "internalType": "uint256",
          "name": "",
          "type": "uint256"
        }
      ],
      "stateMutability": "view",
      "type": "function"
    },
    {
      "inputs": [],
      "name": "owner",
      "outputs": [
        {
          "internalType": "address",
          "name": "",
          "type": "address"
        }
      ],
      "stateMutability": "view",
      "type": "function"
    },
    {
      "inputs": [
        {
          "internalType": "uint256",
          "name": "tokenId",
          "type": "uint256"
        }
      ],
      "name": "ownerOf",
      "outputs": [
        {
          "internalType": "address",
          "name": "",
          "type": "address"
        }
      ],
      "stateMutability": "view",
      "type": "function"
    },
    {
      "inputs": [
        {
          "internalType": "string",
          "name": "orderId",
          "type": "string"
        }
      ],
      "name": "purchase",
      "outputs": [
        {
          "internalType": "uint256",
          "name": "",
          "type": "uint256"
        }
      ],
      "stateMutability": "payable",
      "type": "function"
    },
    {
      "inputs": [],
      "name": "renounceOwnership",
      "outputs": [],
      "stateMutability": "nonpayable",
      "type": "function"
    },
    {
      "inputs": [
        {
          "internalType": "uint256",
          "name": "",
          "type": "uint256"
        },
        {
          "internalType": "uint256",
          "name": "_salePrice",
          "type": "uint256"
        }
      ],
      "name": "royaltyInfo",
      "outputs": [
        {
          "internalType": "address",
          "name": "receiver",
          "type": "address"
        },
        {
          "internalType": "uint256",
          "name": "royaltyAmount",
          "type": "uint256"
        }
      ],
      "stateMutability": "view",
      "type": "function"
    },
    {
      "inputs": [
        {
          "internalType": "address",
          "name": "from",
          "type": "address"
        },
        {
          "internalType": "address",
          "name": "to",
          "type": "address"
        },
        {
          "internalType": "uint256",
          "name": "tokenId",
          "type": "uint256"
        }
      ],
      "name": "safeTransferFrom",
      "outputs": [],
      "stateMutability": "nonpayable",
      "type": "function"
    },
    {
      "inputs": [
        {
          "internalType": "address",
          "name": "from",
          "type": "address"
        },
        {
          "internalType": "address",
          "name": "to",
          "type": "address"
        },
        {
          "internalType": "uint256",
          "name": "tokenId",
          "type": "uint256"
        },
        {
          "internalType": "bytes",
          "name": "data",
          "type": "bytes"
        }
      ],
      "name": "safeTransferFrom",
      "outputs": [],
      "stateMutability": "nonpayable",
      "type": "function"
    },
    {
      "inputs": [],
      "name": "salePrice",
      "outputs": [
        {
          "internalType": "uint256",
          "name": "",
          "type": "uint256"
        }
      ],
      "stateMutability": "view",
      "type": "function"
    },
    {
      "inputs": [
        {
          "internalType": "address",
          "name": "operator",
          "type": "address"
        },
        {
          "internalType": "bool",
          "name": "approved",
          "type": "bool"
        }
      ],
      "name": "setApprovalForAll",
      "outputs": [],
      "stateMutability": "nonpayable",
      "type": "function"
    },
    {
      "inputs": [
        {
          "internalType": "address",
          "name": "minter",
          "type": "address"
        },
        {
          "internalType": "bool",
          "name": "allowed",
          "type": "bool"
        }
      ],
      "name": "setApprovedMinter",
      "outputs": [],
      "stateMutability": "nonpayable",
      "type": "function"
    },
    {
      "inputs": [
        {
          "internalType": "uint256",
          "name": "_salePrice",
          "type": "uint256"
        }
      ],
      "name": "setSalePrice",
      "outputs": [],
      "stateMutability": "nonpayable",
      "type": "function"
    },
    {
      "inputs": [
        {
          "internalType": "bytes4",
          "name": "interfaceId",
          "type": "bytes4"
        }
      ],
      "name": "supportsInterface",
      "outputs": [
        {
          "internalType": "bool",
          "name": "",
          "type": "bool"
        }
      ],
      "stateMutability": "view",
      "type": "function"
    },
    {
      "inputs": [],
      "name": "symbol",
      "outputs": [
        {
          "internalType": "string",
          "name": "",
          "type": "string"
        }
      ],
      "stateMutability": "view",
      "type": "function"
    },
    {
      "inputs": [
        {
          "internalType": "uint256",
          "name": "tokenId",
          "type": "uint256"
        }
      ],
      "name": "tokenURI",
      "outputs": [
        {
          "internalType": "string",
          "name": "",
          "type": "string"
        }
      ],
      "stateMutability": "view",
      "type": "function"
    },
    {
      "inputs": [],
      "name": "totalSupply",
      "outputs": [
        {
          "internalType": "uint256",
          "name": "",
          "type": "uint256"
        }
      ],
      "stateMutability": "view",
      "type": "function"
    },
    {
      "inputs": [
        {
          "internalType": "address",
          "name": "from",
          "type": "address"
        },
        {
          "internalType": "address",
          "name": "to",
          "type": "address"
        },
        {
          "internalType": "uint256",
          "name": "tokenId",
          "type": "uint256"
        }
      ],
      "name": "transferFrom",
      "outputs": [],
      "stateMutability": "nonpayable",
      "type": "function"
    },
    {
      "inputs": [
        {
          "internalType": "address",
          "name": "newOwner",
          "type": "address"
        }
      ],
      "name": "transferOwnership",
      "outputs": [],
      "stateMutability": "nonpayable",
      "type": "function"
    },
    {
      "inputs": [
        {
          "internalType": "string",
          "name": "_imageUrl",
          "type": "string"
        },
        {
          "internalType": "string",
          "name": "_animationUrl",
          "type": "string"
        }
      ],
      "name": "updateEditionURLs",
      "outputs": [],
      "stateMutability": "nonpayable",
      "type": "function"
    },
    {
      "inputs": [],
      "name": "withdraw",
      "outputs": [],
      "stateMutability": "nonpayable",
      "type": "function"
    }
  ],
  "bytecode": "0x60c06040523480156200001157600080fd5b50604051620049d7380380620049d78339818101604052810190620000379190620000db565b8073ffffffffffffffffffffffffffffffffffffffff1660808173ffffffffffffffffffffffffffffffffffffffff1660601b815250508173ffffffffffffffffffffffffffffffffffffffff1660a08173ffffffffffffffffffffffffffffffffffffffff1660601b815250505050620001a3565b600081519050620000be816200016f565b92915050565b600081519050620000d58162000189565b92915050565b60008060408385031215620000f557620000f46200016a565b5b60006200010585828601620000c4565b92505060206200011885828601620000ad565b9150509250929050565b60006200012f826200014a565b9050919050565b6000620001438262000122565b9050919050565b600073ffffffffffffffffffffffffffffffffffffffff82169050919050565b600080fd5b6200017a8162000122565b81146200018657600080fd5b50565b620001948162000136565b8114620001a057600080fd5b50565b60805160601c60a05160601c6147fd620001da6000396000505060008181610fc8015281816112ff0152611d7001526147fd6000f3fe6080604052600436106102045760003560e01c80636352211e11610118578063b88d4fde116100a0578063e8a3d4851161006f578063e8a3d48514610770578063e985e9c51461079b578063f2fde38b146107d8578063f4ed0f4614610801578063f51f96dd1461082c57610204565b8063b88d4fde146106b8578063c87b56dd146106e1578063d40cd8be1461071e578063e444bfcc1461074757610204565b80637284e416116100e75780637284e416146105d15780638da5cb5b146105fc57806395d89b4114610627578063a22cb46514610652578063a66ff0af1461067b57610204565b80636352211e1461051557806365e17c9d1461055257806370a082311461057d578063715018a6146105ba57610204565b806323b872dd1161019b57806335a6907a1161016a57806335a6907a146104515780633ccfd60b1461047c57806342842e0e1461049357806342966c68146104bc57806359f5e0ce146104e557610204565b806323b872dd1461039357806328c5440f146103bc57806329ec16dd146103ea5780632a55205a1461041357610204565b80630b65b6e7116101d75780630b65b6e7146102d75780630f6a93491461030257806318160ddd1461033f5780631919fed71461036a57610204565b806301ffc9a71461020957806306fdde0314610246578063081812fc14610271578063095ea7b3146102ae575b600080fd5b34801561021557600080fd5b50610230600480360381019061022b91906133a6565b610857565b60405161023d91906139df565b60405180910390f35b34801561025257600080fd5b5061025b6108d1565b6040516102689190613a15565b60405180910390f35b34801561027d57600080fd5b50610298600480360381019061029391906134c1565b610963565b6040516102a59190613934565b60405180910390f35b3480156102ba57600080fd5b506102d560048036038101906102d0919061331d565b6109a9565b005b3480156102e357600080fd5b506102ec610ac1565b6040516102f99190613d4a565b60405180910390f35b34801561030e57600080fd5b506103296004803603810190610324919061335d565b610b1e565b6040516103369190613d4a565b60405180910390f35b34801561034b57600080fd5b50610354610b77565b6040516103619190613d4a565b60405180910390f35b34801561037657600080fd5b50610391600480360381019061038c91906134c1565b610b94565b005b34801561039f57600080fd5b506103ba60048036038101906103b591906130b1565b610bdf565b005b3480156103c857600080fd5b506103d1610c3f565b6040516103e19493929190613a37565b60405180910390f35b3480156103f657600080fd5b50610411600480360381019061040c9190613187565b610d77565b005b34801561041f57600080fd5b5061043a600480360381019061043591906134ee565b610dda565b6040516104489291906139b6565b60405180910390f35b34801561045d57600080fd5b50610466610e5b565b6040516104739190613a15565b60405180910390f35b34801561048857600080fd5b50610491610ee9565b005b34801561049f57600080fd5b506104ba60048036038101906104b591906130b1565b610f04565b005b3480156104c857600080fd5b506104e360048036038101906104de91906134c1565b610f24565b005b6104ff60048036038101906104fa9190613400565b610f80565b60405161050c9190613d4a565b60405180910390f35b34801561052157600080fd5b5061053c600480360381019061053791906134c1565b61124b565b6040516105499190613934565b60405180910390f35b34801561055e57600080fd5b506105676112fd565b604051610574919061394f565b60405180910390f35b34801561058957600080fd5b506105a4600480360381019061059f9190613044565b611321565b6040516105b19190613d4a565b60405180910390f35b3480156105c657600080fd5b506105cf6113d9565b005b3480156105dd57600080fd5b506105e66113ed565b6040516105f39190613a15565b60405180910390f35b34801561060857600080fd5b5061061161147b565b60405161061e9190613934565b60405180910390f35b34801561063357600080fd5b5061063c61148a565b6040516106499190613a15565b60405180910390f35b34801561065e57600080fd5b5061067960048036038101906106749190613187565b61151c565b005b34801561068757600080fd5b506106a2600480360381019061069d9190613044565b611532565b6040516106af9190613d4a565b60405180910390f35b3480156106c457600080fd5b506106df60048036038101906106da9190613104565b611629565b005b3480156106ed57600080fd5b50610708600480360381019061070391906134c1565b61168b565b6040516107159190613a15565b60405180910390f35b34801561072a57600080fd5b50610745600480360381019061074091906131c7565b611767565b005b34801561075357600080fd5b5061076e60048036038101906107699190613449565b611925565b005b34801561077c57600080fd5b5061078561195f565b6040516107929190613a15565b60405180910390f35b3480156107a757600080fd5b506107c260048036038101906107bd9190613071565b6119f1565b6040516107cf91906139df565b60405180910390f35b3480156107e457600080fd5b506107ff60048036038101906107fa9190613044565b611a85565b005b34801561080d57600080fd5b50610816611b09565b6040516108239190613d4a565b60405180910390f35b34801561083857600080fd5b50610841611b0f565b60405161084e9190613d4a565b60405180910390f35b6000817bffffffffffffffffffffffffffffffffffffffffffffffffffffffff19167f2a55205a000000000000000000000000000000000000000000000000000000007bffffffffffffffffffffffffffffffffffffffffffffffffffffffff191614806108ca57506108c982611b15565b5b9050919050565b6060606580546108e0906140c8565b80601f016020809104026020016040519081016040528092919081815260200182805461090c906140c8565b80156109595780601f1061092e57610100808354040283529160200191610959565b820191906000526020600020905b81548152906001019060200180831161093c57829003601f168201915b5050505050905090565b600061096e82611bf7565b6069600083815260200190815260200160002060009054906101000a900473ffffffffffffffffffffffffffffffffffffffff169050919050565b60006109b48261124b565b90508073ffffffffffffffffffffffffffffffffffffffff168373ffffffffffffffffffffffffffffffffffffffff161415610a25576040517f08c379a0000000000000000000000000000000000000000000000000000000008152600401610a1c90613cca565b60405180910390fd5b8073ffffffffffffffffffffffffffffffffffffffff16610a44611c42565b73ffffffffffffffffffffffffffffffffffffffff161480610a735750610a7281610a6d611c42565b6119f1565b5b610ab2576040517f08c379a0000000000000000000000000000000000000000000000000000000008152600401610aa990613c2a565b60405180910390fd5b610abc8383611c4a565b505050565b60008060cf541415610af5577fffffffffffffffffffffffffffffffffffffffffffffffffffffffffffffffff9050610b1b565b610aff60d0611d03565b600160cf54610b0e9190613ec2565b610b189190613fa3565b90505b90565b6000610b28611d11565b610b67576040517f08c379a0000000000000000000000000000000000000000000000000000000008152600401610b5e90613c8a565b60405180910390fd5b610b7082611e62565b9050919050565b60006001610b8560d0611d03565b610b8f9190613fa3565b905090565b610b9c611f54565b8060d3819055507fa6dc15bdb68da224c66db4b3838d9a2b205138e8cff6774e57d0af91e196d62260d354604051610bd49190613d4a565b60405180910390a150565b610bf0610bea611c42565b82611fd2565b610c2f576040517f08c379a0000000000000000000000000000000000000000000000000000000008152600401610c2690613d2a565b60405180910390fd5b610c3a838383612067565b505050565b606060006060600060cd60ce5460cb60cc54838054610c5d906140c8565b80601f0160208091040260200160405190810160405280929190818152602001828054610c89906140c8565b8015610cd65780601f10610cab57610100808354040283529160200191610cd6565b820191906000526020600020905b815481529060010190602001808311610cb957829003601f168201915b50505050509350818054610ce9906140c8565b80601f0160208091040260200160405190810160405280929190818152602001828054610d15906140c8565b8015610d625780601f10610d3757610100808354040283529160200191610d62565b820191906000526020600020905b815481529060010190602001808311610d4557829003601f168201915b50505050509150935093509350935090919293565b610d7f611f54565b8060d260008473ffffffffffffffffffffffffffffffffffffffff1673ffffffffffffffffffffffffffffffffffffffff16815260200190815260200160002060006101000a81548160ff0219169083151502179055505050565b600080600073ffffffffffffffffffffffffffffffffffffffff16610dfd61147b565b73ffffffffffffffffffffffffffffffffffffffff161415610e2c57610e2161147b565b600091509150610e54565b610e3461147b565b61271060d15485610e459190613f49565b610e4f9190613f18565b915091505b9250929050565b60c98054610e68906140c8565b80601f0160208091040260200160405190810160405280929190818152602001828054610e94906140c8565b8015610ee15780601f10610eb657610100808354040283529160200191610ee1565b820191906000526020600020905b815481529060010190602001808311610ec457829003601f168201915b505050505081565b610ef1611f54565b610f02610efc61147b565b476122ce565b565b610f1f83838360405180602001604052806000815250611629565b505050565b610f35610f2f611c42565b82611fd2565b610f74576040517f08c379a0000000000000000000000000000000000000000000000000000000008152600401610f6b90613bca565b60405180910390fd5b610f7d816123c2565b50565b60008060d35411610fc6576040517f08c379a0000000000000000000000000000000000000000000000000000000008152600401610fbd90613c0a565b60405180910390fd5b7f000000000000000000000000000000000000000000000000000000000000000073ffffffffffffffffffffffffffffffffffffffff166108fc606460053461100f9190613f49565b6110199190613f18565b9081150290604051600060405180830381858888f19350505050158015611044573d6000803e3d6000fd5b5061104d61147b565b73ffffffffffffffffffffffffffffffffffffffff166108fc6064605f346110759190613f49565b61107f9190613f18565b9081150290604051600060405180830381858888f193505050501580156110aa573d6000803e3d6000fd5b506000600167ffffffffffffffff8111156110c8576110c76141e7565b5b6040519080825280602002602001820160405280156110f65781602001602082028036833780820191505090505b509050338160008151811061110e5761110d6141b8565b5b602002602001019073ffffffffffffffffffffffffffffffffffffffff16908173ffffffffffffffffffffffffffffffffffffffff16815250507f60a6c75698fadb72223808131f9f9bb9db3afa32122db6d94fb8fc985a504baa60d3543360405161117b929190613d65565b60405180910390a13073ffffffffffffffffffffffffffffffffffffffff163373ffffffffffffffffffffffffffffffffffffffff166111b961147b565b73ffffffffffffffffffffffffffffffffffffffff167f5c9f69ec0522df0c750f4751ecf3c4a8cfe8b2fe0368ca1cb427fcb445a6a9b16064605f346111ff9190613f49565b6112099190613f18565b60646005346112189190613f49565b6112229190613f18565b8860405161123293929190613d8e565b60405180910390a461124381611e62565b915050919050565b6000806067600084815260200190815260200160002060009054906101000a900473ffffffffffffffffffffffffffffffffffffffff169050600073ffffffffffffffffffffffffffffffffffffffff168173ffffffffffffffffffffffffffffffffffffffff1614156112f4576040517f08c379a00000000000000000000000000000000000000000000000000000000081526004016112eb90613caa565b60405180910390fd5b80915050919050565b7f000000000000000000000000000000000000000000000000000000000000000081565b60008073ffffffffffffffffffffffffffffffffffffffff168273ffffffffffffffffffffffffffffffffffffffff161415611392576040517f08c379a000000000000000000000000000000000000000000000000000000000815260040161138990613baa565b60405180910390fd5b606860008373ffffffffffffffffffffffffffffffffffffffff1673ffffffffffffffffffffffffffffffffffffffff168152602001908152602001600020549050919050565b6113e1611f54565b6113eb60006124df565b565b60ca80546113fa906140c8565b80601f0160208091040260200160405190810160405280929190818152602001828054611426906140c8565b80156114735780601f1061144857610100808354040283529160200191611473565b820191906000526020600020905b81548152906001019060200180831161145657829003601f168201915b505050505081565b60006114856125a5565b905090565b606060668054611499906140c8565b80601f01602080910402602001604051908101604052809291908181526020018280546114c5906140c8565b80156115125780601f106114e757610100808354040283529160200191611512565b820191906000526020600020905b8154815290600101906020018083116114f557829003601f168201915b5050505050905090565b61152e611527611c42565b83836125cf565b5050565b600061153c611d11565b61157b576040517f08c379a000000000000000000000000000000000000000000000000000000000815260040161157290613c8a565b60405180910390fd5b6000600167ffffffffffffffff811115611598576115976141e7565b5b6040519080825280602002602001820160405280156115c65781602001602082028036833780820191505090505b50905082816000815181106115de576115dd6141b8565b5b602002602001019073ffffffffffffffffffffffffffffffffffffffff16908173ffffffffffffffffffffffffffffffffffffffff168152505061162181611e62565b915050919050565b61163a611634611c42565b83611fd2565b611679576040517f08c379a000000000000000000000000000000000000000000000000000000000815260040161167090613d2a565b60405180910390fd5b6116858484848461273c565b50505050565b606061169682612798565b6116d5576040517f08c379a00000000000000000000000000000000000000000000000000000000081526004016116cc90613b8a565b60405180910390fd5b60c980546116e2906140c8565b80601f016020809104026020016040519081016040528092919081815260200182805461170e906140c8565b801561175b5780601f106117305761010080835404028352916020019161175b565b820191906000526020600020905b81548152906001019060200180831161173e57829003601f168201915b50505050509050919050565b60008060019054906101000a900460ff161590508080156117985750600160008054906101000a900460ff1660ff16105b806117c557506117a730612804565b1580156117c45750600160008054906101000a900460ff1660ff16145b5b611804576040517f08c379a00000000000000000000000000000000000000000000000000000000081526004016117fb90613bea565b60405180910390fd5b60016000806101000a81548160ff021916908360ff1602179055508015611841576001600060016101000a81548160ff0219169083151502179055505b61184b8989612827565b611853612884565b61185c8a611a85565b8660ca9080519060200190611872929190612dba565b508560cd9080519060200190611889929190612dba565b508360cf819055508260d1819055508160d3819055508460c990805190602001906118b5929190612dba565b506118c060d06128dd565b80156119195760008060016101000a81548160ff0219169083151502179055507f7f26b83ff96e1f2b6a682f133852f6798a09c465da95921460cefb3847402498600160405161191091906139fa565b60405180910390a15b50505050505050505050565b61192d611f54565b8160cd9080519060200190611943929190612dba565b508060cb908051906020019061195a929190612dba565b505050565b606060c9805461196e906140c8565b80601f016020809104026020016040519081016040528092919081815260200182805461199a906140c8565b80156119e75780601f106119bc576101008083540402835291602001916119e7565b820191906000526020600020905b8154815290600101906020018083116119ca57829003601f168201915b5050505050905090565b6000606a60008473ffffffffffffffffffffffffffffffffffffffff1673ffffffffffffffffffffffffffffffffffffffff16815260200190815260200160002060008373ffffffffffffffffffffffffffffffffffffffff1673ffffffffffffffffffffffffffffffffffffffff16815260200190815260200160002060009054906101000a900460ff16905092915050565b611a8d611f54565b600073ffffffffffffffffffffffffffffffffffffffff168173ffffffffffffffffffffffffffffffffffffffff161415611afd576040517f08c379a0000000000000000000000000000000000000000000000000000000008152600401611af490613aaa565b60405180910390fd5b611b06816124df565b50565b60cf5481565b60d35481565b60007f80ac58cd000000000000000000000000000000000000000000000000000000007bffffffffffffffffffffffffffffffffffffffffffffffffffffffff1916827bffffffffffffffffffffffffffffffffffffffffffffffffffffffff19161480611be057507f5b5e139f000000000000000000000000000000000000000000000000000000007bffffffffffffffffffffffffffffffffffffffffffffffffffffffff1916827bffffffffffffffffffffffffffffffffffffffffffffffffffffffff1916145b80611bf05750611bef826128f3565b5b9050919050565b611c0081612798565b611c3f576040517f08c379a0000000000000000000000000000000000000000000000000000000008152600401611c3690613caa565b60405180910390fd5b50565b600033905090565b816069600083815260200190815260200160002060006101000a81548173ffffffffffffffffffffffffffffffffffffffff021916908373ffffffffffffffffffffffffffffffffffffffff160217905550808273ffffffffffffffffffffffffffffffffffffffff16611cbd8361124b565b73ffffffffffffffffffffffffffffffffffffffff167f8c5be1e5ebec7d5bd14f71427d1e84f3dd0314c0f7b2291e5b200ac8c7c3b92560405160405180910390a45050565b600081600001549050919050565b60003373ffffffffffffffffffffffffffffffffffffffff16611d3261147b565b73ffffffffffffffffffffffffffffffffffffffff161415611d575760019050611e5f565b3373ffffffffffffffffffffffffffffffffffffffff167f000000000000000000000000000000000000000000000000000000000000000073ffffffffffffffffffffffffffffffffffffffff161415611db45760019050611e5f565b60d260008073ffffffffffffffffffffffffffffffffffffffff1673ffffffffffffffffffffffffffffffffffffffff16815260200190815260200160002060009054906101000a900460ff1615611e0f5760019050611e5f565b60d260003373ffffffffffffffffffffffffffffffffffffffff1673ffffffffffffffffffffffffffffffffffffffff16815260200190815260200160002060009054906101000a900460ff1690505b90565b600080611e6f60d0611d03565b905060006001845183611e829190613ec2565b611e8c9190613fa3565b9050600060cf541480611ea1575060cf548111155b611ee0576040517f08c379a0000000000000000000000000000000000000000000000000000000008152600401611ed790613cea565b60405180910390fd5b5b80611eec60d0611d03565b11611f4157611f328483611f0060d0611d03565b611f0a9190613fa3565b81518110611f1b57611f1a6141b8565b5b6020026020010151611f2d60d0611d03565b61295d565b611f3c60d06128dd565b611ee1565b611f4b60d0611d03565b92505050919050565b611f5c611c42565b73ffffffffffffffffffffffffffffffffffffffff16611f7a61147b565b73ffffffffffffffffffffffffffffffffffffffff1614611fd0576040517f08c379a0000000000000000000000000000000000000000000000000000000008152600401611fc790613c6a565b60405180910390fd5b565b600080611fde8361124b565b90508073ffffffffffffffffffffffffffffffffffffffff168473ffffffffffffffffffffffffffffffffffffffff161480612020575061201f81856119f1565b5b8061205e57508373ffffffffffffffffffffffffffffffffffffffff1661204684610963565b73ffffffffffffffffffffffffffffffffffffffff16145b91505092915050565b8273ffffffffffffffffffffffffffffffffffffffff166120878261124b565b73ffffffffffffffffffffffffffffffffffffffff16146120dd576040517f08c379a00000000000000000000000000000000000000000000000000000000081526004016120d490613aca565b60405180910390fd5b600073ffffffffffffffffffffffffffffffffffffffff168273ffffffffffffffffffffffffffffffffffffffff16141561214d576040517f08c379a000000000000000000000000000000000000000000000000000000000815260040161214490613b0a565b60405180910390fd5b612158838383612b37565b612163600082611c4a565b6001606860008573ffffffffffffffffffffffffffffffffffffffff1673ffffffffffffffffffffffffffffffffffffffff16815260200190815260200160002060008282546121b39190613fa3565b925050819055506001606860008473ffffffffffffffffffffffffffffffffffffffff1673ffffffffffffffffffffffffffffffffffffffff168152602001908152602001600020600082825461220a9190613ec2565b92505081905550816067600083815260200190815260200160002060006101000a81548173ffffffffffffffffffffffffffffffffffffffff021916908373ffffffffffffffffffffffffffffffffffffffff160217905550808273ffffffffffffffffffffffffffffffffffffffff168473ffffffffffffffffffffffffffffffffffffffff167fddf252ad1be2c89b69c2b068fc378daa952ba7f163c4a11628f55a4df523b3ef60405160405180910390a46122c9838383612b3c565b505050565b80471015612311576040517f08c379a000000000000000000000000000000000000000000000000000000000815260040161230890613b6a565b60405180910390fd5b60008273ffffffffffffffffffffffffffffffffffffffff16826040516123379061391f565b60006040518083038185875af1925050503d8060008114612374576040519150601f19603f3d011682016040523d82523d6000602084013e612379565b606091505b50509050806123bd576040517f08c379a00000000000000000000000000000000000000000000000000000000081526004016123b490613b4a565b60405180910390fd5b505050565b60006123cd8261124b565b90506123db81600084612b37565b6123e6600083611c4a565b6001606860008373ffffffffffffffffffffffffffffffffffffffff1673ffffffffffffffffffffffffffffffffffffffff16815260200190815260200160002060008282546124369190613fa3565b925050819055506067600083815260200190815260200160002060006101000a81549073ffffffffffffffffffffffffffffffffffffffff021916905581600073ffffffffffffffffffffffffffffffffffffffff168273ffffffffffffffffffffffffffffffffffffffff167fddf252ad1be2c89b69c2b068fc378daa952ba7f163c4a11628f55a4df523b3ef60405160405180910390a46124db81600084612b3c565b5050565b6000609760009054906101000a900473ffffffffffffffffffffffffffffffffffffffff16905081609760006101000a81548173ffffffffffffffffffffffffffffffffffffffff021916908373ffffffffffffffffffffffffffffffffffffffff1602179055508173ffffffffffffffffffffffffffffffffffffffff168173ffffffffffffffffffffffffffffffffffffffff167f8be0079c531659141344cd1fd0a4f28419497f9722a3daafe3b4186f6b6457e060405160405180910390a35050565b6000609760009054906101000a900473ffffffffffffffffffffffffffffffffffffffff16905090565b8173ffffffffffffffffffffffffffffffffffffffff168373ffffffffffffffffffffffffffffffffffffffff16141561263e576040517f08c379a000000000000000000000000000000000000000000000000000000000815260040161263590613b2a565b60405180910390fd5b80606a60008573ffffffffffffffffffffffffffffffffffffffff1673ffffffffffffffffffffffffffffffffffffffff16815260200190815260200160002060008473ffffffffffffffffffffffffffffffffffffffff1673ffffffffffffffffffffffffffffffffffffffff16815260200190815260200160002060006101000a81548160ff0219169083151502179055508173ffffffffffffffffffffffffffffffffffffffff168373ffffffffffffffffffffffffffffffffffffffff167f17307eab39ab6107e8899845ad3d59bd9653f200f220920489ca2b5937696c318360405161272f91906139df565b60405180910390a3505050565b612747848484612067565b61275384848484612b41565b612792576040517f08c379a000000000000000000000000000000000000000000000000000000000815260040161278990613a8a565b60405180910390fd5b50505050565b60008073ffffffffffffffffffffffffffffffffffffffff166067600084815260200190815260200160002060009054906101000a900473ffffffffffffffffffffffffffffffffffffffff1673ffffffffffffffffffffffffffffffffffffffff1614159050919050565b6000808273ffffffffffffffffffffffffffffffffffffffff163b119050919050565b600060019054906101000a900460ff16612876576040517f08c379a000000000000000000000000000000000000000000000000000000000815260040161286d90613d0a565b60405180910390fd5b6128808282612cd8565b5050565b600060019054906101000a900460ff166128d3576040517f08c379a00000000000000000000000000000000000000000000000000000000081526004016128ca90613d0a565b60405180910390fd5b6128db612d59565b565b6001816000016000828254019250508190555050565b60007f01ffc9a7000000000000000000000000000000000000000000000000000000007bffffffffffffffffffffffffffffffffffffffffffffffffffffffff1916827bffffffffffffffffffffffffffffffffffffffffffffffffffffffff1916149050919050565b600073ffffffffffffffffffffffffffffffffffffffff168273ffffffffffffffffffffffffffffffffffffffff1614156129cd576040517f08c379a00000000000000000000000000000000000000000000000000000000081526004016129c490613c4a565b60405180910390fd5b6129d681612798565b15612a16576040517f08c379a0000000000000000000000000000000000000000000000000000000008152600401612a0d90613aea565b60405180910390fd5b612a2260008383612b37565b6001606860008473ffffffffffffffffffffffffffffffffffffffff1673ffffffffffffffffffffffffffffffffffffffff1681526020019081526020016000206000828254612a729190613ec2565b92505081905550816067600083815260200190815260200160002060006101000a81548173ffffffffffffffffffffffffffffffffffffffff021916908373ffffffffffffffffffffffffffffffffffffffff160217905550808273ffffffffffffffffffffffffffffffffffffffff16600073ffffffffffffffffffffffffffffffffffffffff167fddf252ad1be2c89b69c2b068fc378daa952ba7f163c4a11628f55a4df523b3ef60405160405180910390a4612b3360008383612b3c565b5050565b505050565b505050565b6000612b628473ffffffffffffffffffffffffffffffffffffffff16612804565b15612ccb578373ffffffffffffffffffffffffffffffffffffffff1663150b7a02612b8b611c42565b8786866040518563ffffffff1660e01b8152600401612bad949392919061396a565b602060405180830381600087803b158015612bc757600080fd5b505af1925050508015612bf857506040513d601f19601f82011682018060405250810190612bf591906133d3565b60015b612c7b573d8060008114612c28576040519150601f19603f3d011682016040523d82523d6000602084013e612c2d565b606091505b50600081511415612c73576040517f08c379a0000000000000000000000000000000000000000000000000000000008152600401612c6a90613a8a565b60405180910390fd5b805181602001fd5b63150b7a0260e01b7bffffffffffffffffffffffffffffffffffffffffffffffffffffffff1916817bffffffffffffffffffffffffffffffffffffffffffffffffffffffff191614915050612cd0565b600190505b949350505050565b600060019054906101000a900460ff16612d27576040517f08c379a0000000000000000000000000000000000000000000000000000000008152600401612d1e90613d0a565b60405180910390fd5b8160659080519060200190612d3d929190612dba565b508060669080519060200190612d54929190612dba565b505050565b600060019054906101000a900460ff16612da8576040517f08c379a0000000000000000000000000000000000000000000000000000000008152600401612d9f90613d0a565b60405180910390fd5b612db8612db3611c42565b6124df565b565b828054612dc6906140c8565b90600052602060002090601f016020900481019282612de85760008555612e2f565b82601f10612e0157805160ff1916838001178555612e2f565b82800160010185558215612e2f579182015b82811115612e2e578251825591602001919060010190612e13565b5b509050612e3c9190612e40565b5090565b5b80821115612e59576000816000905550600101612e41565b5090565b6000612e70612e6b84613df1565b613dcc565b90508083825260208201905082856020860282011115612e9357612e9261421b565b5b60005b85811015612ec35781612ea98882612f51565b845260208401935060208301925050600181019050612e96565b5050509392505050565b6000612ee0612edb84613e1d565b613dcc565b905082815260208101848484011115612efc57612efb614220565b5b612f07848285614086565b509392505050565b6000612f22612f1d84613e4e565b613dcc565b905082815260208101848484011115612f3e57612f3d614220565b5b612f49848285614086565b509392505050565b600081359050612f608161476b565b92915050565b600082601f830112612f7b57612f7a614216565b5b8135612f8b848260208601612e5d565b91505092915050565b600081359050612fa381614782565b92915050565b600081359050612fb881614799565b92915050565b600081519050612fcd81614799565b92915050565b600082601f830112612fe857612fe7614216565b5b8135612ff8848260208601612ecd565b91505092915050565b600082601f83011261301657613015614216565b5b8135613026848260208601612f0f565b91505092915050565b60008135905061303e816147b0565b92915050565b60006020828403121561305a5761305961422a565b5b600061306884828501612f51565b91505092915050565b600080604083850312156130885761308761422a565b5b600061309685828601612f51565b92505060206130a785828601612f51565b9150509250929050565b6000806000606084860312156130ca576130c961422a565b5b60006130d886828701612f51565b93505060206130e986828701612f51565b92505060406130fa8682870161302f565b9150509250925092565b6000806000806080858703121561311e5761311d61422a565b5b600061312c87828801612f51565b945050602061313d87828801612f51565b935050604061314e8782880161302f565b925050606085013567ffffffffffffffff81111561316f5761316e614225565b5b61317b87828801612fd3565b91505092959194509250565b6000806040838503121561319e5761319d61422a565b5b60006131ac85828601612f51565b92505060206131bd85828601612f94565b9150509250929050565b60008060008060008060008060006101208a8c0312156131ea576131e961422a565b5b60006131f88c828d01612f51565b99505060208a013567ffffffffffffffff81111561321957613218614225565b5b6132258c828d01613001565b98505060408a013567ffffffffffffffff81111561324657613245614225565b5b6132528c828d01613001565b97505060608a013567ffffffffffffffff81111561327357613272614225565b5b61327f8c828d01613001565b96505060808a013567ffffffffffffffff8111156132a05761329f614225565b5b6132ac8c828d01613001565b95505060a08a013567ffffffffffffffff8111156132cd576132cc614225565b5b6132d98c828d01613001565b94505060c06132ea8c828d0161302f565b93505060e06132fb8c828d0161302f565b92505061010061330d8c828d0161302f565b9150509295985092959850929598565b600080604083850312156133345761333361422a565b5b600061334285828601612f51565b92505060206133538582860161302f565b9150509250929050565b6000602082840312156133735761337261422a565b5b600082013567ffffffffffffffff81111561339157613390614225565b5b61339d84828501612f66565b91505092915050565b6000602082840312156133bc576133bb61422a565b5b60006133ca84828501612fa9565b91505092915050565b6000602082840312156133e9576133e861422a565b5b60006133f784828501612fbe565b91505092915050565b6000602082840312156134165761341561422a565b5b600082013567ffffffffffffffff81111561343457613433614225565b5b61344084828501613001565b91505092915050565b600080604083850312156134605761345f61422a565b5b600083013567ffffffffffffffff81111561347e5761347d614225565b5b61348a85828601613001565b925050602083013567ffffffffffffffff8111156134ab576134aa614225565b5b6134b785828601613001565b9150509250929050565b6000602082840312156134d7576134d661422a565b5b60006134e58482850161302f565b91505092915050565b600080604083850312156135055761350461422a565b5b60006135138582860161302f565b92505060206135248582860161302f565b9150509250929050565b61353781613fe9565b82525050565b61354681613fd7565b82525050565b61355581613ffb565b82525050565b61356481614007565b82525050565b600061357582613e7f565b61357f8185613e95565b935061358f818560208601614095565b6135988161422f565b840191505092915050565b6135ac81614074565b82525050565b60006135bd82613e8a565b6135c78185613eb1565b93506135d7818560208601614095565b6135e08161422f565b840191505092915050565b60006135f8603283613eb1565b915061360382614240565b604082019050919050565b600061361b602683613eb1565b91506136268261428f565b604082019050919050565b600061363e602583613eb1565b9150613649826142de565b604082019050919050565b6000613661601c83613eb1565b915061366c8261432d565b602082019050919050565b6000613684602483613eb1565b915061368f82614356565b604082019050919050565b60006136a7601983613eb1565b91506136b2826143a5565b602082019050919050565b60006136ca603a83613eb1565b91506136d5826143ce565b604082019050919050565b60006136ed601d83613eb1565b91506136f88261441d565b602082019050919050565b6000613710600883613eb1565b915061371b82614446565b602082019050919050565b6000613733602983613eb1565b915061373e8261446f565b604082019050919050565b6000613756600c83613eb1565b9150613761826144be565b602082019050919050565b6000613779602e83613eb1565b9150613784826144e7565b604082019050919050565b600061379c600c83613eb1565b91506137a782614536565b602082019050919050565b60006137bf603e83613eb1565b91506137ca8261455f565b604082019050919050565b60006137e2602083613eb1565b91506137ed826145ae565b602082019050919050565b6000613805602083613eb1565b9150613810826145d7565b602082019050919050565b6000613828601d83613eb1565b915061383382614600565b602082019050919050565b600061384b601883613eb1565b915061385682614629565b602082019050919050565b600061386e602183613eb1565b915061387982614652565b604082019050919050565b6000613891600083613ea6565b915061389c826146a1565b600082019050919050565b60006138b4600883613eb1565b91506138bf826146a4565b602082019050919050565b60006138d7602b83613eb1565b91506138e2826146cd565b604082019050919050565b60006138fa602e83613eb1565b91506139058261471c565b604082019050919050565b6139198161405d565b82525050565b600061392a82613884565b9150819050919050565b6000602082019050613949600083018461353d565b92915050565b6000602082019050613964600083018461352e565b92915050565b600060808201905061397f600083018761353d565b61398c602083018661353d565b6139996040830185613910565b81810360608301526139ab818461356a565b905095945050505050565b60006040820190506139cb600083018561353d565b6139d86020830184613910565b9392505050565b60006020820190506139f4600083018461354c565b92915050565b6000602082019050613a0f60008301846135a3565b92915050565b60006020820190508181036000830152613a2f81846135b2565b905092915050565b60006080820190508181036000830152613a5181876135b2565b9050613a60602083018661355b565b8181036040830152613a7281856135b2565b9050613a81606083018461355b565b95945050505050565b60006020820190508181036000830152613aa3816135eb565b9050919050565b60006020820190508181036000830152613ac38161360e565b9050919050565b60006020820190508181036000830152613ae381613631565b9050919050565b60006020820190508181036000830152613b0381613654565b9050919050565b60006020820190508181036000830152613b2381613677565b9050919050565b60006020820190508181036000830152613b438161369a565b9050919050565b60006020820190508181036000830152613b63816136bd565b9050919050565b60006020820190508181036000830152613b83816136e0565b9050919050565b60006020820190508181036000830152613ba381613703565b9050919050565b60006020820190508181036000830152613bc381613726565b9050919050565b60006020820190508181036000830152613be381613749565b9050919050565b60006020820190508181036000830152613c038161376c565b9050919050565b60006020820190508181036000830152613c238161378f565b9050919050565b60006020820190508181036000830152613c43816137b2565b9050919050565b60006020820190508181036000830152613c63816137d5565b9050919050565b60006020820190508181036000830152613c83816137f8565b9050919050565b60006020820190508181036000830152613ca38161381b565b9050919050565b60006020820190508181036000830152613cc38161383e565b9050919050565b60006020820190508181036000830152613ce381613861565b9050919050565b60006020820190508181036000830152613d03816138a7565b9050919050565b60006020820190508181036000830152613d23816138ca565b9050919050565b60006020820190508181036000830152613d43816138ed565b9050919050565b6000602082019050613d5f6000830184613910565b92915050565b6000604082019050613d7a6000830185613910565b613d87602083018461353d565b9392505050565b6000606082019050613da36000830186613910565b613db06020830185613910565b8181036040830152613dc281846135b2565b9050949350505050565b6000613dd6613de7565b9050613de282826140fa565b919050565b6000604051905090565b600067ffffffffffffffff821115613e0c57613e0b6141e7565b5b602082029050602081019050919050565b600067ffffffffffffffff821115613e3857613e376141e7565b5b613e418261422f565b9050602081019050919050565b600067ffffffffffffffff821115613e6957613e686141e7565b5b613e728261422f565b9050602081019050919050565b600081519050919050565b600081519050919050565b600082825260208201905092915050565b600081905092915050565b600082825260208201905092915050565b6000613ecd8261405d565b9150613ed88361405d565b9250827fffffffffffffffffffffffffffffffffffffffffffffffffffffffffffffffff03821115613f0d57613f0c61412b565b5b828201905092915050565b6000613f238261405d565b9150613f2e8361405d565b925082613f3e57613f3d61415a565b5b828204905092915050565b6000613f548261405d565b9150613f5f8361405d565b9250817fffffffffffffffffffffffffffffffffffffffffffffffffffffffffffffffff0483118215151615613f9857613f9761412b565b5b828202905092915050565b6000613fae8261405d565b9150613fb98361405d565b925082821015613fcc57613fcb61412b565b5b828203905092915050565b6000613fe28261403d565b9050919050565b6000613ff48261403d565b9050919050565b60008115159050919050565b6000819050919050565b60007fffffffff0000000000000000000000000000000000000000000000000000000082169050919050565b600073ffffffffffffffffffffffffffffffffffffffff82169050919050565b6000819050919050565b600060ff82169050919050565b600061407f82614067565b9050919050565b82818337600083830152505050565b60005b838110156140b3578082015181840152602081019050614098565b838111156140c2576000848401525b50505050565b600060028204905060018216806140e057607f821691505b602082108114156140f4576140f3614189565b5b50919050565b6141038261422f565b810181811067ffffffffffffffff82111715614122576141216141e7565b5b80604052505050565b7f4e487b7100000000000000000000000000000000000000000000000000000000600052601160045260246000fd5b7f4e487b7100000000000000000000000000000000000000000000000000000000600052601260045260246000fd5b7f4e487b7100000000000000000000000000000000000000000000000000000000600052602260045260246000fd5b7f4e487b7100000000000000000000000000000000000000000000000000000000600052603260045260246000fd5b7f4e487b7100000000000000000000000000000000000000000000000000000000600052604160045260246000fd5b600080fd5b600080fd5b600080fd5b600080fd5b600080fd5b6000601f19601f8301169050919050565b7f4552433732313a207472616e7366657220746f206e6f6e20455243373231526560008201527f63656976657220696d706c656d656e7465720000000000000000000000000000602082015250565b7f4f776e61626c653a206e6577206f776e657220697320746865207a65726f206160008201527f6464726573730000000000000000000000000000000000000000000000000000602082015250565b7f4552433732313a207472616e736665722066726f6d20696e636f72726563742060008201527f6f776e6572000000000000000000000000000000000000000000000000000000602082015250565b7f4552433732313a20746f6b656e20616c7265616479206d696e74656400000000600082015250565b7f4552433732313a207472616e7366657220746f20746865207a65726f2061646460008201527f7265737300000000000000000000000000000000000000000000000000000000602082015250565b7f4552433732313a20617070726f766520746f2063616c6c657200000000000000600082015250565b7f416464726573733a20756e61626c6520746f2073656e642076616c75652c207260008201527f6563697069656e74206d61792068617665207265766572746564000000000000602082015250565b7f416464726573733a20696e73756666696369656e742062616c616e6365000000600082015250565b7f4e6f20746f6b656e000000000000000000000000000000000000000000000000600082015250565b7f4552433732313a2061646472657373207a65726f206973206e6f74206120766160008201527f6c6964206f776e65720000000000000000000000000000000000000000000000602082015250565b7f4e6f7420617070726f7665640000000000000000000000000000000000000000600082015250565b7f496e697469616c697a61626c653a20636f6e747261637420697320616c72656160008201527f647920696e697469616c697a6564000000000000000000000000000000000000602082015250565b7f4e6f7420666f722073616c650000000000000000000000000000000000000000600082015250565b7f4552433732313a20617070726f76652063616c6c6572206973206e6f7420746f60008201527f6b656e206f776e6572206e6f7220617070726f76656420666f7220616c6c0000602082015250565b7f4552433732313a206d696e7420746f20746865207a65726f2061646472657373600082015250565b7f4f776e61626c653a2063616c6c6572206973206e6f7420746865206f776e6572600082015250565b7f4e6565647320746f20626520616e20616c6c6f776564206d696e746572000000600082015250565b7f4552433732313a20696e76616c696420746f6b656e2049440000000000000000600082015250565b7f4552433732313a20617070726f76616c20746f2063757272656e74206f776e6560008201527f7200000000000000000000000000000000000000000000000000000000000000602082015250565b50565b7f536f6c64206f7574000000000000000000000000000000000000000000000000600082015250565b7f496e697469616c697a61626c653a20636f6e7472616374206973206e6f74206960008201527f6e697469616c697a696e67000000000000000000000000000000000000000000602082015250565b7f4552433732313a2063616c6c6572206973206e6f7420746f6b656e206f776e6560008201527f72206e6f7220617070726f766564000000000000000000000000000000000000602082015250565b61477481613fd7565b811461477f57600080fd5b50565b61478b81613ffb565b811461479657600080fd5b50565b6147a281614011565b81146147ad57600080fd5b50565b6147b98161405d565b81146147c457600080fd5b5056fea264697066735822122010b3357383b27ad67510209c759ee8c493f3fdd2188861da01ad6c0b2e58e0e964736f6c63430008060033",
  "linkReferences": {},
  "deployedLinkReferences": {}
}