{
  "_format": "hh-sol-artifact-1",
  "contractName": "SingleEditionMintableCreator",
  "sourceName": "src/web3/contracts/SingleEditionMintableCreator.sol",
  "abi": [
    {
      "inputs": [
        {
          "internalType": "address",
          "name": "_implementation",
          "type": "address"
        },
        {
          "internalType": "address",
          "name": "_feeAccount",
          "type": "address"
        }
      ],
      "stateMutability": "nonpayable",
      "type": "constructor"
    },
    {
      "anonymous": false,
      "inputs": [
        {
          "indexed": true,
          "internalType": "address",
          "name": "creator",
          "type": "address"
        },
        {
          "indexed": false,
          "internalType": "address",
          "name": "editionContractAddress",
          "type": "address"
        },
        {
          "indexed": false,
          "internalType": "uint256",
          "name": "salePrice",
          "type": "uint256"
        }
      ],
      "name": "CreatedEdition",
      "type": "event"
    },
    {
      "inputs": [
        {
          "internalType": "string",
          "name": "_name",
          "type": "string"
        },
        {
          "internalType": "string",
          "name": "_symbol",
          "type": "string"
        },
        {
          "internalType": "string",
          "name": "_description",
          "type": "string"
        },
        {
          "internalType": "string",
          "name": "_imageUrl",
          "type": "string"
        },
        {
          "internalType": "string",
          "name": "_contractURI",
          "type": "string"
        },
        {
          "internalType": "uint256",
          "name": "_editionSize",
          "type": "uint256"
        },
        {
          "internalType": "uint256",
          "name": "_royaltyBPS",
          "type": "uint256"
        },
        {
          "internalType": "uint256",
          "name": "_salePrice",
          "type": "uint256"
        }
      ],
      "name": "createEdition",
      "outputs": [
        {
          "internalType": "uint256",
          "name": "",
          "type": "uint256"
        }
      ],
      "stateMutability": "payable",
      "type": "function"
    },
    {
      "inputs": [],
      "name": "feeAccount",
      "outputs": [
        {
          "internalType": "address payable",
          "name": "",
          "type": "address"
        }
      ],
      "stateMutability": "view",
      "type": "function"
    },
    {
      "inputs": [
        {
          "internalType": "uint256",
          "name": "editionId",
          "type": "uint256"
        }
      ],
      "name": "getEditionAtId",
      "outputs": [
        {
          "internalType": "contract SingleEditionMintable",
          "name": "",
          "type": "address"
        }
      ],
      "stateMutability": "view",
      "type": "function"
    },
    {
      "inputs": [],
      "name": "implementation",
      "outputs": [
        {
          "internalType": "address",
          "name": "",
          "type": "address"
        }
      ],
      "stateMutability": "view",
      "type": "function"
    }
  ],
  "bytecode": "0x60a060405234801561001057600080fd5b50604051610ce5380380610ce5833981810160405281019061003291906100c6565b8073ffffffffffffffffffffffffffffffffffffffff1660808173ffffffffffffffffffffffffffffffffffffffff1660601b8152505081600160006101000a81548173ffffffffffffffffffffffffffffffffffffffff021916908373ffffffffffffffffffffffffffffffffffffffff1602179055505050610154565b6000815190506100c08161013d565b92915050565b600080604083850312156100dd576100dc610138565b5b60006100eb858286016100b1565b92505060206100fc858286016100b1565b9150509250929050565b600061011182610118565b9050919050565b600073ffffffffffffffffffffffffffffffffffffffff82169050919050565b600080fd5b61014681610106565b811461015157600080fd5b50565b60805160601c610b73610172600039600061027c0152610b736000f3fe60806040526004361061003f5760003560e01c80634d9581f1146100445780635c60da1b1461007457806365e17c9d1461009f578063ac52edfd146100ca575b600080fd5b61005e600480360381019061005991906104fc565b610107565b60405161006b919061087f565b60405180910390f35b34801561008057600080fd5b50610089610254565b6040516100969190610735565b60405180910390f35b3480156100ab57600080fd5b506100b461027a565b6040516100c19190610750565b60405180910390f35b3480156100d657600080fd5b506100f160048036038101906100ec919061063e565b61029e565b6040516100fe9190610844565b60405180910390f35b60008061011460006102fc565b9050600061016c600160009054906101000a900473ffffffffffffffffffffffffffffffffffffffff168360405160200161014f919061071a565b6040516020818303038152906040526101679061097f565b61030a565b90508073ffffffffffffffffffffffffffffffffffffffff1663d40cd8be338d8d8d8d8d8d8d8d6040518a63ffffffff1660e01b81526004016101b79998979695949392919061076b565b600060405180830381600087803b1580156101d157600080fd5b505af11580156101e5573d6000803e3d6000fd5b505050503373ffffffffffffffffffffffffffffffffffffffff167f7f31df96ff26da41774ba2699a14b213dabe40e6e06ebcdc31ecfc014c67f8b7828660405161023192919061081b565b60405180910390a261024360006103e1565b819250505098975050505050505050565b600160009054906101000a900473ffffffffffffffffffffffffffffffffffffffff1681565b7f000000000000000000000000000000000000000000000000000000000000000081565b60006102f5600160009054906101000a900473ffffffffffffffffffffffffffffffffffffffff16836040516020016102d7919061071a565b6040516020818303038152906040526102ef9061097f565b306103f7565b9050919050565b600081600001549050919050565b60006040517f3d602d80600a3d3981f3363d3d373d3d3d363d7300000000000000000000000081528360601b60148201527f5af43d82803e903d91602b57fd5bf300000000000000000000000000000000006028820152826037826000f5915050600073ffffffffffffffffffffffffffffffffffffffff168173ffffffffffffffffffffffffffffffffffffffff1614156103db576040517f08c379a00000000000000000000000000000000000000000000000000000000081526004016103d29061085f565b60405180910390fd5b92915050565b6001816000016000828254019250508190555050565b60006040517f3d602d80600a3d3981f3363d3d373d3d3d363d7300000000000000000000000081528460601b60148201527f5af43d82803e903d91602b57fd5bf3ff0000000000000000000000000000000060288201528260601b603882015283604c82015260378120606c820152605560378201209150509392505050565b600061048a610485846108bf565b61089a565b9050828152602081018484840111156104a6576104a5610ad0565b5b6104b1848285610a0a565b509392505050565b600082601f8301126104ce576104cd610acb565b5b81356104de848260208601610477565b91505092915050565b6000813590506104f681610b26565b92915050565b600080600080600080600080610100898b03121561051d5761051c610ada565b5b600089013567ffffffffffffffff81111561053b5761053a610ad5565b5b6105478b828c016104b9565b985050602089013567ffffffffffffffff81111561056857610567610ad5565b5b6105748b828c016104b9565b975050604089013567ffffffffffffffff81111561059557610594610ad5565b5b6105a18b828c016104b9565b965050606089013567ffffffffffffffff8111156105c2576105c1610ad5565b5b6105ce8b828c016104b9565b955050608089013567ffffffffffffffff8111156105ef576105ee610ad5565b5b6105fb8b828c016104b9565b94505060a061060c8b828c016104e7565b93505060c061061d8b828c016104e7565b92505060e061062e8b828c016104e7565b9150509295985092959890939650565b60006020828403121561065457610653610ada565b5b6000610662848285016104e7565b91505092915050565b61067481610939565b82525050565b61068381610927565b82525050565b610692816109e6565b82525050565b60006106a38261090b565b6106ad8185610916565b93506106bd818560208601610a19565b6106c681610adf565b840191505092915050565b60006106de601783610916565b91506106e982610afd565b602082019050919050565b6106fd81610975565b82525050565b61071461070f82610975565b610a7d565b82525050565b60006107268284610703565b60208201915081905092915050565b600060208201905061074a600083018461067a565b92915050565b6000602082019050610765600083018461066b565b92915050565b600061012082019050610781600083018c61067a565b8181036020830152610793818b610698565b905081810360408301526107a7818a610698565b905081810360608301526107bb8189610698565b905081810360808301526107cf8188610698565b905081810360a08301526107e38187610698565b90506107f260c08301866106f4565b6107ff60e08301856106f4565b61080d6101008301846106f4565b9a9950505050505050505050565b6000604082019050610830600083018561067a565b61083d60208301846106f4565b9392505050565b60006020820190506108596000830184610689565b92915050565b60006020820190508181036000830152610878816106d1565b9050919050565b600060208201905061089460008301846106f4565b92915050565b60006108a46108b5565b90506108b08282610a4c565b919050565b6000604051905090565b600067ffffffffffffffff8211156108da576108d9610a87565b5b6108e382610adf565b9050602081019050919050565b6000819050602082019050919050565b600081519050919050565b600081519050919050565b600082825260208201905092915050565b600061093282610955565b9050919050565b600061094482610955565b9050919050565b6000819050919050565b600073ffffffffffffffffffffffffffffffffffffffff82169050919050565b6000819050919050565b600061098a82610900565b82610994846108f0565b905061099f81610ab6565b925060208210156109df576109da7fffffffffffffffffffffffffffffffffffffffffffffffffffffffffffffffff83602003600802610af0565b831692505b5050919050565b60006109f1826109f8565b9050919050565b6000610a0382610955565b9050919050565b82818337600083830152505050565b60005b83811015610a37578082015181840152602081019050610a1c565b83811115610a46576000848401525b50505050565b610a5582610adf565b810181811067ffffffffffffffff82111715610a7457610a73610a87565b5b80604052505050565b6000819050919050565b7f4e487b7100000000000000000000000000000000000000000000000000000000600052604160045260246000fd5b6000610ac2825161094b565b80915050919050565b600080fd5b600080fd5b600080fd5b600080fd5b6000601f19601f8301169050919050565b600082821b905092915050565b7f455243313136373a2063726561746532206661696c6564000000000000000000600082015250565b610b2f81610975565b8114610b3a57600080fd5b5056fea2646970667358221220e70746b774ca8a37f6f76fa5fca48264d3666c5c09dae7e68d6ab3ebec25bbde64736f6c63430008060033",
  "linkReferences": {},
  "deployedLinkReferences": {}
}