{
  "_format": "hh-sol-artifact-1",
  "contractName": "Payments",
  "sourceName": "src/web3/contracts/Payments.sol",
  "abi": [
    {
      "inputs": [
        {
          "internalType": "uint256",
          "name": "_platformBps",
          "type": "uint256"
        },
        {
          "internalType": "address",
          "name": "_platformAddress",
          "type": "address"
        },
        {
          "internalType": "address",
          "name": "_usdcAddress",
          "type": "address"
        }
      ],
      "stateMutability": "nonpayable",
      "type": "constructor"
    },
    {
      "inputs": [],
      "name": "owner",
      "outputs": [
        {
          "internalType": "address payable",
          "name": "",
          "type": "address"
        }
      ],
      "stateMutability": "view",
      "type": "function"
    },
    {
      "inputs": [
        {
          "internalType": "uint256",
          "name": "amount",
          "type": "uint256"
        },
        {
          "internalType": "address",
          "name": "toAddress",
          "type": "address"
        },
        {
          "internalType": "address",
          "name": "affiliateAddress",
          "type": "address"
        },
        {
          "internalType": "uint256",
          "name": "affiliateBps",
          "type": "uint256"
        }
      ],
      "name": "pay",
      "outputs": [],
      "stateMutability": "payable",
      "type": "function"
    },
    {
      "inputs": [],
      "name": "platformAddress",
      "outputs": [
        {
          "internalType": "address",
          "name": "",
          "type": "address"
        }
      ],
      "stateMutability": "view",
      "type": "function"
    },
    {
      "inputs": [],
      "name": "platformBps",
      "outputs": [
        {
          "internalType": "uint256",
          "name": "",
          "type": "uint256"
        }
      ],
      "stateMutability": "view",
      "type": "function"
    },
    {
      "inputs": [],
      "name": "usdc",
      "outputs": [
        {
          "internalType": "contract IERC20",
          "name": "",
          "type": "address"
        }
      ],
      "stateMutability": "view",
      "type": "function"
    }
  ],
  "bytecode": "0x60e06040523480156200001157600080fd5b5060405162000d1138038062000d11833981810160405281019062000037919062000124565b8073ffffffffffffffffffffffffffffffffffffffff1660808173ffffffffffffffffffffffffffffffffffffffff1660601b815250508260a081815250508173ffffffffffffffffffffffffffffffffffffffff1660c08173ffffffffffffffffffffffffffffffffffffffff1660601b81525050336000806101000a81548173ffffffffffffffffffffffffffffffffffffffff021916908373ffffffffffffffffffffffffffffffffffffffff160217905550505050620001f7565b6000815190506200010781620001c3565b92915050565b6000815190506200011e81620001dd565b92915050565b60008060006060848603121562000140576200013f620001be565b5b600062000150868287016200010d565b93505060206200016386828701620000f6565b92505060406200017686828701620000f6565b9150509250925092565b60006200018d8262000194565b9050919050565b600073ffffffffffffffffffffffffffffffffffffffff82169050919050565b6000819050919050565b600080fd5b620001ce8162000180565b8114620001da57600080fd5b50565b620001e881620001b4565b8114620001f457600080fd5b50565b60805160601c60a05160c05160601c610ab36200025e6000396000818161046e01526105b801526000818161028101526105dc01526000818161011901528181610175015281816102d4015281816103840152818161043201526105000152610ab36000f3fe60806040526004361061004a5760003560e01c80633e413bee1461004f5780638da5cb5b1461007a578063a7f6d13f146100a5578063dbe55e56146100c1578063f76835e6146100ec575b600080fd5b34801561005b57600080fd5b50610064610117565b6040516100719190610808565b60405180910390f35b34801561008657600080fd5b5061008f61013b565b60405161009c919061078d565b60405180910390f35b6100bf60048036038101906100ba91906106ac565b61015f565b005b3480156100cd57600080fd5b506100d66105b6565b6040516100e39190610772565b60405180910390f35b3480156100f857600080fd5b506101016105da565b60405161010e9190610843565b60405180910390f35b7f000000000000000000000000000000000000000000000000000000000000000081565b60008054906101000a900473ffffffffffffffffffffffffffffffffffffffff1681565b6000620f42408561017091906108a0565b9050807f000000000000000000000000000000000000000000000000000000000000000073ffffffffffffffffffffffffffffffffffffffff166370a08231336040518263ffffffff1660e01b81526004016101cc9190610772565b60206040518083038186803b1580156101e457600080fd5b505afa1580156101f8573d6000803e3d6000fd5b505050506040513d601f19601f8201168201806040525081019061021c919061067f565b101561025d576040517f08c379a000000000000000000000000000000000000000000000000000000000815260040161025490610823565b60405180910390fd5b6000612710838361026e91906108a0565b610278919061086f565b905060006127107f0000000000000000000000000000000000000000000000000000000000000000846102ab91906108a0565b6102b5919061086f565b905060008183856102c691906108fa565b6102d091906108fa565b90507f000000000000000000000000000000000000000000000000000000000000000073ffffffffffffffffffffffffffffffffffffffff166323b872dd3330876040518463ffffffff1660e01b815260040161032f939291906107a8565b602060405180830381600087803b15801561034957600080fd5b505af115801561035d573d6000803e3d6000fd5b505050506040513d601f19601f820116820180604052508101906103819190610652565b507f000000000000000000000000000000000000000000000000000000000000000073ffffffffffffffffffffffffffffffffffffffff1663a9059cbb87856040518363ffffffff1660e01b81526004016103dd9291906107df565b602060405180830381600087803b1580156103f757600080fd5b505af115801561040b573d6000803e3d6000fd5b505050506040513d601f19601f8201168201806040525081019061042f9190610652565b507f000000000000000000000000000000000000000000000000000000000000000073ffffffffffffffffffffffffffffffffffffffff1663a9059cbb7f0000000000000000000000000000000000000000000000000000000000000000846040518363ffffffff1660e01b81526004016104ab9291906107df565b602060405180830381600087803b1580156104c557600080fd5b505af11580156104d9573d6000803e3d6000fd5b505050506040513d601f19601f820116820180604052508101906104fd9190610652565b507f000000000000000000000000000000000000000000000000000000000000000073ffffffffffffffffffffffffffffffffffffffff1663a9059cbb88836040518363ffffffff1660e01b81526004016105599291906107df565b602060405180830381600087803b15801561057357600080fd5b505af1158015610587573d6000803e3d6000fd5b505050506040513d601f19601f820116820180604052508101906105ab9190610652565b505050505050505050565b7f000000000000000000000000000000000000000000000000000000000000000081565b7f000000000000000000000000000000000000000000000000000000000000000081565b60008135905061060d81610a38565b92915050565b60008151905061062281610a4f565b92915050565b60008135905061063781610a66565b92915050565b60008151905061064c81610a66565b92915050565b60006020828403121561066857610667610a0a565b5b600061067684828501610613565b91505092915050565b60006020828403121561069557610694610a0a565b5b60006106a38482850161063d565b91505092915050565b600080600080608085870312156106c6576106c5610a0a565b5b60006106d487828801610628565b94505060206106e5878288016105fe565b93505060406106f6878288016105fe565b925050606061070787828801610628565b91505092959194509250565b61071c81610940565b82525050565b61072b8161092e565b82525050565b61073a81610988565b82525050565b600061074d60148361085e565b915061075882610a0f565b602082019050919050565b61076c8161097e565b82525050565b60006020820190506107876000830184610722565b92915050565b60006020820190506107a26000830184610713565b92915050565b60006060820190506107bd6000830186610722565b6107ca6020830185610722565b6107d76040830184610763565b949350505050565b60006040820190506107f46000830185610722565b6108016020830184610763565b9392505050565b600060208201905061081d6000830184610731565b92915050565b6000602082019050818103600083015261083c81610740565b9050919050565b60006020820190506108586000830184610763565b92915050565b600082825260208201905092915050565b600061087a8261097e565b91506108858361097e565b925082610895576108946109db565b5b828204905092915050565b60006108ab8261097e565b91506108b68361097e565b9250817fffffffffffffffffffffffffffffffffffffffffffffffffffffffffffffffff04831182151516156108ef576108ee6109ac565b5b828202905092915050565b60006109058261097e565b91506109108361097e565b925082821015610923576109226109ac565b5b828203905092915050565b60006109398261095e565b9050919050565b600061094b8261095e565b9050919050565b60008115159050919050565b600073ffffffffffffffffffffffffffffffffffffffff82169050919050565b6000819050919050565b60006109938261099a565b9050919050565b60006109a58261095e565b9050919050565b7f4e487b7100000000000000000000000000000000000000000000000000000000600052601160045260246000fd5b7f4e487b7100000000000000000000000000000000000000000000000000000000600052601260045260246000fd5b600080fd5b7f496e73756666696369656e742062616c616e6365000000000000000000000000600082015250565b610a418161092e565b8114610a4c57600080fd5b50565b610a5881610952565b8114610a6357600080fd5b50565b610a6f8161097e565b8114610a7a57600080fd5b5056fea2646970667358221220dcb7d7ae5d51a569c72b7fc8651f37a6022b9cd96f8f4a19782991366f66c3bb64736f6c63430008060033",
  "linkReferences": {},
  "deployedLinkReferences": {}
}