{
  "_format": "hh-sol-artifact-1",
  "contractName": "SingleEditionMintableCreator",
  "sourceName": "src/web3/contracts/SingleEditionMintableCreator.sol",
  "abi": [
    {
      "inputs": [
        {
          "internalType": "address",
          "name": "_implementation",
          "type": "address"
        },
        {
          "internalType": "address",
          "name": "_feeAccount",
          "type": "address"
        }
      ],
      "stateMutability": "nonpayable",
      "type": "constructor"
    },
    {
      "anonymous": false,
      "inputs": [
        {
          "indexed": true,
          "internalType": "address",
          "name": "creator",
          "type": "address"
        },
        {
          "indexed": false,
          "internalType": "address",
          "name": "editionContractAddress",
          "type": "address"
        }
      ],
      "name": "CreatedEdition",
      "type": "event"
    },
    {
      "inputs": [
        {
          "internalType": "string",
          "name": "_name",
          "type": "string"
        },
        {
          "internalType": "string",
          "name": "_symbol",
          "type": "string"
        },
        {
          "internalType": "string",
          "name": "_description",
          "type": "string"
        },
        {
          "internalType": "string",
          "name": "_imageUrl",
          "type": "string"
        },
        {
          "internalType": "string",
          "name": "_contractURI",
          "type": "string"
        },
        {
          "internalType": "uint256",
          "name": "_editionSize",
          "type": "uint256"
        },
        {
          "internalType": "uint256",
          "name": "_royaltyBPS",
          "type": "uint256"
        },
        {
          "internalType": "uint256",
          "name": "_salePrice",
          "type": "uint256"
        }
      ],
      "name": "createEdition",
      "outputs": [
        {
          "internalType": "uint256",
          "name": "",
          "type": "uint256"
        }
      ],
      "stateMutability": "payable",
      "type": "function"
    },
    {
      "inputs": [],
      "name": "feeAccount",
      "outputs": [
        {
          "internalType": "address payable",
          "name": "",
          "type": "address"
        }
      ],
      "stateMutability": "view",
      "type": "function"
    },
    {
      "inputs": [
        {
          "internalType": "uint256",
          "name": "editionId",
          "type": "uint256"
        }
      ],
      "name": "getEditionAtId",
      "outputs": [
        {
          "internalType": "contract SingleEditionMintable",
          "name": "",
          "type": "address"
        }
      ],
      "stateMutability": "view",
      "type": "function"
    },
    {
      "inputs": [],
      "name": "implementation",
      "outputs": [
        {
          "internalType": "address",
          "name": "",
          "type": "address"
        }
      ],
      "stateMutability": "view",
      "type": "function"
    }
  ],
  "bytecode": "0x60a060405234801561001057600080fd5b50604051610cba380380610cba833981810160405281019061003291906100c6565b8073ffffffffffffffffffffffffffffffffffffffff1660808173ffffffffffffffffffffffffffffffffffffffff1660601b8152505081600160006101000a81548173ffffffffffffffffffffffffffffffffffffffff021916908373ffffffffffffffffffffffffffffffffffffffff1602179055505050610154565b6000815190506100c08161013d565b92915050565b600080604083850312156100dd576100dc610138565b5b60006100eb858286016100b1565b92505060206100fc858286016100b1565b9150509250929050565b600061011182610118565b9050919050565b600073ffffffffffffffffffffffffffffffffffffffff82169050919050565b600080fd5b61014681610106565b811461015157600080fd5b50565b60805160601c610b48610172600039600061027a0152610b486000f3fe60806040526004361061003f5760003560e01c80634d9581f1146100445780635c60da1b1461007457806365e17c9d1461009f578063ac52edfd146100ca575b600080fd5b61005e600480360381019061005991906104fa565b610107565b60405161006b9190610854565b60405180910390f35b34801561008057600080fd5b50610089610252565b6040516100969190610733565b60405180910390f35b3480156100ab57600080fd5b506100b4610278565b6040516100c1919061074e565b60405180910390f35b3480156100d657600080fd5b506100f160048036038101906100ec919061063c565b61029c565b6040516100fe9190610819565b60405180910390f35b60008061011460006102fa565b9050600061016c600160009054906101000a900473ffffffffffffffffffffffffffffffffffffffff168360405160200161014f9190610718565b60405160208183030381529060405261016790610954565b610308565b90508073ffffffffffffffffffffffffffffffffffffffff1663d40cd8be338d8d8d8d8d8d8d8d6040518a63ffffffff1660e01b81526004016101b799989796959493929190610769565b600060405180830381600087803b1580156101d157600080fd5b505af11580156101e5573d6000803e3d6000fd5b505050503373ffffffffffffffffffffffffffffffffffffffff167fbba9afaed261d66cb36c0986fa64ebdff98fb5b3413afc17758a94a7e5b132a98260405161022f9190610733565b60405180910390a261024160006103df565b819250505098975050505050505050565b600160009054906101000a900473ffffffffffffffffffffffffffffffffffffffff1681565b7f000000000000000000000000000000000000000000000000000000000000000081565b60006102f3600160009054906101000a900473ffffffffffffffffffffffffffffffffffffffff16836040516020016102d59190610718565b6040516020818303038152906040526102ed90610954565b306103f5565b9050919050565b600081600001549050919050565b60006040517f3d602d80600a3d3981f3363d3d373d3d3d363d7300000000000000000000000081528360601b60148201527f5af43d82803e903d91602b57fd5bf300000000000000000000000000000000006028820152826037826000f5915050600073ffffffffffffffffffffffffffffffffffffffff168173ffffffffffffffffffffffffffffffffffffffff1614156103d9576040517f08c379a00000000000000000000000000000000000000000000000000000000081526004016103d090610834565b60405180910390fd5b92915050565b6001816000016000828254019250508190555050565b60006040517f3d602d80600a3d3981f3363d3d373d3d3d363d7300000000000000000000000081528460601b60148201527f5af43d82803e903d91602b57fd5bf3ff0000000000000000000000000000000060288201528260601b603882015283604c82015260378120606c820152605560378201209150509392505050565b600061048861048384610894565b61086f565b9050828152602081018484840111156104a4576104a3610aa5565b5b6104af8482856109df565b509392505050565b600082601f8301126104cc576104cb610aa0565b5b81356104dc848260208601610475565b91505092915050565b6000813590506104f481610afb565b92915050565b600080600080600080600080610100898b03121561051b5761051a610aaf565b5b600089013567ffffffffffffffff81111561053957610538610aaa565b5b6105458b828c016104b7565b985050602089013567ffffffffffffffff81111561056657610565610aaa565b5b6105728b828c016104b7565b975050604089013567ffffffffffffffff81111561059357610592610aaa565b5b61059f8b828c016104b7565b965050606089013567ffffffffffffffff8111156105c0576105bf610aaa565b5b6105cc8b828c016104b7565b955050608089013567ffffffffffffffff8111156105ed576105ec610aaa565b5b6105f98b828c016104b7565b94505060a061060a8b828c016104e5565b93505060c061061b8b828c016104e5565b92505060e061062c8b828c016104e5565b9150509295985092959890939650565b60006020828403121561065257610651610aaf565b5b6000610660848285016104e5565b91505092915050565b6106728161090e565b82525050565b610681816108fc565b82525050565b610690816109bb565b82525050565b60006106a1826108e0565b6106ab81856108eb565b93506106bb8185602086016109ee565b6106c481610ab4565b840191505092915050565b60006106dc6017836108eb565b91506106e782610ad2565b602082019050919050565b6106fb8161094a565b82525050565b61071261070d8261094a565b610a52565b82525050565b60006107248284610701565b60208201915081905092915050565b60006020820190506107486000830184610678565b92915050565b60006020820190506107636000830184610669565b92915050565b60006101208201905061077f600083018c610678565b8181036020830152610791818b610696565b905081810360408301526107a5818a610696565b905081810360608301526107b98189610696565b905081810360808301526107cd8188610696565b905081810360a08301526107e18187610696565b90506107f060c08301866106f2565b6107fd60e08301856106f2565b61080b6101008301846106f2565b9a9950505050505050505050565b600060208201905061082e6000830184610687565b92915050565b6000602082019050818103600083015261084d816106cf565b9050919050565b600060208201905061086960008301846106f2565b92915050565b600061087961088a565b90506108858282610a21565b919050565b6000604051905090565b600067ffffffffffffffff8211156108af576108ae610a5c565b5b6108b882610ab4565b9050602081019050919050565b6000819050602082019050919050565b600081519050919050565b600081519050919050565b600082825260208201905092915050565b60006109078261092a565b9050919050565b60006109198261092a565b9050919050565b6000819050919050565b600073ffffffffffffffffffffffffffffffffffffffff82169050919050565b6000819050919050565b600061095f826108d5565b82610969846108c5565b905061097481610a8b565b925060208210156109b4576109af7fffffffffffffffffffffffffffffffffffffffffffffffffffffffffffffffff83602003600802610ac5565b831692505b5050919050565b60006109c6826109cd565b9050919050565b60006109d88261092a565b9050919050565b82818337600083830152505050565b60005b83811015610a0c5780820151818401526020810190506109f1565b83811115610a1b576000848401525b50505050565b610a2a82610ab4565b810181811067ffffffffffffffff82111715610a4957610a48610a5c565b5b80604052505050565b6000819050919050565b7f4e487b7100000000000000000000000000000000000000000000000000000000600052604160045260246000fd5b6000610a978251610920565b80915050919050565b600080fd5b600080fd5b600080fd5b600080fd5b6000601f19601f8301169050919050565b600082821b905092915050565b7f455243313136373a2063726561746532206661696c6564000000000000000000600082015250565b610b048161094a565b8114610b0f57600080fd5b5056fea2646970667358221220796a75ec6bbfdcf7bf85f15d3651009bbc910a3f26680c9ef8fbc97ce62b169d64736f6c63430008060033",
  "linkReferences": {},
  "deployedLinkReferences": {}
}