{
  "_format": "hh-sol-artifact-1",
  "contractName": "SingleEditionMintable",
  "sourceName": "src/web3/contracts/SingleEditionMintable.sol",
  "abi": [
    {
      "inputs": [
        {
          "internalType": "contract SharedNFTLogic",
          "name": "_sharedNFTLogic",
          "type": "address"
        },
        {
          "internalType": "address",
          "name": "_feeAccount",
          "type": "address"
        }
      ],
      "stateMutability": "nonpayable",
      "type": "constructor"
    },
    {
      "anonymous": false,
      "inputs": [
        {
          "indexed": true,
          "internalType": "address",
          "name": "owner",
          "type": "address"
        },
        {
          "indexed": true,
          "internalType": "address",
          "name": "approved",
          "type": "address"
        },
        {
          "indexed": true,
          "internalType": "uint256",
          "name": "tokenId",
          "type": "uint256"
        }
      ],
      "name": "Approval",
      "type": "event"
    },
    {
      "anonymous": false,
      "inputs": [
        {
          "indexed": true,
          "internalType": "address",
          "name": "owner",
          "type": "address"
        },
        {
          "indexed": true,
          "internalType": "address",
          "name": "operator",
          "type": "address"
        },
        {
          "indexed": false,
          "internalType": "bool",
          "name": "approved",
          "type": "bool"
        }
      ],
      "name": "ApprovalForAll",
      "type": "event"
    },
    {
      "anonymous": false,
      "inputs": [
        {
          "indexed": false,
          "internalType": "uint256",
          "name": "price",
          "type": "uint256"
        },
        {
          "indexed": false,
          "internalType": "address",
          "name": "owner",
          "type": "address"
        }
      ],
      "name": "EditionSold",
      "type": "event"
    },
    {
      "anonymous": false,
      "inputs": [
        {
          "indexed": false,
          "internalType": "uint8",
          "name": "version",
          "type": "uint8"
        }
      ],
      "name": "Initialized",
      "type": "event"
    },
    {
      "anonymous": false,
      "inputs": [
        {
          "indexed": true,
          "internalType": "address",
          "name": "previousOwner",
          "type": "address"
        },
        {
          "indexed": true,
          "internalType": "address",
          "name": "newOwner",
          "type": "address"
        }
      ],
      "name": "OwnershipTransferred",
      "type": "event"
    },
    {
      "anonymous": false,
      "inputs": [
        {
          "indexed": true,
          "internalType": "address",
          "name": "creator",
          "type": "address"
        },
        {
          "indexed": false,
          "internalType": "uint256",
          "name": "amount",
          "type": "uint256"
        },
        {
          "indexed": false,
          "internalType": "uint256",
          "name": "applicationFee",
          "type": "uint256"
        },
        {
          "indexed": false,
          "internalType": "address",
          "name": "editionContractAddress",
          "type": "address"
        }
      ],
      "name": "PaidFee",
      "type": "event"
    },
    {
      "anonymous": false,
      "inputs": [
        {
          "indexed": false,
          "internalType": "uint256",
          "name": "amount",
          "type": "uint256"
        }
      ],
      "name": "PriceChanged",
      "type": "event"
    },
    {
      "anonymous": false,
      "inputs": [
        {
          "indexed": true,
          "internalType": "address",
          "name": "from",
          "type": "address"
        },
        {
          "indexed": true,
          "internalType": "address",
          "name": "to",
          "type": "address"
        },
        {
          "indexed": true,
          "internalType": "uint256",
          "name": "tokenId",
          "type": "uint256"
        }
      ],
      "name": "Transfer",
      "type": "event"
    },
    {
      "inputs": [
        {
          "internalType": "address",
          "name": "to",
          "type": "address"
        },
        {
          "internalType": "uint256",
          "name": "tokenId",
          "type": "uint256"
        }
      ],
      "name": "approve",
      "outputs": [],
      "stateMutability": "nonpayable",
      "type": "function"
    },
    {
      "inputs": [
        {
          "internalType": "address",
          "name": "owner",
          "type": "address"
        }
      ],
      "name": "balanceOf",
      "outputs": [
        {
          "internalType": "uint256",
          "name": "",
          "type": "uint256"
        }
      ],
      "stateMutability": "view",
      "type": "function"
    },
    {
      "inputs": [
        {
          "internalType": "uint256",
          "name": "tokenId",
          "type": "uint256"
        }
      ],
      "name": "burn",
      "outputs": [],
      "stateMutability": "nonpayable",
      "type": "function"
    },
    {
      "inputs": [],
      "name": "contractURI",
      "outputs": [
        {
          "internalType": "string",
          "name": "",
          "type": "string"
        }
      ],
      "stateMutability": "view",
      "type": "function"
    },
    {
      "inputs": [],
      "name": "contractURI_",
      "outputs": [
        {
          "internalType": "string",
          "name": "",
          "type": "string"
        }
      ],
      "stateMutability": "view",
      "type": "function"
    },
    {
      "inputs": [],
      "name": "description",
      "outputs": [
        {
          "internalType": "string",
          "name": "",
          "type": "string"
        }
      ],
      "stateMutability": "view",
      "type": "function"
    },
    {
      "inputs": [],
      "name": "editionSize",
      "outputs": [
        {
          "internalType": "uint256",
          "name": "",
          "type": "uint256"
        }
      ],
      "stateMutability": "view",
      "type": "function"
    },
    {
      "inputs": [],
      "name": "feeAccount",
      "outputs": [
        {
          "internalType": "address payable",
          "name": "",
          "type": "address"
        }
      ],
      "stateMutability": "view",
      "type": "function"
    },
    {
      "inputs": [
        {
          "internalType": "uint256",
          "name": "tokenId",
          "type": "uint256"
        }
      ],
      "name": "getApproved",
      "outputs": [
        {
          "internalType": "address",
          "name": "",
          "type": "address"
        }
      ],
      "stateMutability": "view",
      "type": "function"
    },
    {
      "inputs": [],
      "name": "getURIs",
      "outputs": [
        {
          "internalType": "string",
          "name": "",
          "type": "string"
        },
        {
          "internalType": "bytes32",
          "name": "",
          "type": "bytes32"
        },
        {
          "internalType": "string",
          "name": "",
          "type": "string"
        },
        {
          "internalType": "bytes32",
          "name": "",
          "type": "bytes32"
        }
      ],
      "stateMutability": "view",
      "type": "function"
    },
    {
      "inputs": [
        {
          "internalType": "address",
          "name": "_owner",
          "type": "address"
        },
        {
          "internalType": "string",
          "name": "_name",
          "type": "string"
        },
        {
          "internalType": "string",
          "name": "_symbol",
          "type": "string"
        },
        {
          "internalType": "string",
          "name": "_description",
          "type": "string"
        },
        {
          "internalType": "string",
          "name": "_imageUrl",
          "type": "string"
        },
        {
          "internalType": "string",
          "name": "_contractURI",
          "type": "string"
        },
        {
          "internalType": "uint256",
          "name": "_editionSize",
          "type": "uint256"
        },
        {
          "internalType": "uint256",
          "name": "_royaltyBPS",
          "type": "uint256"
        },
        {
          "internalType": "uint256",
          "name": "_salePrice",
          "type": "uint256"
        }
      ],
      "name": "initialize",
      "outputs": [],
      "stateMutability": "nonpayable",
      "type": "function"
    },
    {
      "inputs": [
        {
          "internalType": "address",
          "name": "owner",
          "type": "address"
        },
        {
          "internalType": "address",
          "name": "operator",
          "type": "address"
        }
      ],
      "name": "isApprovedForAll",
      "outputs": [
        {
          "internalType": "bool",
          "name": "",
          "type": "bool"
        }
      ],
      "stateMutability": "view",
      "type": "function"
    },
    {
      "inputs": [
        {
          "internalType": "address",
          "name": "to",
          "type": "address"
        }
      ],
      "name": "mintEdition",
      "outputs": [
        {
          "internalType": "uint256",
          "name": "",
          "type": "uint256"
        }
      ],
      "stateMutability": "nonpayable",
      "type": "function"
    },
    {
      "inputs": [
        {
          "internalType": "address[]",
          "name": "recipients",
          "type": "address[]"
        }
      ],
      "name": "mintEditions",
      "outputs": [
        {
          "internalType": "uint256",
          "name": "",
          "type": "uint256"
        }
      ],
      "stateMutability": "nonpayable",
      "type": "function"
    },
    {
      "inputs": [],
      "name": "name",
      "outputs": [
        {
          "internalType": "string",
          "name": "",
          "type": "string"
        }
      ],
      "stateMutability": "view",
      "type": "function"
    },
    {
      "inputs": [],
      "name": "numberCanMint",
      "outputs": [
        {
          "internalType": "uint256",
          "name": "",
          "type": "uint256"
        }
      ],
      "stateMutability": "view",
      "type": "function"
    },
    {
      "inputs": [],
      "name": "owner",
      "outputs": [
        {
          "internalType": "address",
          "name": "",
          "type": "address"
        }
      ],
      "stateMutability": "view",
      "type": "function"
    },
    {
      "inputs": [
        {
          "internalType": "uint256",
          "name": "tokenId",
          "type": "uint256"
        }
      ],
      "name": "ownerOf",
      "outputs": [
        {
          "internalType": "address",
          "name": "",
          "type": "address"
        }
      ],
      "stateMutability": "view",
      "type": "function"
    },
    {
      "inputs": [],
      "name": "purchase",
      "outputs": [
        {
          "internalType": "uint256",
          "name": "",
          "type": "uint256"
        }
      ],
      "stateMutability": "payable",
      "type": "function"
    },
    {
      "inputs": [],
      "name": "renounceOwnership",
      "outputs": [],
      "stateMutability": "nonpayable",
      "type": "function"
    },
    {
      "inputs": [
        {
          "internalType": "uint256",
          "name": "",
          "type": "uint256"
        },
        {
          "internalType": "uint256",
          "name": "_salePrice",
          "type": "uint256"
        }
      ],
      "name": "royaltyInfo",
      "outputs": [
        {
          "internalType": "address",
          "name": "receiver",
          "type": "address"
        },
        {
          "internalType": "uint256",
          "name": "royaltyAmount",
          "type": "uint256"
        }
      ],
      "stateMutability": "view",
      "type": "function"
    },
    {
      "inputs": [
        {
          "internalType": "address",
          "name": "from",
          "type": "address"
        },
        {
          "internalType": "address",
          "name": "to",
          "type": "address"
        },
        {
          "internalType": "uint256",
          "name": "tokenId",
          "type": "uint256"
        }
      ],
      "name": "safeTransferFrom",
      "outputs": [],
      "stateMutability": "nonpayable",
      "type": "function"
    },
    {
      "inputs": [
        {
          "internalType": "address",
          "name": "from",
          "type": "address"
        },
        {
          "internalType": "address",
          "name": "to",
          "type": "address"
        },
        {
          "internalType": "uint256",
          "name": "tokenId",
          "type": "uint256"
        },
        {
          "internalType": "bytes",
          "name": "data",
          "type": "bytes"
        }
      ],
      "name": "safeTransferFrom",
      "outputs": [],
      "stateMutability": "nonpayable",
      "type": "function"
    },
    {
      "inputs": [],
      "name": "salePrice",
      "outputs": [
        {
          "internalType": "uint256",
          "name": "",
          "type": "uint256"
        }
      ],
      "stateMutability": "view",
      "type": "function"
    },
    {
      "inputs": [
        {
          "internalType": "address",
          "name": "operator",
          "type": "address"
        },
        {
          "internalType": "bool",
          "name": "approved",
          "type": "bool"
        }
      ],
      "name": "setApprovalForAll",
      "outputs": [],
      "stateMutability": "nonpayable",
      "type": "function"
    },
    {
      "inputs": [
        {
          "internalType": "address",
          "name": "minter",
          "type": "address"
        },
        {
          "internalType": "bool",
          "name": "allowed",
          "type": "bool"
        }
      ],
      "name": "setApprovedMinter",
      "outputs": [],
      "stateMutability": "nonpayable",
      "type": "function"
    },
    {
      "inputs": [
        {
          "internalType": "uint256",
          "name": "_salePrice",
          "type": "uint256"
        }
      ],
      "name": "setSalePrice",
      "outputs": [],
      "stateMutability": "nonpayable",
      "type": "function"
    },
    {
      "inputs": [
        {
          "internalType": "bytes4",
          "name": "interfaceId",
          "type": "bytes4"
        }
      ],
      "name": "supportsInterface",
      "outputs": [
        {
          "internalType": "bool",
          "name": "",
          "type": "bool"
        }
      ],
      "stateMutability": "view",
      "type": "function"
    },
    {
      "inputs": [],
      "name": "symbol",
      "outputs": [
        {
          "internalType": "string",
          "name": "",
          "type": "string"
        }
      ],
      "stateMutability": "view",
      "type": "function"
    },
    {
      "inputs": [
        {
          "internalType": "uint256",
          "name": "tokenId",
          "type": "uint256"
        }
      ],
      "name": "tokenURI",
      "outputs": [
        {
          "internalType": "string",
          "name": "",
          "type": "string"
        }
      ],
      "stateMutability": "view",
      "type": "function"
    },
    {
      "inputs": [],
      "name": "totalSupply",
      "outputs": [
        {
          "internalType": "uint256",
          "name": "",
          "type": "uint256"
        }
      ],
      "stateMutability": "view",
      "type": "function"
    },
    {
      "inputs": [
        {
          "internalType": "address",
          "name": "from",
          "type": "address"
        },
        {
          "internalType": "address",
          "name": "to",
          "type": "address"
        },
        {
          "internalType": "uint256",
          "name": "tokenId",
          "type": "uint256"
        }
      ],
      "name": "transferFrom",
      "outputs": [],
      "stateMutability": "nonpayable",
      "type": "function"
    },
    {
      "inputs": [
        {
          "internalType": "address",
          "name": "newOwner",
          "type": "address"
        }
      ],
      "name": "transferOwnership",
      "outputs": [],
      "stateMutability": "nonpayable",
      "type": "function"
    },
    {
      "inputs": [
        {
          "internalType": "string",
          "name": "_imageUrl",
          "type": "string"
        },
        {
          "internalType": "string",
          "name": "_animationUrl",
          "type": "string"
        }
      ],
      "name": "updateEditionURLs",
      "outputs": [],
      "stateMutability": "nonpayable",
      "type": "function"
    },
    {
      "inputs": [],
      "name": "withdraw",
      "outputs": [],
      "stateMutability": "nonpayable",
      "type": "function"
    }
  ],
  "bytecode": "0x60c06040523480156200001157600080fd5b50604051620049f5380380620049f58339818101604052810190620000379190620000db565b8073ffffffffffffffffffffffffffffffffffffffff1660808173ffffffffffffffffffffffffffffffffffffffff1660601b815250508173ffffffffffffffffffffffffffffffffffffffff1660a08173ffffffffffffffffffffffffffffffffffffffff1660601b815250505050620001a3565b600081519050620000be816200016f565b92915050565b600081519050620000d58162000189565b92915050565b60008060408385031215620000f557620000f46200016a565b5b60006200010585828601620000c4565b92505060206200011885828601620000ad565b9150509250929050565b60006200012f826200014a565b9050919050565b6000620001438262000122565b9050919050565b600073ffffffffffffffffffffffffffffffffffffffff82169050919050565b600080fd5b6200017a8162000122565b81146200018657600080fd5b50565b620001948162000136565b8114620001a057600080fd5b50565b60805160601c60a05160601c61481b620001da60003960005050600081816110ac015281816113010152611d72015261481b6000f3fe6080604052600436106102045760003560e01c806364edfbf011610118578063b88d4fde116100a0578063e8a3d4851161006f578063e8a3d4851461075e578063e985e9c514610789578063f2fde38b146107c6578063f4ed0f46146107ef578063f51f96dd1461081a57610204565b8063b88d4fde146106a6578063c87b56dd146106cf578063d40cd8be1461070c578063e444bfcc1461073557610204565b80637284e416116100e75780637284e416146105bf5780638da5cb5b146105ea57806395d89b4114610615578063a22cb46514610640578063a66ff0af1461066957610204565b806364edfbf01461052257806365e17c9d1461054057806370a082311461056b578063715018a6146105a857610204565b806323b872dd1161019b57806335a6907a1161016a57806335a6907a146104515780633ccfd60b1461047c57806342842e0e1461049357806342966c68146104bc5780636352211e146104e557610204565b806323b872dd1461039357806328c5440f146103bc57806329ec16dd146103ea5780632a55205a1461041357610204565b80630b65b6e7116101d75780630b65b6e7146102d75780630f6a93491461030257806318160ddd1461033f5780631919fed71461036a57610204565b806301ffc9a71461020957806306fdde0314610246578063081812fc14610271578063095ea7b3146102ae575b600080fd5b34801561021557600080fd5b50610230600480360381019061022b91906133a8565b610845565b60405161023d91906139bb565b60405180910390f35b34801561025257600080fd5b5061025b6108bf565b60405161026891906139f1565b60405180910390f35b34801561027d57600080fd5b506102986004803603810190610293919061347a565b610951565b6040516102a59190613910565b60405180910390f35b3480156102ba57600080fd5b506102d560048036038101906102d0919061331f565b610997565b005b3480156102e357600080fd5b506102ec610aaf565b6040516102f99190613d46565b60405180910390f35b34801561030e57600080fd5b506103296004803603810190610324919061335f565b610b0c565b6040516103369190613d46565b60405180910390f35b34801561034b57600080fd5b50610354610b65565b6040516103619190613d46565b60405180910390f35b34801561037657600080fd5b50610391600480360381019061038c919061347a565b610b82565b005b34801561039f57600080fd5b506103ba60048036038101906103b591906130b3565b610bcd565b005b3480156103c857600080fd5b506103d1610c2d565b6040516103e19493929190613a13565b60405180910390f35b3480156103f657600080fd5b50610411600480360381019061040c9190613189565b610d65565b005b34801561041f57600080fd5b5061043a600480360381019061043591906134a7565b610dc8565b604051610448929190613992565b60405180910390f35b34801561045d57600080fd5b50610466610e49565b60405161047391906139f1565b60405180910390f35b34801561048857600080fd5b50610491610ed7565b005b34801561049f57600080fd5b506104ba60048036038101906104b591906130b3565b610ef2565b005b3480156104c857600080fd5b506104e360048036038101906104de919061347a565b610f12565b005b3480156104f157600080fd5b5061050c6004803603810190610507919061347a565b610f6e565b6040516105199190613910565b60405180910390f35b61052a611020565b6040516105379190613d46565b60405180910390f35b34801561054c57600080fd5b506105556112ff565b604051610562919061392b565b60405180910390f35b34801561057757600080fd5b50610592600480360381019061058d9190613046565b611323565b60405161059f9190613d46565b60405180910390f35b3480156105b457600080fd5b506105bd6113db565b005b3480156105cb57600080fd5b506105d46113ef565b6040516105e191906139f1565b60405180910390f35b3480156105f657600080fd5b506105ff61147d565b60405161060c9190613910565b60405180910390f35b34801561062157600080fd5b5061062a61148c565b60405161063791906139f1565b60405180910390f35b34801561064c57600080fd5b5061066760048036038101906106629190613189565b61151e565b005b34801561067557600080fd5b50610690600480360381019061068b9190613046565b611534565b60405161069d9190613d46565b60405180910390f35b3480156106b257600080fd5b506106cd60048036038101906106c89190613106565b61162b565b005b3480156106db57600080fd5b506106f660048036038101906106f1919061347a565b61168d565b60405161070391906139f1565b60405180910390f35b34801561071857600080fd5b50610733600480360381019061072e91906131c9565b611769565b005b34801561074157600080fd5b5061075c60048036038101906107579190613402565b611927565b005b34801561076a57600080fd5b50610773611961565b60405161078091906139f1565b60405180910390f35b34801561079557600080fd5b506107b060048036038101906107ab9190613073565b6119f3565b6040516107bd91906139bb565b60405180910390f35b3480156107d257600080fd5b506107ed60048036038101906107e89190613046565b611a87565b005b3480156107fb57600080fd5b50610804611b0b565b6040516108119190613d46565b60405180910390f35b34801561082657600080fd5b5061082f611b11565b60405161083c9190613d46565b60405180910390f35b6000817bffffffffffffffffffffffffffffffffffffffffffffffffffffffff19167f2a55205a000000000000000000000000000000000000000000000000000000007bffffffffffffffffffffffffffffffffffffffffffffffffffffffff191614806108b857506108b782611b17565b5b9050919050565b6060606580546108ce906140bd565b80601f01602080910402602001604051908101604052809291908181526020018280546108fa906140bd565b80156109475780601f1061091c57610100808354040283529160200191610947565b820191906000526020600020905b81548152906001019060200180831161092a57829003601f168201915b5050505050905090565b600061095c82611bf9565b6069600083815260200190815260200160002060009054906101000a900473ffffffffffffffffffffffffffffffffffffffff169050919050565b60006109a282610f6e565b90508073ffffffffffffffffffffffffffffffffffffffff168373ffffffffffffffffffffffffffffffffffffffff161415610a13576040517f08c379a0000000000000000000000000000000000000000000000000000000008152600401610a0a90613cc6565b60405180910390fd5b8073ffffffffffffffffffffffffffffffffffffffff16610a32611c44565b73ffffffffffffffffffffffffffffffffffffffff161480610a615750610a6081610a5b611c44565b6119f3565b5b610aa0576040517f08c379a0000000000000000000000000000000000000000000000000000000008152600401610a9790613c06565b60405180910390fd5b610aaa8383611c4c565b505050565b60008060cf541415610ae3577fffffffffffffffffffffffffffffffffffffffffffffffffffffffffffffffff9050610b09565b610aed60d0611d05565b600160cf54610afc9190613eb7565b610b069190613f98565b90505b90565b6000610b16611d13565b610b55576040517f08c379a0000000000000000000000000000000000000000000000000000000008152600401610b4c90613c86565b60405180910390fd5b610b5e82611e64565b9050919050565b60006001610b7360d0611d05565b610b7d9190613f98565b905090565b610b8a611f56565b8060d3819055507fa6dc15bdb68da224c66db4b3838d9a2b205138e8cff6774e57d0af91e196d62260d354604051610bc29190613d46565b60405180910390a150565b610bde610bd8611c44565b82611fd4565b610c1d576040517f08c379a0000000000000000000000000000000000000000000000000000000008152600401610c1490613d26565b60405180910390fd5b610c28838383612069565b505050565b606060006060600060cd60ce5460cb60cc54838054610c4b906140bd565b80601f0160208091040260200160405190810160405280929190818152602001828054610c77906140bd565b8015610cc45780601f10610c9957610100808354040283529160200191610cc4565b820191906000526020600020905b815481529060010190602001808311610ca757829003601f168201915b50505050509350818054610cd7906140bd565b80601f0160208091040260200160405190810160405280929190818152602001828054610d03906140bd565b8015610d505780601f10610d2557610100808354040283529160200191610d50565b820191906000526020600020905b815481529060010190602001808311610d3357829003601f168201915b50505050509150935093509350935090919293565b610d6d611f56565b8060d260008473ffffffffffffffffffffffffffffffffffffffff1673ffffffffffffffffffffffffffffffffffffffff16815260200190815260200160002060006101000a81548160ff0219169083151502179055505050565b600080600073ffffffffffffffffffffffffffffffffffffffff16610deb61147d565b73ffffffffffffffffffffffffffffffffffffffff161415610e1a57610e0f61147d565b600091509150610e42565b610e2261147d565b61271060d15485610e339190613f3e565b610e3d9190613f0d565b915091505b9250929050565b60c98054610e56906140bd565b80601f0160208091040260200160405190810160405280929190818152602001828054610e82906140bd565b8015610ecf5780601f10610ea457610100808354040283529160200191610ecf565b820191906000526020600020905b815481529060010190602001808311610eb257829003601f168201915b505050505081565b610edf611f56565b610ef0610eea61147d565b476122d0565b565b610f0d8383836040518060200160405280600081525061162b565b505050565b610f23610f1d611c44565b82611fd4565b610f62576040517f08c379a0000000000000000000000000000000000000000000000000000000008152600401610f5990613ba6565b60405180910390fd5b610f6b816123c4565b50565b6000806067600084815260200190815260200160002060009054906101000a900473ffffffffffffffffffffffffffffffffffffffff169050600073ffffffffffffffffffffffffffffffffffffffff168173ffffffffffffffffffffffffffffffffffffffff161415611017576040517f08c379a000000000000000000000000000000000000000000000000000000000815260040161100e90613ca6565b60405180910390fd5b80915050919050565b60008060d35411611066576040517f08c379a000000000000000000000000000000000000000000000000000000000815260040161105d90613be6565b60405180910390fd5b60d35434146110aa576040517f08c379a00000000000000000000000000000000000000000000000000000000081526004016110a190613c66565b60405180910390fd5b7f000000000000000000000000000000000000000000000000000000000000000073ffffffffffffffffffffffffffffffffffffffff166108fc60646005346110f39190613f3e565b6110fd9190613f0d565b9081150290604051600060405180830381858888f19350505050158015611128573d6000803e3d6000fd5b5061113161147d565b73ffffffffffffffffffffffffffffffffffffffff166108fc6064605f346111599190613f3e565b6111639190613f0d565b9081150290604051600060405180830381858888f1935050505015801561118e573d6000803e3d6000fd5b506000600167ffffffffffffffff8111156111ac576111ab6141dc565b5b6040519080825280602002602001820160405280156111da5781602001602082028036833780820191505090505b50905033816000815181106111f2576111f16141ad565b5b602002602001019073ffffffffffffffffffffffffffffffffffffffff16908173ffffffffffffffffffffffffffffffffffffffff16815250507f60a6c75698fadb72223808131f9f9bb9db3afa32122db6d94fb8fc985a504baa60d3543360405161125f929190613d61565b60405180910390a161126f61147d565b73ffffffffffffffffffffffffffffffffffffffff167fd77263c346a368166dcc7f8123f53c001a7cecb4da150a2a474cfe465909c9666064605f346112b59190613f3e565b6112bf9190613f0d565b60646005346112ce9190613f3e565b6112d89190613f0d565b306040516112e893929190613d8a565b60405180910390a26112f981611e64565b91505090565b7f000000000000000000000000000000000000000000000000000000000000000081565b60008073ffffffffffffffffffffffffffffffffffffffff168273ffffffffffffffffffffffffffffffffffffffff161415611394576040517f08c379a000000000000000000000000000000000000000000000000000000000815260040161138b90613b86565b60405180910390fd5b606860008373ffffffffffffffffffffffffffffffffffffffff1673ffffffffffffffffffffffffffffffffffffffff168152602001908152602001600020549050919050565b6113e3611f56565b6113ed60006124e1565b565b60ca80546113fc906140bd565b80601f0160208091040260200160405190810160405280929190818152602001828054611428906140bd565b80156114755780601f1061144a57610100808354040283529160200191611475565b820191906000526020600020905b81548152906001019060200180831161145857829003601f168201915b505050505081565b60006114876125a7565b905090565b60606066805461149b906140bd565b80601f01602080910402602001604051908101604052809291908181526020018280546114c7906140bd565b80156115145780601f106114e957610100808354040283529160200191611514565b820191906000526020600020905b8154815290600101906020018083116114f757829003601f168201915b5050505050905090565b611530611529611c44565b83836125d1565b5050565b600061153e611d13565b61157d576040517f08c379a000000000000000000000000000000000000000000000000000000000815260040161157490613c86565b60405180910390fd5b6000600167ffffffffffffffff81111561159a576115996141dc565b5b6040519080825280602002602001820160405280156115c85781602001602082028036833780820191505090505b50905082816000815181106115e0576115df6141ad565b5b602002602001019073ffffffffffffffffffffffffffffffffffffffff16908173ffffffffffffffffffffffffffffffffffffffff168152505061162381611e64565b915050919050565b61163c611636611c44565b83611fd4565b61167b576040517f08c379a000000000000000000000000000000000000000000000000000000000815260040161167290613d26565b60405180910390fd5b6116878484848461273e565b50505050565b60606116988261279a565b6116d7576040517f08c379a00000000000000000000000000000000000000000000000000000000081526004016116ce90613b66565b60405180910390fd5b60c980546116e4906140bd565b80601f0160208091040260200160405190810160405280929190818152602001828054611710906140bd565b801561175d5780601f106117325761010080835404028352916020019161175d565b820191906000526020600020905b81548152906001019060200180831161174057829003601f168201915b50505050509050919050565b60008060019054906101000a900460ff1615905080801561179a5750600160008054906101000a900460ff1660ff16105b806117c757506117a930612806565b1580156117c65750600160008054906101000a900460ff1660ff16145b5b611806576040517f08c379a00000000000000000000000000000000000000000000000000000000081526004016117fd90613bc6565b60405180910390fd5b60016000806101000a81548160ff021916908360ff1602179055508015611843576001600060016101000a81548160ff0219169083151502179055505b61184d8989612829565b611855612886565b61185e8a611a87565b8660ca9080519060200190611874929190612dbc565b508560cd908051906020019061188b929190612dbc565b508360cf819055508260d1819055508160d3819055508460c990805190602001906118b7929190612dbc565b506118c260d06128df565b801561191b5760008060016101000a81548160ff0219169083151502179055507f7f26b83ff96e1f2b6a682f133852f6798a09c465da95921460cefb3847402498600160405161191291906139d6565b60405180910390a15b50505050505050505050565b61192f611f56565b8160cd9080519060200190611945929190612dbc565b508060cb908051906020019061195c929190612dbc565b505050565b606060c98054611970906140bd565b80601f016020809104026020016040519081016040528092919081815260200182805461199c906140bd565b80156119e95780601f106119be576101008083540402835291602001916119e9565b820191906000526020600020905b8154815290600101906020018083116119cc57829003601f168201915b5050505050905090565b6000606a60008473ffffffffffffffffffffffffffffffffffffffff1673ffffffffffffffffffffffffffffffffffffffff16815260200190815260200160002060008373ffffffffffffffffffffffffffffffffffffffff1673ffffffffffffffffffffffffffffffffffffffff16815260200190815260200160002060009054906101000a900460ff16905092915050565b611a8f611f56565b600073ffffffffffffffffffffffffffffffffffffffff168173ffffffffffffffffffffffffffffffffffffffff161415611aff576040517f08c379a0000000000000000000000000000000000000000000000000000000008152600401611af690613a86565b60405180910390fd5b611b08816124e1565b50565b60cf5481565b60d35481565b60007f80ac58cd000000000000000000000000000000000000000000000000000000007bffffffffffffffffffffffffffffffffffffffffffffffffffffffff1916827bffffffffffffffffffffffffffffffffffffffffffffffffffffffff19161480611be257507f5b5e139f000000000000000000000000000000000000000000000000000000007bffffffffffffffffffffffffffffffffffffffffffffffffffffffff1916827bffffffffffffffffffffffffffffffffffffffffffffffffffffffff1916145b80611bf25750611bf1826128f5565b5b9050919050565b611c028161279a565b611c41576040517f08c379a0000000000000000000000000000000000000000000000000000000008152600401611c3890613ca6565b60405180910390fd5b50565b600033905090565b816069600083815260200190815260200160002060006101000a81548173ffffffffffffffffffffffffffffffffffffffff021916908373ffffffffffffffffffffffffffffffffffffffff160217905550808273ffffffffffffffffffffffffffffffffffffffff16611cbf83610f6e565b73ffffffffffffffffffffffffffffffffffffffff167f8c5be1e5ebec7d5bd14f71427d1e84f3dd0314c0f7b2291e5b200ac8c7c3b92560405160405180910390a45050565b600081600001549050919050565b60003373ffffffffffffffffffffffffffffffffffffffff16611d3461147d565b73ffffffffffffffffffffffffffffffffffffffff161415611d595760019050611e61565b3373ffffffffffffffffffffffffffffffffffffffff167f000000000000000000000000000000000000000000000000000000000000000073ffffffffffffffffffffffffffffffffffffffff161415611db65760019050611e61565b60d260008073ffffffffffffffffffffffffffffffffffffffff1673ffffffffffffffffffffffffffffffffffffffff16815260200190815260200160002060009054906101000a900460ff1615611e115760019050611e61565b60d260003373ffffffffffffffffffffffffffffffffffffffff1673ffffffffffffffffffffffffffffffffffffffff16815260200190815260200160002060009054906101000a900460ff1690505b90565b600080611e7160d0611d05565b905060006001845183611e849190613eb7565b611e8e9190613f98565b9050600060cf541480611ea3575060cf548111155b611ee2576040517f08c379a0000000000000000000000000000000000000000000000000000000008152600401611ed990613ce6565b60405180910390fd5b5b80611eee60d0611d05565b11611f4357611f348483611f0260d0611d05565b611f0c9190613f98565b81518110611f1d57611f1c6141ad565b5b6020026020010151611f2f60d0611d05565b61295f565b611f3e60d06128df565b611ee3565b611f4d60d0611d05565b92505050919050565b611f5e611c44565b73ffffffffffffffffffffffffffffffffffffffff16611f7c61147d565b73ffffffffffffffffffffffffffffffffffffffff1614611fd2576040517f08c379a0000000000000000000000000000000000000000000000000000000008152600401611fc990613c46565b60405180910390fd5b565b600080611fe083610f6e565b90508073ffffffffffffffffffffffffffffffffffffffff168473ffffffffffffffffffffffffffffffffffffffff161480612022575061202181856119f3565b5b8061206057508373ffffffffffffffffffffffffffffffffffffffff1661204884610951565b73ffffffffffffffffffffffffffffffffffffffff16145b91505092915050565b8273ffffffffffffffffffffffffffffffffffffffff1661208982610f6e565b73ffffffffffffffffffffffffffffffffffffffff16146120df576040517f08c379a00000000000000000000000000000000000000000000000000000000081526004016120d690613aa6565b60405180910390fd5b600073ffffffffffffffffffffffffffffffffffffffff168273ffffffffffffffffffffffffffffffffffffffff16141561214f576040517f08c379a000000000000000000000000000000000000000000000000000000000815260040161214690613ae6565b60405180910390fd5b61215a838383612b39565b612165600082611c4c565b6001606860008573ffffffffffffffffffffffffffffffffffffffff1673ffffffffffffffffffffffffffffffffffffffff16815260200190815260200160002060008282546121b59190613f98565b925050819055506001606860008473ffffffffffffffffffffffffffffffffffffffff1673ffffffffffffffffffffffffffffffffffffffff168152602001908152602001600020600082825461220c9190613eb7565b92505081905550816067600083815260200190815260200160002060006101000a81548173ffffffffffffffffffffffffffffffffffffffff021916908373ffffffffffffffffffffffffffffffffffffffff160217905550808273ffffffffffffffffffffffffffffffffffffffff168473ffffffffffffffffffffffffffffffffffffffff167fddf252ad1be2c89b69c2b068fc378daa952ba7f163c4a11628f55a4df523b3ef60405160405180910390a46122cb838383612b3e565b505050565b80471015612313576040517f08c379a000000000000000000000000000000000000000000000000000000000815260040161230a90613b46565b60405180910390fd5b60008273ffffffffffffffffffffffffffffffffffffffff1682604051612339906138fb565b60006040518083038185875af1925050503d8060008114612376576040519150601f19603f3d011682016040523d82523d6000602084013e61237b565b606091505b50509050806123bf576040517f08c379a00000000000000000000000000000000000000000000000000000000081526004016123b690613b26565b60405180910390fd5b505050565b60006123cf82610f6e565b90506123dd81600084612b39565b6123e8600083611c4c565b6001606860008373ffffffffffffffffffffffffffffffffffffffff1673ffffffffffffffffffffffffffffffffffffffff16815260200190815260200160002060008282546124389190613f98565b925050819055506067600083815260200190815260200160002060006101000a81549073ffffffffffffffffffffffffffffffffffffffff021916905581600073ffffffffffffffffffffffffffffffffffffffff168273ffffffffffffffffffffffffffffffffffffffff167fddf252ad1be2c89b69c2b068fc378daa952ba7f163c4a11628f55a4df523b3ef60405160405180910390a46124dd81600084612b3e565b5050565b6000609760009054906101000a900473ffffffffffffffffffffffffffffffffffffffff16905081609760006101000a81548173ffffffffffffffffffffffffffffffffffffffff021916908373ffffffffffffffffffffffffffffffffffffffff1602179055508173ffffffffffffffffffffffffffffffffffffffff168173ffffffffffffffffffffffffffffffffffffffff167f8be0079c531659141344cd1fd0a4f28419497f9722a3daafe3b4186f6b6457e060405160405180910390a35050565b6000609760009054906101000a900473ffffffffffffffffffffffffffffffffffffffff16905090565b8173ffffffffffffffffffffffffffffffffffffffff168373ffffffffffffffffffffffffffffffffffffffff161415612640576040517f08c379a000000000000000000000000000000000000000000000000000000000815260040161263790613b06565b60405180910390fd5b80606a60008573ffffffffffffffffffffffffffffffffffffffff1673ffffffffffffffffffffffffffffffffffffffff16815260200190815260200160002060008473ffffffffffffffffffffffffffffffffffffffff1673ffffffffffffffffffffffffffffffffffffffff16815260200190815260200160002060006101000a81548160ff0219169083151502179055508173ffffffffffffffffffffffffffffffffffffffff168373ffffffffffffffffffffffffffffffffffffffff167f17307eab39ab6107e8899845ad3d59bd9653f200f220920489ca2b5937696c318360405161273191906139bb565b60405180910390a3505050565b612749848484612069565b61275584848484612b43565b612794576040517f08c379a000000000000000000000000000000000000000000000000000000000815260040161278b90613a66565b60405180910390fd5b50505050565b60008073ffffffffffffffffffffffffffffffffffffffff166067600084815260200190815260200160002060009054906101000a900473ffffffffffffffffffffffffffffffffffffffff1673ffffffffffffffffffffffffffffffffffffffff1614159050919050565b6000808273ffffffffffffffffffffffffffffffffffffffff163b119050919050565b600060019054906101000a900460ff16612878576040517f08c379a000000000000000000000000000000000000000000000000000000000815260040161286f90613d06565b60405180910390fd5b6128828282612cda565b5050565b600060019054906101000a900460ff166128d5576040517f08c379a00000000000000000000000000000000000000000000000000000000081526004016128cc90613d06565b60405180910390fd5b6128dd612d5b565b565b6001816000016000828254019250508190555050565b60007f01ffc9a7000000000000000000000000000000000000000000000000000000007bffffffffffffffffffffffffffffffffffffffffffffffffffffffff1916827bffffffffffffffffffffffffffffffffffffffffffffffffffffffff1916149050919050565b600073ffffffffffffffffffffffffffffffffffffffff168273ffffffffffffffffffffffffffffffffffffffff1614156129cf576040517f08c379a00000000000000000000000000000000000000000000000000000000081526004016129c690613c26565b60405180910390fd5b6129d88161279a565b15612a18576040517f08c379a0000000000000000000000000000000000000000000000000000000008152600401612a0f90613ac6565b60405180910390fd5b612a2460008383612b39565b6001606860008473ffffffffffffffffffffffffffffffffffffffff1673ffffffffffffffffffffffffffffffffffffffff1681526020019081526020016000206000828254612a749190613eb7565b92505081905550816067600083815260200190815260200160002060006101000a81548173ffffffffffffffffffffffffffffffffffffffff021916908373ffffffffffffffffffffffffffffffffffffffff160217905550808273ffffffffffffffffffffffffffffffffffffffff16600073ffffffffffffffffffffffffffffffffffffffff167fddf252ad1be2c89b69c2b068fc378daa952ba7f163c4a11628f55a4df523b3ef60405160405180910390a4612b3560008383612b3e565b5050565b505050565b505050565b6000612b648473ffffffffffffffffffffffffffffffffffffffff16612806565b15612ccd578373ffffffffffffffffffffffffffffffffffffffff1663150b7a02612b8d611c44565b8786866040518563ffffffff1660e01b8152600401612baf9493929190613946565b602060405180830381600087803b158015612bc957600080fd5b505af1925050508015612bfa57506040513d601f19601f82011682018060405250810190612bf791906133d5565b60015b612c7d573d8060008114612c2a576040519150601f19603f3d011682016040523d82523d6000602084013e612c2f565b606091505b50600081511415612c75576040517f08c379a0000000000000000000000000000000000000000000000000000000008152600401612c6c90613a66565b60405180910390fd5b805181602001fd5b63150b7a0260e01b7bffffffffffffffffffffffffffffffffffffffffffffffffffffffff1916817bffffffffffffffffffffffffffffffffffffffffffffffffffffffff191614915050612cd2565b600190505b949350505050565b600060019054906101000a900460ff16612d29576040517f08c379a0000000000000000000000000000000000000000000000000000000008152600401612d2090613d06565b60405180910390fd5b8160659080519060200190612d3f929190612dbc565b508060669080519060200190612d56929190612dbc565b505050565b600060019054906101000a900460ff16612daa576040517f08c379a0000000000000000000000000000000000000000000000000000000008152600401612da190613d06565b60405180910390fd5b612dba612db5611c44565b6124e1565b565b828054612dc8906140bd565b90600052602060002090601f016020900481019282612dea5760008555612e31565b82601f10612e0357805160ff1916838001178555612e31565b82800160010185558215612e31579182015b82811115612e30578251825591602001919060010190612e15565b5b509050612e3e9190612e42565b5090565b5b80821115612e5b576000816000905550600101612e43565b5090565b6000612e72612e6d84613de6565b613dc1565b90508083825260208201905082856020860282011115612e9557612e94614210565b5b60005b85811015612ec55781612eab8882612f53565b845260208401935060208301925050600181019050612e98565b5050509392505050565b6000612ee2612edd84613e12565b613dc1565b905082815260208101848484011115612efe57612efd614215565b5b612f0984828561407b565b509392505050565b6000612f24612f1f84613e43565b613dc1565b905082815260208101848484011115612f4057612f3f614215565b5b612f4b84828561407b565b509392505050565b600081359050612f6281614789565b92915050565b600082601f830112612f7d57612f7c61420b565b5b8135612f8d848260208601612e5f565b91505092915050565b600081359050612fa5816147a0565b92915050565b600081359050612fba816147b7565b92915050565b600081519050612fcf816147b7565b92915050565b600082601f830112612fea57612fe961420b565b5b8135612ffa848260208601612ecf565b91505092915050565b600082601f8301126130185761301761420b565b5b8135613028848260208601612f11565b91505092915050565b600081359050613040816147ce565b92915050565b60006020828403121561305c5761305b61421f565b5b600061306a84828501612f53565b91505092915050565b6000806040838503121561308a5761308961421f565b5b600061309885828601612f53565b92505060206130a985828601612f53565b9150509250929050565b6000806000606084860312156130cc576130cb61421f565b5b60006130da86828701612f53565b93505060206130eb86828701612f53565b92505060406130fc86828701613031565b9150509250925092565b600080600080608085870312156131205761311f61421f565b5b600061312e87828801612f53565b945050602061313f87828801612f53565b935050604061315087828801613031565b925050606085013567ffffffffffffffff8111156131715761317061421a565b5b61317d87828801612fd5565b91505092959194509250565b600080604083850312156131a05761319f61421f565b5b60006131ae85828601612f53565b92505060206131bf85828601612f96565b9150509250929050565b60008060008060008060008060006101208a8c0312156131ec576131eb61421f565b5b60006131fa8c828d01612f53565b99505060208a013567ffffffffffffffff81111561321b5761321a61421a565b5b6132278c828d01613003565b98505060408a013567ffffffffffffffff8111156132485761324761421a565b5b6132548c828d01613003565b97505060608a013567ffffffffffffffff8111156132755761327461421a565b5b6132818c828d01613003565b96505060808a013567ffffffffffffffff8111156132a2576132a161421a565b5b6132ae8c828d01613003565b95505060a08a013567ffffffffffffffff8111156132cf576132ce61421a565b5b6132db8c828d01613003565b94505060c06132ec8c828d01613031565b93505060e06132fd8c828d01613031565b92505061010061330f8c828d01613031565b9150509295985092959850929598565b600080604083850312156133365761333561421f565b5b600061334485828601612f53565b925050602061335585828601613031565b9150509250929050565b6000602082840312156133755761337461421f565b5b600082013567ffffffffffffffff8111156133935761339261421a565b5b61339f84828501612f68565b91505092915050565b6000602082840312156133be576133bd61421f565b5b60006133cc84828501612fab565b91505092915050565b6000602082840312156133eb576133ea61421f565b5b60006133f984828501612fc0565b91505092915050565b600080604083850312156134195761341861421f565b5b600083013567ffffffffffffffff8111156134375761343661421a565b5b61344385828601613003565b925050602083013567ffffffffffffffff8111156134645761346361421a565b5b61347085828601613003565b9150509250929050565b6000602082840312156134905761348f61421f565b5b600061349e84828501613031565b91505092915050565b600080604083850312156134be576134bd61421f565b5b60006134cc85828601613031565b92505060206134dd85828601613031565b9150509250929050565b6134f081613fde565b82525050565b6134ff81613fcc565b82525050565b61350e81613ff0565b82525050565b61351d81613ffc565b82525050565b600061352e82613e74565b6135388185613e8a565b935061354881856020860161408a565b61355181614224565b840191505092915050565b61356581614069565b82525050565b600061357682613e7f565b6135808185613ea6565b935061359081856020860161408a565b61359981614224565b840191505092915050565b60006135b1603283613ea6565b91506135bc82614235565b604082019050919050565b60006135d4602683613ea6565b91506135df82614284565b604082019050919050565b60006135f7602583613ea6565b9150613602826142d3565b604082019050919050565b600061361a601c83613ea6565b915061362582614322565b602082019050919050565b600061363d602483613ea6565b91506136488261434b565b604082019050919050565b6000613660601983613ea6565b915061366b8261439a565b602082019050919050565b6000613683603a83613ea6565b915061368e826143c3565b604082019050919050565b60006136a6601d83613ea6565b91506136b182614412565b602082019050919050565b60006136c9600883613ea6565b91506136d48261443b565b602082019050919050565b60006136ec602983613ea6565b91506136f782614464565b604082019050919050565b600061370f600c83613ea6565b915061371a826144b3565b602082019050919050565b6000613732602e83613ea6565b915061373d826144dc565b604082019050919050565b6000613755600c83613ea6565b91506137608261452b565b602082019050919050565b6000613778603e83613ea6565b915061378382614554565b604082019050919050565b600061379b602083613ea6565b91506137a6826145a3565b602082019050919050565b60006137be602083613ea6565b91506137c9826145cc565b602082019050919050565b60006137e1600b83613ea6565b91506137ec826145f5565b602082019050919050565b6000613804601d83613ea6565b915061380f8261461e565b602082019050919050565b6000613827601883613ea6565b915061383282614647565b602082019050919050565b600061384a602183613ea6565b915061385582614670565b604082019050919050565b600061386d600083613e9b565b9150613878826146bf565b600082019050919050565b6000613890600883613ea6565b915061389b826146c2565b602082019050919050565b60006138b3602b83613ea6565b91506138be826146eb565b604082019050919050565b60006138d6602e83613ea6565b91506138e18261473a565b604082019050919050565b6138f581614052565b82525050565b600061390682613860565b9150819050919050565b600060208201905061392560008301846134f6565b92915050565b600060208201905061394060008301846134e7565b92915050565b600060808201905061395b60008301876134f6565b61396860208301866134f6565b61397560408301856138ec565b81810360608301526139878184613523565b905095945050505050565b60006040820190506139a760008301856134f6565b6139b460208301846138ec565b9392505050565b60006020820190506139d06000830184613505565b92915050565b60006020820190506139eb600083018461355c565b92915050565b60006020820190508181036000830152613a0b818461356b565b905092915050565b60006080820190508181036000830152613a2d818761356b565b9050613a3c6020830186613514565b8181036040830152613a4e818561356b565b9050613a5d6060830184613514565b95945050505050565b60006020820190508181036000830152613a7f816135a4565b9050919050565b60006020820190508181036000830152613a9f816135c7565b9050919050565b60006020820190508181036000830152613abf816135ea565b9050919050565b60006020820190508181036000830152613adf8161360d565b9050919050565b60006020820190508181036000830152613aff81613630565b9050919050565b60006020820190508181036000830152613b1f81613653565b9050919050565b60006020820190508181036000830152613b3f81613676565b9050919050565b60006020820190508181036000830152613b5f81613699565b9050919050565b60006020820190508181036000830152613b7f816136bc565b9050919050565b60006020820190508181036000830152613b9f816136df565b9050919050565b60006020820190508181036000830152613bbf81613702565b9050919050565b60006020820190508181036000830152613bdf81613725565b9050919050565b60006020820190508181036000830152613bff81613748565b9050919050565b60006020820190508181036000830152613c1f8161376b565b9050919050565b60006020820190508181036000830152613c3f8161378e565b9050919050565b60006020820190508181036000830152613c5f816137b1565b9050919050565b60006020820190508181036000830152613c7f816137d4565b9050919050565b60006020820190508181036000830152613c9f816137f7565b9050919050565b60006020820190508181036000830152613cbf8161381a565b9050919050565b60006020820190508181036000830152613cdf8161383d565b9050919050565b60006020820190508181036000830152613cff81613883565b9050919050565b60006020820190508181036000830152613d1f816138a6565b9050919050565b60006020820190508181036000830152613d3f816138c9565b9050919050565b6000602082019050613d5b60008301846138ec565b92915050565b6000604082019050613d7660008301856138ec565b613d8360208301846134f6565b9392505050565b6000606082019050613d9f60008301866138ec565b613dac60208301856138ec565b613db960408301846134f6565b949350505050565b6000613dcb613ddc565b9050613dd782826140ef565b919050565b6000604051905090565b600067ffffffffffffffff821115613e0157613e006141dc565b5b602082029050602081019050919050565b600067ffffffffffffffff821115613e2d57613e2c6141dc565b5b613e3682614224565b9050602081019050919050565b600067ffffffffffffffff821115613e5e57613e5d6141dc565b5b613e6782614224565b9050602081019050919050565b600081519050919050565b600081519050919050565b600082825260208201905092915050565b600081905092915050565b600082825260208201905092915050565b6000613ec282614052565b9150613ecd83614052565b9250827fffffffffffffffffffffffffffffffffffffffffffffffffffffffffffffffff03821115613f0257613f01614120565b5b828201905092915050565b6000613f1882614052565b9150613f2383614052565b925082613f3357613f3261414f565b5b828204905092915050565b6000613f4982614052565b9150613f5483614052565b9250817fffffffffffffffffffffffffffffffffffffffffffffffffffffffffffffffff0483118215151615613f8d57613f8c614120565b5b828202905092915050565b6000613fa382614052565b9150613fae83614052565b925082821015613fc157613fc0614120565b5b828203905092915050565b6000613fd782614032565b9050919050565b6000613fe982614032565b9050919050565b60008115159050919050565b6000819050919050565b60007fffffffff0000000000000000000000000000000000000000000000000000000082169050919050565b600073ffffffffffffffffffffffffffffffffffffffff82169050919050565b6000819050919050565b600060ff82169050919050565b60006140748261405c565b9050919050565b82818337600083830152505050565b60005b838110156140a857808201518184015260208101905061408d565b838111156140b7576000848401525b50505050565b600060028204905060018216806140d557607f821691505b602082108114156140e9576140e861417e565b5b50919050565b6140f882614224565b810181811067ffffffffffffffff82111715614117576141166141dc565b5b80604052505050565b7f4e487b7100000000000000000000000000000000000000000000000000000000600052601160045260246000fd5b7f4e487b7100000000000000000000000000000000000000000000000000000000600052601260045260246000fd5b7f4e487b7100000000000000000000000000000000000000000000000000000000600052602260045260246000fd5b7f4e487b7100000000000000000000000000000000000000000000000000000000600052603260045260246000fd5b7f4e487b7100000000000000000000000000000000000000000000000000000000600052604160045260246000fd5b600080fd5b600080fd5b600080fd5b600080fd5b600080fd5b6000601f19601f8301169050919050565b7f4552433732313a207472616e7366657220746f206e6f6e20455243373231526560008201527f63656976657220696d706c656d656e7465720000000000000000000000000000602082015250565b7f4f776e61626c653a206e6577206f776e657220697320746865207a65726f206160008201527f6464726573730000000000000000000000000000000000000000000000000000602082015250565b7f4552433732313a207472616e736665722066726f6d20696e636f72726563742060008201527f6f776e6572000000000000000000000000000000000000000000000000000000602082015250565b7f4552433732313a20746f6b656e20616c7265616479206d696e74656400000000600082015250565b7f4552433732313a207472616e7366657220746f20746865207a65726f2061646460008201527f7265737300000000000000000000000000000000000000000000000000000000602082015250565b7f4552433732313a20617070726f766520746f2063616c6c657200000000000000600082015250565b7f416464726573733a20756e61626c6520746f2073656e642076616c75652c207260008201527f6563697069656e74206d61792068617665207265766572746564000000000000602082015250565b7f416464726573733a20696e73756666696369656e742062616c616e6365000000600082015250565b7f4e6f20746f6b656e000000000000000000000000000000000000000000000000600082015250565b7f4552433732313a2061646472657373207a65726f206973206e6f74206120766160008201527f6c6964206f776e65720000000000000000000000000000000000000000000000602082015250565b7f4e6f7420617070726f7665640000000000000000000000000000000000000000600082015250565b7f496e697469616c697a61626c653a20636f6e747261637420697320616c72656160008201527f647920696e697469616c697a6564000000000000000000000000000000000000602082015250565b7f4e6f7420666f722073616c650000000000000000000000000000000000000000600082015250565b7f4552433732313a20617070726f76652063616c6c6572206973206e6f7420746f60008201527f6b656e206f776e6572206e6f7220617070726f76656420666f7220616c6c0000602082015250565b7f4552433732313a206d696e7420746f20746865207a65726f2061646472657373600082015250565b7f4f776e61626c653a2063616c6c6572206973206e6f7420746865206f776e6572600082015250565b7f57726f6e67207072696365000000000000000000000000000000000000000000600082015250565b7f4e6565647320746f20626520616e20616c6c6f776564206d696e746572000000600082015250565b7f4552433732313a20696e76616c696420746f6b656e2049440000000000000000600082015250565b7f4552433732313a20617070726f76616c20746f2063757272656e74206f776e6560008201527f7200000000000000000000000000000000000000000000000000000000000000602082015250565b50565b7f536f6c64206f7574000000000000000000000000000000000000000000000000600082015250565b7f496e697469616c697a61626c653a20636f6e7472616374206973206e6f74206960008201527f6e697469616c697a696e67000000000000000000000000000000000000000000602082015250565b7f4552433732313a2063616c6c6572206973206e6f7420746f6b656e206f776e6560008201527f72206e6f7220617070726f766564000000000000000000000000000000000000602082015250565b61479281613fcc565b811461479d57600080fd5b50565b6147a981613ff0565b81146147b457600080fd5b50565b6147c081614006565b81146147cb57600080fd5b50565b6147d781614052565b81146147e257600080fd5b5056fea26469706673582212209b9308ac7b253a6b97af4bc95e5b5f51c7fcfcb7c9f45cc23355389003944e6764736f6c63430008060033",
  "linkReferences": {},
  "deployedLinkReferences": {}
}