{
  "_format": "hh-sol-artifact-1",
  "contractName": "Payments",
  "sourceName": "src/web3/contracts/Payments.sol",
  "abi": [
    {
      "inputs": [
        {
          "internalType": "uint256",
          "name": "_feePercent",
          "type": "uint256"
        },
        {
          "internalType": "address",
          "name": "_feeAccount",
          "type": "address"
        }
      ],
      "stateMutability": "nonpayable",
      "type": "constructor"
    },
    {
      "anonymous": false,
      "inputs": [
        {
          "indexed": true,
          "internalType": "address",
          "name": "seller",
          "type": "address"
        },
        {
          "indexed": false,
          "internalType": "uint256",
          "name": "_price",
          "type": "uint256"
        },
        {
          "indexed": false,
          "internalType": "uint256",
          "name": "_fee",
          "type": "uint256"
        },
        {
          "indexed": true,
          "internalType": "address",
          "name": "buyer",
          "type": "address"
        },
        {
          "indexed": false,
          "internalType": "string",
          "name": "productId",
          "type": "string"
        }
      ],
      "name": "PaidProduct",
      "type": "event"
    },
    {
      "anonymous": false,
      "inputs": [
        {
          "indexed": true,
          "internalType": "address",
          "name": "seller",
          "type": "address"
        },
        {
          "indexed": false,
          "internalType": "uint256",
          "name": "_price",
          "type": "uint256"
        },
        {
          "indexed": false,
          "internalType": "uint256",
          "name": "_fee",
          "type": "uint256"
        },
        {
          "indexed": true,
          "internalType": "address",
          "name": "buyer",
          "type": "address"
        },
        {
          "indexed": false,
          "internalType": "string",
          "name": "requestId",
          "type": "string"
        }
      ],
      "name": "PaidRequest",
      "type": "event"
    },
    {
      "inputs": [],
      "name": "feeAccount",
      "outputs": [
        {
          "internalType": "address payable",
          "name": "",
          "type": "address"
        }
      ],
      "stateMutability": "view",
      "type": "function"
    },
    {
      "inputs": [],
      "name": "feePercent",
      "outputs": [
        {
          "internalType": "uint256",
          "name": "",
          "type": "uint256"
        }
      ],
      "stateMutability": "view",
      "type": "function"
    },
    {
      "inputs": [
        {
          "internalType": "address payable",
          "name": "seller",
          "type": "address"
        },
        {
          "internalType": "uint256",
          "name": "fee",
          "type": "uint256"
        },
        {
          "internalType": "uint256",
          "name": "amount",
          "type": "uint256"
        },
        {
          "internalType": "string",
          "name": "productId",
          "type": "string"
        }
      ],
      "name": "payProduct",
      "outputs": [],
      "stateMutability": "payable",
      "type": "function"
    },
    {
      "inputs": [
        {
          "internalType": "address payable",
          "name": "seller",
          "type": "address"
        },
        {
          "internalType": "uint256",
          "name": "fee",
          "type": "uint256"
        },
        {
          "internalType": "uint256",
          "name": "amount",
          "type": "uint256"
        },
        {
          "internalType": "string",
          "name": "requestId",
          "type": "string"
        }
      ],
      "name": "payRequest",
      "outputs": [],
      "stateMutability": "payable",
      "type": "function"
    }
  ],
  "bytecode": "0x60c060405234801561001057600080fd5b50604051610a6f380380610a6f833981810160405281019061003291906100aa565b60016000819055508073ffffffffffffffffffffffffffffffffffffffff1660808173ffffffffffffffffffffffffffffffffffffffff1660601b815250508160a081815250505050610159565b60008151905061008f8161012b565b92915050565b6000815190506100a481610142565b92915050565b600080604083850312156100c1576100c0610126565b5b60006100cf85828601610095565b92505060206100e085828601610080565b9150509250929050565b60006100f5826100fc565b9050919050565b600073ffffffffffffffffffffffffffffffffffffffff82169050919050565b6000819050919050565b600080fd5b610134816100ea565b811461013f57600080fd5b50565b61014b8161011c565b811461015657600080fd5b50565b60805160601c60a0516108e261018d600039600060f801526000818160d4015281816101c9015261035401526108e26000f3fe60806040526004361061003f5760003560e01c806365e17c9d146100445780637fd6f15c1461006f578063de4dc6e11461009a578063e4b69fa3146100b6575b600080fd5b34801561005057600080fd5b506100596100d2565b60405161006691906105c7565b60405180910390f35b34801561007b57600080fd5b506100846100f6565b6040516100919190610602565b60405180910390f35b6100b460048036038101906100af91906104ca565b61011a565b005b6100d060048036038101906100cb91906104ca565b6102a5565b005b7f000000000000000000000000000000000000000000000000000000000000000081565b7f000000000000000000000000000000000000000000000000000000000000000081565b60026000541415610160576040517f08c379a0000000000000000000000000000000000000000000000000000000008152600401610157906105e2565b60405180910390fd5b6002600081905550828261017491906106cd565b47101561018057600080fd5b8373ffffffffffffffffffffffffffffffffffffffff166108fc839081150290604051600060405180830381858888f193505050501580156101c6573d6000803e3d6000fd5b507f000000000000000000000000000000000000000000000000000000000000000073ffffffffffffffffffffffffffffffffffffffff166108fc849081150290604051600060405180830381858888f1935050505015801561022d573d6000803e3d6000fd5b503373ffffffffffffffffffffffffffffffffffffffff168473ffffffffffffffffffffffffffffffffffffffff167f1e7d74f8a1a8c785acc386e0fd1a380084b958b426fe00ad6773933ee95ef14785858560405161028f9392919061061d565b60405180910390a3600160008190555050505050565b600260005414156102eb576040517f08c379a00000000000000000000000000000000000000000000000000000000081526004016102e2906105e2565b60405180910390fd5b600260008190555082826102ff91906106cd565b47101561030b57600080fd5b8373ffffffffffffffffffffffffffffffffffffffff166108fc839081150290604051600060405180830381858888f19350505050158015610351573d6000803e3d6000fd5b507f000000000000000000000000000000000000000000000000000000000000000073ffffffffffffffffffffffffffffffffffffffff166108fc849081150290604051600060405180830381858888f193505050501580156103b8573d6000803e3d6000fd5b503373ffffffffffffffffffffffffffffffffffffffff168473ffffffffffffffffffffffffffffffffffffffff167f0ff97934f575a676c1042055533700adf633d2df7983d40f3b1ea563bb4c374685858560405161041a9392919061061d565b60405180910390a3600160008190555050505050565b600061044361043e84610680565b61065b565b90508281526020810184848401111561045f5761045e610835565b5b61046a84828561075f565b509392505050565b6000813590506104818161087e565b92915050565b600082601f83011261049c5761049b610830565b5b81356104ac848260208601610430565b91505092915050565b6000813590506104c481610895565b92915050565b600080600080608085870312156104e4576104e361083f565b5b60006104f287828801610472565b9450506020610503878288016104b5565b9350506040610514878288016104b5565b925050606085013567ffffffffffffffff8111156105355761053461083a565b5b61054187828801610487565b91505092959194509250565b61055681610723565b82525050565b6000610567826106b1565b61057181856106bc565b935061058181856020860161076e565b61058a81610844565b840191505092915050565b60006105a2601f836106bc565b91506105ad82610855565b602082019050919050565b6105c181610755565b82525050565b60006020820190506105dc600083018461054d565b92915050565b600060208201905081810360008301526105fb81610595565b9050919050565b600060208201905061061760008301846105b8565b92915050565b600060608201905061063260008301866105b8565b61063f60208301856105b8565b8181036040830152610651818461055c565b9050949350505050565b6000610665610676565b905061067182826107a1565b919050565b6000604051905090565b600067ffffffffffffffff82111561069b5761069a610801565b5b6106a482610844565b9050602081019050919050565b600081519050919050565b600082825260208201905092915050565b60006106d882610755565b91506106e383610755565b9250827fffffffffffffffffffffffffffffffffffffffffffffffffffffffffffffffff03821115610718576107176107d2565b5b828201905092915050565b600061072e82610735565b9050919050565b600073ffffffffffffffffffffffffffffffffffffffff82169050919050565b6000819050919050565b82818337600083830152505050565b60005b8381101561078c578082015181840152602081019050610771565b8381111561079b576000848401525b50505050565b6107aa82610844565b810181811067ffffffffffffffff821117156107c9576107c8610801565b5b80604052505050565b7f4e487b7100000000000000000000000000000000000000000000000000000000600052601160045260246000fd5b7f4e487b7100000000000000000000000000000000000000000000000000000000600052604160045260246000fd5b600080fd5b600080fd5b600080fd5b600080fd5b6000601f19601f8301169050919050565b7f5265656e7472616e637947756172643a207265656e7472616e742063616c6c00600082015250565b61088781610723565b811461089257600080fd5b50565b61089e81610755565b81146108a957600080fd5b5056fea264697066735822122045a09a7691cad6ec79a25e8988b114706b7bf876a566cd381749ae51ec6dde9864736f6c63430008060033",
  "linkReferences": {},
  "deployedLinkReferences": {}
}