{
  "_format": "hh-sol-artifact-1",
  "contractName": "SharedNFTLogic",
  "sourceName": "src/web3/contracts/SharedNFTLogic.sol",
  "abi": [
    {
      "inputs": [
        {
          "internalType": "bytes",
          "name": "unencoded",
          "type": "bytes"
        }
      ],
      "name": "base64Encode",
      "outputs": [
        {
          "internalType": "string",
          "name": "",
          "type": "string"
        }
      ],
      "stateMutability": "pure",
      "type": "function"
    },
    {
      "inputs": [
        {
          "internalType": "string",
          "name": "name",
          "type": "string"
        },
        {
          "internalType": "string",
          "name": "description",
          "type": "string"
        },
        {
          "internalType": "string",
          "name": "imageUrl",
          "type": "string"
        },
        {
          "internalType": "string",
          "name": "animationUrl",
          "type": "string"
        },
        {
          "internalType": "uint256",
          "name": "tokenOfEdition",
          "type": "uint256"
        },
        {
          "internalType": "uint256",
          "name": "editionSize",
          "type": "uint256"
        }
      ],
      "name": "createMetadataEdition",
      "outputs": [
        {
          "internalType": "string",
          "name": "",
          "type": "string"
        }
      ],
      "stateMutability": "pure",
      "type": "function"
    },
    {
      "inputs": [
        {
          "internalType": "string",
          "name": "name",
          "type": "string"
        },
        {
          "internalType": "string",
          "name": "description",
          "type": "string"
        },
        {
          "internalType": "string",
          "name": "mediaData",
          "type": "string"
        },
        {
          "internalType": "uint256",
          "name": "tokenOfEdition",
          "type": "uint256"
        },
        {
          "internalType": "uint256",
          "name": "editionSize",
          "type": "uint256"
        }
      ],
      "name": "createMetadataJSON",
      "outputs": [
        {
          "internalType": "bytes",
          "name": "",
          "type": "bytes"
        }
      ],
      "stateMutability": "pure",
      "type": "function"
    },
    {
      "inputs": [
        {
          "internalType": "bytes",
          "name": "json",
          "type": "bytes"
        }
      ],
      "name": "encodeMetadataJSON",
      "outputs": [
        {
          "internalType": "string",
          "name": "",
          "type": "string"
        }
      ],
      "stateMutability": "pure",
      "type": "function"
    },
    {
      "inputs": [
        {
          "internalType": "uint256",
          "name": "value",
          "type": "uint256"
        }
      ],
      "name": "numberToString",
      "outputs": [
        {
          "internalType": "string",
          "name": "",
          "type": "string"
        }
      ],
      "stateMutability": "pure",
      "type": "function"
    },
    {
      "inputs": [
        {
          "internalType": "string",
          "name": "imageUrl",
          "type": "string"
        },
        {
          "internalType": "string",
          "name": "animationUrl",
          "type": "string"
        },
        {
          "internalType": "uint256",
          "name": "tokenOfEdition",
          "type": "uint256"
        }
      ],
      "name": "tokenMediaData",
      "outputs": [
        {
          "internalType": "string",
          "name": "",
          "type": "string"
        }
      ],
      "stateMutability": "pure",
      "type": "function"
    }
  ],
  "bytecode": "0x608060405234801561001057600080fd5b50611561806100206000396000f3fe608060405234801561001057600080fd5b50600436106100625760003560e01c8063170dc6601461006757806358464f3014610097578063d01fde8c146100c7578063d5fb1b19146100f7578063df30dba014610127578063eb111ab614610157575b600080fd5b610081600480360381019061007c91906109f1565b610187565b60405161008e9190610edb565b60405180910390f35b6100b160048036038101906100ac9190610897565b610199565b6040516100be9190610eb9565b60405180910390f35b6100e160048036038101906100dc9190610751565b610218565b6040516100ee9190610edb565b60405180910390f35b610111600480360381019061010c9190610751565b610249565b60405161011e9190610edb565b60405180910390f35b610141600480360381019061013c919061079a565b61025b565b60405161014e9190610edb565b60405180910390f35b610171600480360381019061016c9190610966565b610294565b60405161017e9190610edb565b60405180910390f35b606061019282610382565b9050919050565b60608060008311156101d0576101ae83610187565b6040516020016101be9190610e52565b60405160208183030381529060405290505b866101da85610187565b8288886101e689610187565b8c6040516020016101fd9796959493929190610d73565b60405160208183030381529060405291505095945050505050565b606061022382610249565b6040516020016102339190610e30565b6040516020818303038152906040529050919050565b6060610254826104e3565b9050919050565b6060600061026a868686610294565b9050600061027b8989848888610199565b905061028681610218565b925050509695505050505050565b6060600080855111905060008085511190508180156102b05750805b156102f457856102bf85610187565b866102c987610187565b6040516020016102dc9493929190610cfe565b6040516020818303038152906040529250505061037b565b811561032d578561030485610187565b604051602001610315929190610cb9565b6040516020818303038152906040529250505061037b565b8015610366578461033d85610187565b60405160200161034e929190610e74565b6040516020818303038152906040529250505061037b565b60405180602001604052806000815250925050505b9392505050565b606060008214156103ca576040518060400160405280600181526020017f300000000000000000000000000000000000000000000000000000000000000081525090506104de565b600082905060005b600082146103fc5780806103e590611164565b915050600a826103f59190611028565b91506103d2565b60008167ffffffffffffffff8111156104185761041761126b565b5b6040519080825280601f01601f19166020018201604052801561044a5781602001600182028036833780820191505090505b5090505b600085146104d75760018261046391906110b3565b9150600a8561047291906111ad565b603061047e9190610fd2565b60f81b8183815181106104945761049361123c565b5b60200101907effffffffffffffffffffffffffffffffffffffffffffffffffffffffffffff1916908160001a905350600a856104d09190611028565b945061044e565b8093505050505b919050565b606060008251141561050657604051806020016040528060008152509050610657565b60006040518060600160405280604081526020016114ec60409139905060006003600285516105359190610fd2565b61053f9190611028565b600461054b9190611059565b9050600060208261055c9190610fd2565b67ffffffffffffffff8111156105755761057461126b565b5b6040519080825280601f01601f1916602001820160405280156105a75781602001600182028036833780820191505090505b509050818152600183018586518101602084015b81831015610616576003830192508251603f8160121c168501518253600182019150603f81600c1c168501518253600182019150603f8160061c168501518253600182019150603f81168501518253600182019150506105bb565b60038951066001811461063057600281146106405761064b565b613d3d60f01b600283035261064b565b603d60f81b60018303525b50505050508093505050505b919050565b600061066f61066a84610f22565b610efd565b90508281526020810184848401111561068b5761068a61129f565b5b6106968482856110f1565b509392505050565b60006106b16106ac84610f53565b610efd565b9050828152602081018484840111156106cd576106cc61129f565b5b6106d88482856110f1565b509392505050565b600082601f8301126106f5576106f461129a565b5b813561070584826020860161065c565b91505092915050565b600082601f8301126107235761072261129a565b5b813561073384826020860161069e565b91505092915050565b60008135905061074b816114d4565b92915050565b600060208284031215610767576107666112a9565b5b600082013567ffffffffffffffff811115610785576107846112a4565b5b610791848285016106e0565b91505092915050565b60008060008060008060c087890312156107b7576107b66112a9565b5b600087013567ffffffffffffffff8111156107d5576107d46112a4565b5b6107e189828a0161070e565b965050602087013567ffffffffffffffff811115610802576108016112a4565b5b61080e89828a0161070e565b955050604087013567ffffffffffffffff81111561082f5761082e6112a4565b5b61083b89828a0161070e565b945050606087013567ffffffffffffffff81111561085c5761085b6112a4565b5b61086889828a0161070e565b935050608061087989828a0161073c565b92505060a061088a89828a0161073c565b9150509295509295509295565b600080600080600060a086880312156108b3576108b26112a9565b5b600086013567ffffffffffffffff8111156108d1576108d06112a4565b5b6108dd8882890161070e565b955050602086013567ffffffffffffffff8111156108fe576108fd6112a4565b5b61090a8882890161070e565b945050604086013567ffffffffffffffff81111561092b5761092a6112a4565b5b6109378882890161070e565b93505060606109488882890161073c565b92505060806109598882890161073c565b9150509295509295909350565b60008060006060848603121561097f5761097e6112a9565b5b600084013567ffffffffffffffff81111561099d5761099c6112a4565b5b6109a98682870161070e565b935050602084013567ffffffffffffffff8111156109ca576109c96112a4565b5b6109d68682870161070e565b92505060406109e78682870161073c565b9150509250925092565b600060208284031215610a0757610a066112a9565b5b6000610a158482850161073c565b91505092915050565b6000610a2982610f84565b610a338185610f9a565b9350610a43818560208601611100565b610a4c816112ae565b840191505092915050565b6000610a6282610f84565b610a6c8185610fab565b9350610a7c818560208601611100565b80840191505092915050565b6000610a9382610f8f565b610a9d8185610fb6565b9350610aad818560208601611100565b610ab6816112ae565b840191505092915050565b6000610acc82610f8f565b610ad68185610fc7565b9350610ae6818560208601611100565b80840191505092915050565b6000610aff600983610fc7565b9150610b0a826112bf565b600982019050919050565b6000610b22600183610fc7565b9150610b2d826112e8565b600182019050919050565b6000610b45600483610fc7565b9150610b5082611311565b600482019050919050565b6000610b68601883610fc7565b9150610b738261133a565b601882019050919050565b6000610b8b600f83610fc7565b9150610b9682611363565b600f82019050919050565b6000610bae600483610fc7565b9150610bb98261138c565b600482019050919050565b6000610bd1600383610fc7565b9150610bdc826113b5565b600382019050919050565b6000610bf4600a83610fc7565b9150610bff826113de565b600a82019050919050565b6000610c17601d83610fc7565b9150610c2282611407565b601d82019050919050565b6000610c3a600b83610fc7565b9150610c4582611430565b600b82019050919050565b6000610c5d601583610fc7565b9150610c6882611459565b601582019050919050565b6000610c80600183610fc7565b9150610c8b82611482565b600182019050919050565b6000610ca3601183610fc7565b9150610cae826114ab565b601182019050919050565b6000610cc482610af2565b9150610cd08285610ac1565b9150610cdb82610b38565b9150610ce78284610ac1565b9150610cf282610ba1565b91508190509392505050565b6000610d0982610af2565b9150610d158287610ac1565b9150610d2082610b38565b9150610d2c8286610ac1565b9150610d3782610c50565b9150610d438285610ac1565b9150610d4e82610b38565b9150610d5a8284610ac1565b9150610d6582610ba1565b915081905095945050505050565b6000610d7e82610be7565b9150610d8a828a610ac1565b9150610d9582610b15565b9150610da18289610ac1565b9150610dad8288610a57565b9150610db882610ba1565b9150610dc382610b7e565b9150610dcf8287610ac1565b9150610dda82610ba1565b9150610de68286610ac1565b9150610df182610b5b565b9150610dfd8285610ac1565b9150610e0882610c2d565b9150610e148284610ac1565b9150610e1f82610bc4565b915081905098975050505050505050565b6000610e3b82610c0a565b9150610e478284610ac1565b915081905092915050565b6000610e5d82610c73565b9150610e698284610ac1565b915081905092915050565b6000610e7f82610c96565b9150610e8b8285610ac1565b9150610e9682610b38565b9150610ea28284610ac1565b9150610ead82610ba1565b91508190509392505050565b60006020820190508181036000830152610ed38184610a1e565b905092915050565b60006020820190508181036000830152610ef58184610a88565b905092915050565b6000610f07610f18565b9050610f138282611133565b919050565b6000604051905090565b600067ffffffffffffffff821115610f3d57610f3c61126b565b5b610f46826112ae565b9050602081019050919050565b600067ffffffffffffffff821115610f6e57610f6d61126b565b5b610f77826112ae565b9050602081019050919050565b600081519050919050565b600081519050919050565b600082825260208201905092915050565b600081905092915050565b600082825260208201905092915050565b600081905092915050565b6000610fdd826110e7565b9150610fe8836110e7565b9250827fffffffffffffffffffffffffffffffffffffffffffffffffffffffffffffffff0382111561101d5761101c6111de565b5b828201905092915050565b6000611033826110e7565b915061103e836110e7565b92508261104e5761104d61120d565b5b828204905092915050565b6000611064826110e7565b915061106f836110e7565b9250817fffffffffffffffffffffffffffffffffffffffffffffffffffffffffffffffff04831182151516156110a8576110a76111de565b5b828202905092915050565b60006110be826110e7565b91506110c9836110e7565b9250828210156110dc576110db6111de565b5b828203905092915050565b6000819050919050565b82818337600083830152505050565b60005b8381101561111e578082015181840152602081019050611103565b8381111561112d576000848401525b50505050565b61113c826112ae565b810181811067ffffffffffffffff8211171561115b5761115a61126b565b5b80604052505050565b600061116f826110e7565b91507fffffffffffffffffffffffffffffffffffffffffffffffffffffffffffffffff8214156111a2576111a16111de565b5b600182019050919050565b60006111b8826110e7565b91506111c3836110e7565b9250826111d3576111d261120d565b5b828206905092915050565b7f4e487b7100000000000000000000000000000000000000000000000000000000600052601160045260246000fd5b7f4e487b7100000000000000000000000000000000000000000000000000000000600052601260045260246000fd5b7f4e487b7100000000000000000000000000000000000000000000000000000000600052603260045260246000fd5b7f4e487b7100000000000000000000000000000000000000000000000000000000600052604160045260246000fd5b600080fd5b600080fd5b600080fd5b600080fd5b6000601f19601f8301169050919050565b7f696d616765223a20220000000000000000000000000000000000000000000000600082015250565b7f2000000000000000000000000000000000000000000000000000000000000000600082015250565b7f3f69643d00000000000000000000000000000000000000000000000000000000600082015250565b7f70726f70657274696573223a207b226e756d626572223a200000000000000000600082015250565b7f6465736372697074696f6e223a20220000000000000000000000000000000000600082015250565b7f222c202200000000000000000000000000000000000000000000000000000000600082015250565b7f227d7d0000000000000000000000000000000000000000000000000000000000600082015250565b7f7b226e616d65223a202200000000000000000000000000000000000000000000600082015250565b7f646174613a6170706c69636174696f6e2f6a736f6e3b6261736536342c000000600082015250565b7f2c20226e616d65223a2022000000000000000000000000000000000000000000600082015250565b7f222c2022616e696d6174696f6e5f75726c223a20220000000000000000000000600082015250565b7f2f00000000000000000000000000000000000000000000000000000000000000600082015250565b7f616e696d6174696f6e5f75726c223a2022000000000000000000000000000000600082015250565b6114dd816110e7565b81146114e857600080fd5b5056fe4142434445464748494a4b4c4d4e4f505152535455565758595a6162636465666768696a6b6c6d6e6f707172737475767778797a303132333435363738392b2fa26469706673582212207733ea54277118754da6bbac7b91e4a65a5f9586fffdb46bdbb744be28d4fb7764736f6c63430008060033",
  "linkReferences": {},
  "deployedLinkReferences": {}
}