{
  "_format": "hh-sol-artifact-1",
  "contractName": "Payments",
  "sourceName": "src/web3/contracts/Payments.sol",
  "abi": [
    {
      "inputs": [
        {
          "internalType": "uint256",
          "name": "_initialAffiliateBps",
          "type": "uint256"
        },
        {
          "internalType": "uint256",
          "name": "_initialPlatformBps",
          "type": "uint256"
        },
        {
          "internalType": "address",
          "name": "_initialPlatformAddress",
          "type": "address"
        }
      ],
      "stateMutability": "nonpayable",
      "type": "constructor"
    },
    {
      "anonymous": false,
      "inputs": [
        {
          "indexed": true,
          "internalType": "address",
          "name": "seller",
          "type": "address"
        },
        {
          "indexed": false,
          "internalType": "uint256",
          "name": "_price",
          "type": "uint256"
        },
        {
          "indexed": false,
          "internalType": "uint256",
          "name": "_fee",
          "type": "uint256"
        },
        {
          "indexed": true,
          "internalType": "address",
          "name": "buyer",
          "type": "address"
        },
        {
          "indexed": false,
          "internalType": "string",
          "name": "productId",
          "type": "string"
        }
      ],
      "name": "PaidProduct",
      "type": "event"
    },
    {
      "anonymous": false,
      "inputs": [
        {
          "indexed": true,
          "internalType": "address",
          "name": "seller",
          "type": "address"
        },
        {
          "indexed": false,
          "internalType": "uint256",
          "name": "_price",
          "type": "uint256"
        },
        {
          "indexed": false,
          "internalType": "uint256",
          "name": "_fee",
          "type": "uint256"
        },
        {
          "indexed": true,
          "internalType": "address",
          "name": "buyer",
          "type": "address"
        },
        {
          "indexed": false,
          "internalType": "string",
          "name": "requestId",
          "type": "string"
        }
      ],
      "name": "PaidRequest",
      "type": "event"
    },
    {
      "inputs": [],
      "name": "affiliateBps",
      "outputs": [
        {
          "internalType": "uint256",
          "name": "",
          "type": "uint256"
        }
      ],
      "stateMutability": "view",
      "type": "function"
    },
    {
      "inputs": [],
      "name": "allowance",
      "outputs": [
        {
          "internalType": "uint256",
          "name": "",
          "type": "uint256"
        }
      ],
      "stateMutability": "view",
      "type": "function"
    },
    {
      "inputs": [],
      "name": "balance",
      "outputs": [
        {
          "internalType": "uint256",
          "name": "",
          "type": "uint256"
        }
      ],
      "stateMutability": "view",
      "type": "function"
    },
    {
      "inputs": [],
      "name": "feeAccount",
      "outputs": [
        {
          "internalType": "address payable",
          "name": "",
          "type": "address"
        }
      ],
      "stateMutability": "view",
      "type": "function"
    },
    {
      "inputs": [],
      "name": "feePercent",
      "outputs": [
        {
          "internalType": "uint256",
          "name": "",
          "type": "uint256"
        }
      ],
      "stateMutability": "view",
      "type": "function"
    },
    {
      "inputs": [],
      "name": "owner",
      "outputs": [
        {
          "internalType": "address",
          "name": "",
          "type": "address"
        }
      ],
      "stateMutability": "view",
      "type": "function"
    },
    {
      "inputs": [
        {
          "internalType": "uint256",
          "name": "_value",
          "type": "uint256"
        },
        {
          "internalType": "address",
          "name": "_toAddress",
          "type": "address"
        },
        {
          "internalType": "address",
          "name": "_affiliateAddress",
          "type": "address"
        }
      ],
      "name": "pay",
      "outputs": [],
      "stateMutability": "payable",
      "type": "function"
    },
    {
      "inputs": [
        {
          "internalType": "address payable",
          "name": "seller",
          "type": "address"
        },
        {
          "internalType": "uint256",
          "name": "fee",
          "type": "uint256"
        },
        {
          "internalType": "uint256",
          "name": "amount",
          "type": "uint256"
        },
        {
          "internalType": "string",
          "name": "productId",
          "type": "string"
        }
      ],
      "name": "payProduct",
      "outputs": [],
      "stateMutability": "payable",
      "type": "function"
    },
    {
      "inputs": [
        {
          "internalType": "address payable",
          "name": "seller",
          "type": "address"
        },
        {
          "internalType": "uint256",
          "name": "fee",
          "type": "uint256"
        },
        {
          "internalType": "uint256",
          "name": "amount",
          "type": "uint256"
        },
        {
          "internalType": "string",
          "name": "requestId",
          "type": "string"
        }
      ],
      "name": "payRequest",
      "outputs": [],
      "stateMutability": "payable",
      "type": "function"
    },
    {
      "inputs": [],
      "name": "platformAddress",
      "outputs": [
        {
          "internalType": "address",
          "name": "",
          "type": "address"
        }
      ],
      "stateMutability": "view",
      "type": "function"
    },
    {
      "inputs": [],
      "name": "platformBps",
      "outputs": [
        {
          "internalType": "uint256",
          "name": "",
          "type": "uint256"
        }
      ],
      "stateMutability": "view",
      "type": "function"
    },
    {
      "inputs": [
        {
          "internalType": "uint256",
          "name": "_newAffiliateBps",
          "type": "uint256"
        }
      ],
      "name": "setAffiliateBps",
      "outputs": [],
      "stateMutability": "nonpayable",
      "type": "function"
    },
    {
      "inputs": [
        {
          "internalType": "address",
          "name": "_newPlatformAddress",
          "type": "address"
        }
      ],
      "name": "setPlatformAddress",
      "outputs": [],
      "stateMutability": "nonpayable",
      "type": "function"
    },
    {
      "inputs": [
        {
          "internalType": "uint256",
          "name": "_newPlatformBps",
          "type": "uint256"
        }
      ],
      "name": "setPlatformBps",
      "outputs": [],
      "stateMutability": "nonpayable",
      "type": "function"
    },
    {
      "inputs": [],
      "name": "usdcContract",
      "outputs": [
        {
          "internalType": "contract ERC20",
          "name": "",
          "type": "address"
        }
      ],
      "stateMutability": "view",
      "type": "function"
    },
    {
      "inputs": [],
      "name": "usdcContractAddress",
      "outputs": [
        {
          "internalType": "address",
          "name": "",
          "type": "address"
        }
      ],
      "stateMutability": "view",
      "type": "function"
    }
  ],
  "bytecode": "0x60c0604052732791bca1f2de4661ed88a30c99a7a9449aa84174600560006101000a81548173ffffffffffffffffffffffffffffffffffffffff021916908373ffffffffffffffffffffffffffffffffffffffff1602179055503480156200006657600080fd5b5060405162001da038038062001da083398181016040528101906200008c9190620001fd565b60016000819055508073ffffffffffffffffffffffffffffffffffffffff1660808173ffffffffffffffffffffffffffffffffffffffff1660601b815250508160a0818152505033600160006101000a81548173ffffffffffffffffffffffffffffffffffffffff021916908373ffffffffffffffffffffffffffffffffffffffff160217905550826002819055508160038190555080600460006101000a81548173ffffffffffffffffffffffffffffffffffffffff021916908373ffffffffffffffffffffffffffffffffffffffff160217905550600560009054906101000a900473ffffffffffffffffffffffffffffffffffffffff16600660006101000a81548173ffffffffffffffffffffffffffffffffffffffff021916908373ffffffffffffffffffffffffffffffffffffffff160217905550505050620002d0565b600081519050620001e0816200029c565b92915050565b600081519050620001f781620002b6565b92915050565b60008060006060848603121562000219576200021862000297565b5b60006200022986828701620001e6565b93505060206200023c86828701620001e6565b92505060406200024f86828701620001cf565b9150509250925092565b600062000266826200026d565b9050919050565b600073ffffffffffffffffffffffffffffffffffffffff82169050919050565b6000819050919050565b600080fd5b620002a78162000259565b8114620002b357600080fd5b50565b620002c1816200028d565b8114620002cd57600080fd5b50565b60805160601c60a051611a996200030760003960006104c60152600081816104a201528181610cc20152610e070152611a996000f3fe6080604052600436106100f35760003560e01c8063cc03c3421161008a578063de4dc6e111610059578063de4dc6e1146102e7578063e4b69fa314610303578063f76835e61461031f578063fe7d944a1461034a576100f3565b8063cc03c3421461024c578063cc71a22a14610275578063dbe55e5614610291578063de242ff4146102bc576100f3565b80637fd6f15c116100c65780637fd6f15c146101a25780638da5cb5b146101cd578063ac6c7bd1146101f8578063b69ef8a814610221576100f3565b80631323e88b146100f85780632e0155841461012357806335c40d421461014e57806365e17c9d14610177575b600080fd5b34801561010457600080fd5b5061010d610375565b60405161011a91906113ac565b60405180910390f35b34801561012f57600080fd5b5061013861039b565b6040516101459190611316565b60405180910390f35b34801561015a57600080fd5b50610175600480360381019061017091906110ff565b6103c1565b005b34801561018357600080fd5b5061018c6104a0565b6040516101999190611331565b60405180910390f35b3480156101ae57600080fd5b506101b76104c4565b6040516101c491906114a7565b60405180910390f35b3480156101d957600080fd5b506101e26104e8565b6040516101ef9190611316565b60405180910390f35b34801561020457600080fd5b5061021f600480360381019061021a91906110ff565b61050e565b005b34801561022d57600080fd5b506102366105ed565b60405161024391906114a7565b60405180910390f35b34801561025857600080fd5b50610273600480360381019061026e9190611022565b61069f565b005b61028f600480360381019061028a9190611159565b610773565b005b34801561029d57600080fd5b506102a6610b7f565b6040516102b39190611316565b60405180910390f35b3480156102c857600080fd5b506102d1610ba5565b6040516102de91906114a7565b60405180910390f35b61030160048036038101906102fc919061104f565b610c59565b005b61031d6004803603810190610318919061104f565b610d9e565b005b34801561032b57600080fd5b50610334610ee3565b60405161034191906114a7565b60405180910390f35b34801561035657600080fd5b5061035f610ee9565b60405161036c91906114a7565b60405180910390f35b600660009054906101000a900473ffffffffffffffffffffffffffffffffffffffff1681565b600560009054906101000a900473ffffffffffffffffffffffffffffffffffffffff1681565b600160009054906101000a900473ffffffffffffffffffffffffffffffffffffffff1673ffffffffffffffffffffffffffffffffffffffff163373ffffffffffffffffffffffffffffffffffffffff1614610451576040517f08c379a0000000000000000000000000000000000000000000000000000000008152600401610448906113c7565b60405180910390fd5b612710811115610496576040517f08c379a000000000000000000000000000000000000000000000000000000000815260040161048d90611447565b60405180910390fd5b8060028190555050565b7f000000000000000000000000000000000000000000000000000000000000000081565b7f000000000000000000000000000000000000000000000000000000000000000081565b600160009054906101000a900473ffffffffffffffffffffffffffffffffffffffff1681565b600160009054906101000a900473ffffffffffffffffffffffffffffffffffffffff1673ffffffffffffffffffffffffffffffffffffffff163373ffffffffffffffffffffffffffffffffffffffff161461059e576040517f08c379a0000000000000000000000000000000000000000000000000000000008152600401610595906113c7565b60405180910390fd5b6127108111156105e3576040517f08c379a00000000000000000000000000000000000000000000000000000000081526004016105da90611407565b60405180910390fd5b8060038190555050565b6000600660009054906101000a900473ffffffffffffffffffffffffffffffffffffffff1673ffffffffffffffffffffffffffffffffffffffff166370a08231336040518263ffffffff1660e01b815260040161064a9190611316565b60206040518083038186803b15801561066257600080fd5b505afa158015610676573d6000803e3d6000fd5b505050506040513d601f19601f8201168201806040525081019061069a919061112c565b905090565b600160009054906101000a900473ffffffffffffffffffffffffffffffffffffffff1673ffffffffffffffffffffffffffffffffffffffff163373ffffffffffffffffffffffffffffffffffffffff161461072f576040517f08c379a0000000000000000000000000000000000000000000000000000000008152600401610726906113c7565b60405180910390fd5b80600460006101000a81548173ffffffffffffffffffffffffffffffffffffffff021916908373ffffffffffffffffffffffffffffffffffffffff16021790555050565b82600660009054906101000a900473ffffffffffffffffffffffffffffffffffffffff1673ffffffffffffffffffffffffffffffffffffffff166370a08231336040518263ffffffff1660e01b81526004016107cf9190611316565b60206040518083038186803b1580156107e757600080fd5b505afa1580156107fb573d6000803e3d6000fd5b505050506040513d601f19601f8201168201806040525081019061081f919061112c565b1015610860576040517f08c379a0000000000000000000000000000000000000000000000000000000008152600401610857906113e7565b60405180910390fd5b60006127106002548561087391906115f9565b61087d91906115c8565b9050478111156108c2576040517f08c379a00000000000000000000000000000000000000000000000000000000081526004016108b990611487565b60405180910390fd5b6000612710600354866108d591906115f9565b6108df91906115c8565b905047811115610924576040517f08c379a000000000000000000000000000000000000000000000000000000000815260040161091b90611427565b60405180910390fd5b60008183876109339190611653565b61093d9190611653565b9050600660009054906101000a900473ffffffffffffffffffffffffffffffffffffffff1673ffffffffffffffffffffffffffffffffffffffff166323b872dd3386866040518463ffffffff1660e01b815260040161099e93929190611375565b602060405180830381600087803b1580156109b857600080fd5b505af11580156109cc573d6000803e3d6000fd5b505050506040513d601f19601f820116820180604052508101906109f091906110d2565b50600660009054906101000a900473ffffffffffffffffffffffffffffffffffffffff1673ffffffffffffffffffffffffffffffffffffffff166323b872dd33600460009054906101000a900473ffffffffffffffffffffffffffffffffffffffff16856040518463ffffffff1660e01b8152600401610a7293929190611375565b602060405180830381600087803b158015610a8c57600080fd5b505af1158015610aa0573d6000803e3d6000fd5b505050506040513d601f19601f82011682018060405250810190610ac491906110d2565b50600660009054906101000a900473ffffffffffffffffffffffffffffffffffffffff1673ffffffffffffffffffffffffffffffffffffffff166323b872dd3387846040518463ffffffff1660e01b8152600401610b2493929190611375565b602060405180830381600087803b158015610b3e57600080fd5b505af1158015610b52573d6000803e3d6000fd5b505050506040513d601f19601f82011682018060405250810190610b7691906110d2565b50505050505050565b600460009054906101000a900473ffffffffffffffffffffffffffffffffffffffff1681565b6000600660009054906101000a900473ffffffffffffffffffffffffffffffffffffffff1673ffffffffffffffffffffffffffffffffffffffff1663dd62ed3e33306040518363ffffffff1660e01b8152600401610c0492919061134c565b60206040518083038186803b158015610c1c57600080fd5b505afa158015610c30573d6000803e3d6000fd5b505050506040513d601f19601f82011682018060405250810190610c54919061112c565b905090565b610c61610eef565b8282610c6d9190611572565b471015610c7957600080fd5b8373ffffffffffffffffffffffffffffffffffffffff166108fc839081150290604051600060405180830381858888f19350505050158015610cbf573d6000803e3d6000fd5b507f000000000000000000000000000000000000000000000000000000000000000073ffffffffffffffffffffffffffffffffffffffff166108fc849081150290604051600060405180830381858888f19350505050158015610d26573d6000803e3d6000fd5b503373ffffffffffffffffffffffffffffffffffffffff168473ffffffffffffffffffffffffffffffffffffffff167f1e7d74f8a1a8c785acc386e0fd1a380084b958b426fe00ad6773933ee95ef147858585604051610d88939291906114c2565b60405180910390a3610d98610f3f565b50505050565b610da6610eef565b8282610db29190611572565b471015610dbe57600080fd5b8373ffffffffffffffffffffffffffffffffffffffff166108fc839081150290604051600060405180830381858888f19350505050158015610e04573d6000803e3d6000fd5b507f000000000000000000000000000000000000000000000000000000000000000073ffffffffffffffffffffffffffffffffffffffff166108fc849081150290604051600060405180830381858888f19350505050158015610e6b573d6000803e3d6000fd5b503373ffffffffffffffffffffffffffffffffffffffff168473ffffffffffffffffffffffffffffffffffffffff167f0ff97934f575a676c1042055533700adf633d2df7983d40f3b1ea563bb4c3746858585604051610ecd939291906114c2565b60405180910390a3610edd610f3f565b50505050565b60035481565b60025481565b60026000541415610f35576040517f08c379a0000000000000000000000000000000000000000000000000000000008152600401610f2c90611467565b60405180910390fd5b6002600081905550565b6001600081905550565b6000610f5c610f5784611525565b611500565b905082815260208101848484011115610f7857610f7761180a565b5b610f83848285611705565b509392505050565b600081359050610f9a81611a07565b92915050565b600081359050610faf81611a1e565b92915050565b600081519050610fc481611a35565b92915050565b600082601f830112610fdf57610fde611805565b5b8135610fef848260208601610f49565b91505092915050565b60008135905061100781611a4c565b92915050565b60008151905061101c81611a4c565b92915050565b60006020828403121561103857611037611814565b5b600061104684828501610f8b565b91505092915050565b6000806000806080858703121561106957611068611814565b5b600061107787828801610fa0565b945050602061108887828801610ff8565b935050604061109987828801610ff8565b925050606085013567ffffffffffffffff8111156110ba576110b961180f565b5b6110c687828801610fca565b91505092959194509250565b6000602082840312156110e8576110e7611814565b5b60006110f684828501610fb5565b91505092915050565b60006020828403121561111557611114611814565b5b600061112384828501610ff8565b91505092915050565b60006020828403121561114257611141611814565b5b60006111508482850161100d565b91505092915050565b60008060006060848603121561117257611171611814565b5b600061118086828701610ff8565b935050602061119186828701610f8b565b92505060406111a286828701610f8b565b9150509250925092565b6111b581611699565b82525050565b6111c481611687565b82525050565b6111d3816116e1565b82525050565b60006111e482611556565b6111ee8185611561565b93506111fe818560208601611714565b61120781611819565b840191505092915050565b600061121f602583611561565b915061122a8261182a565b604082019050919050565b6000611242601483611561565b915061124d82611879565b602082019050919050565b6000611265602f83611561565b9150611270826118a2565b604082019050919050565b6000611288602683611561565b9150611293826118f1565b604082019050919050565b60006112ab603083611561565b91506112b682611940565b604082019050919050565b60006112ce601f83611561565b91506112d98261198f565b602082019050919050565b60006112f1602783611561565b91506112fc826119b8565b604082019050919050565b611310816116d7565b82525050565b600060208201905061132b60008301846111bb565b92915050565b600060208201905061134660008301846111ac565b92915050565b600060408201905061136160008301856111bb565b61136e60208301846111bb565b9392505050565b600060608201905061138a60008301866111bb565b61139760208301856111bb565b6113a46040830184611307565b949350505050565b60006020820190506113c160008301846111ca565b92915050565b600060208201905081810360008301526113e081611212565b9050919050565b6000602082019050818103600083015261140081611235565b9050919050565b6000602082019050818103600083015261142081611258565b9050919050565b600060208201905081810360008301526114408161127b565b9050919050565b600060208201905081810360008301526114608161129e565b9050919050565b60006020820190508181036000830152611480816112c1565b9050919050565b600060208201905081810360008301526114a0816112e4565b9050919050565b60006020820190506114bc6000830184611307565b92915050565b60006060820190506114d76000830186611307565b6114e46020830185611307565b81810360408301526114f681846111d9565b9050949350505050565b600061150a61151b565b90506115168282611747565b919050565b6000604051905090565b600067ffffffffffffffff8211156115405761153f6117d6565b5b61154982611819565b9050602081019050919050565b600081519050919050565b600082825260208201905092915050565b600061157d826116d7565b9150611588836116d7565b9250827fffffffffffffffffffffffffffffffffffffffffffffffffffffffffffffffff038211156115bd576115bc611778565b5b828201905092915050565b60006115d3826116d7565b91506115de836116d7565b9250826115ee576115ed6117a7565b5b828204905092915050565b6000611604826116d7565b915061160f836116d7565b9250817fffffffffffffffffffffffffffffffffffffffffffffffffffffffffffffffff048311821515161561164857611647611778565b5b828202905092915050565b600061165e826116d7565b9150611669836116d7565b92508282101561167c5761167b611778565b5b828203905092915050565b6000611692826116b7565b9050919050565b60006116a4826116b7565b9050919050565b60008115159050919050565b600073ffffffffffffffffffffffffffffffffffffffff82169050919050565b6000819050919050565b60006116ec826116f3565b9050919050565b60006116fe826116b7565b9050919050565b82818337600083830152505050565b60005b83811015611732578082015181840152602081019050611717565b83811115611741576000848401525b50505050565b61175082611819565b810181811067ffffffffffffffff8211171561176f5761176e6117d6565b5b80604052505050565b7f4e487b7100000000000000000000000000000000000000000000000000000000600052601160045260246000fd5b7f4e487b7100000000000000000000000000000000000000000000000000000000600052601260045260246000fd5b7f4e487b7100000000000000000000000000000000000000000000000000000000600052604160045260246000fd5b600080fd5b600080fd5b600080fd5b600080fd5b6000601f19601f8301169050919050565b7f4f6e6c7920746865206f776e65722063616e2063616c6c20746869732066756e60008201527f6374696f6e000000000000000000000000000000000000000000000000000000602082015250565b7f496e73756666696369656e742062616c616e6365000000000000000000000000600082015250565b7f506c6174666f726d20626173697320706f696e74732073686f756c642062652060008201527f3c3d203130303030202831303025290000000000000000000000000000000000602082015250565b7f4e6f7420656e6f7567682062616c616e636520746f207061792074686520706c60008201527f6174666f726d0000000000000000000000000000000000000000000000000000602082015250565b7f416666696c6961746520626173697320706f696e74732073686f756c6420626560008201527f203c3d2031303030302028313030252900000000000000000000000000000000602082015250565b7f5265656e7472616e637947756172643a207265656e7472616e742063616c6c00600082015250565b7f4e6f7420656e6f7567682062616c616e636520746f207061792074686520616660008201527f66696c6961746500000000000000000000000000000000000000000000000000602082015250565b611a1081611687565b8114611a1b57600080fd5b50565b611a2781611699565b8114611a3257600080fd5b50565b611a3e816116ab565b8114611a4957600080fd5b50565b611a55816116d7565b8114611a6057600080fd5b5056fea2646970667358221220d9377423431ceb1f972bb4537511cf328b849022623fe75cd1fa2451102684e464736f6c63430008060033",
  "linkReferences": {},
  "deployedLinkReferences": {}
}