{
  "_format": "hh-sol-artifact-1",
  "contractName": "SingleEditionMintableCreator",
  "sourceName": "src/web3/contracts/SingleEditionMintableCreator.sol",
  "abi": [
    {
      "inputs": [
        {
          "internalType": "address",
          "name": "_implementation",
          "type": "address"
        },
        {
          "internalType": "address",
          "name": "_feeAccount",
          "type": "address"
        }
      ],
      "stateMutability": "nonpayable",
      "type": "constructor"
    },
    {
      "anonymous": false,
      "inputs": [
        {
          "indexed": true,
          "internalType": "uint256",
          "name": "editionId",
          "type": "uint256"
        },
        {
          "indexed": true,
          "internalType": "address",
          "name": "creator",
          "type": "address"
        },
        {
          "indexed": false,
          "internalType": "uint256",
          "name": "editionSize",
          "type": "uint256"
        },
        {
          "indexed": false,
          "internalType": "address",
          "name": "editionContractAddress",
          "type": "address"
        }
      ],
      "name": "CreatedEdition",
      "type": "event"
    },
    {
      "anonymous": false,
      "inputs": [
        {
          "indexed": true,
          "internalType": "uint256",
          "name": "editionId",
          "type": "uint256"
        },
        {
          "indexed": true,
          "internalType": "address",
          "name": "creator",
          "type": "address"
        },
        {
          "indexed": false,
          "internalType": "uint256",
          "name": "storageFee",
          "type": "uint256"
        },
        {
          "indexed": false,
          "internalType": "address",
          "name": "editionContractAddress",
          "type": "address"
        }
      ],
      "name": "PaidStorageFee",
      "type": "event"
    },
    {
      "inputs": [
        {
          "internalType": "string",
          "name": "_name",
          "type": "string"
        },
        {
          "internalType": "string",
          "name": "_symbol",
          "type": "string"
        },
        {
          "internalType": "string",
          "name": "_description",
          "type": "string"
        },
        {
          "internalType": "string",
          "name": "_imageUrl",
          "type": "string"
        },
        {
          "internalType": "string",
          "name": "_contractURI",
          "type": "string"
        },
        {
          "internalType": "uint256",
          "name": "_editionSize",
          "type": "uint256"
        },
        {
          "internalType": "uint256",
          "name": "_royaltyBPS",
          "type": "uint256"
        },
        {
          "internalType": "uint256",
          "name": "_storageSize",
          "type": "uint256"
        },
        {
          "internalType": "uint256",
          "name": "_salePrice",
          "type": "uint256"
        }
      ],
      "name": "createEdition",
      "outputs": [
        {
          "internalType": "uint256",
          "name": "",
          "type": "uint256"
        }
      ],
      "stateMutability": "payable",
      "type": "function"
    },
    {
      "inputs": [],
      "name": "feeAccount",
      "outputs": [
        {
          "internalType": "address payable",
          "name": "",
          "type": "address"
        }
      ],
      "stateMutability": "view",
      "type": "function"
    },
    {
      "inputs": [
        {
          "internalType": "uint256",
          "name": "editionId",
          "type": "uint256"
        }
      ],
      "name": "getEditionAtId",
      "outputs": [
        {
          "internalType": "contract SingleEditionMintable",
          "name": "",
          "type": "address"
        }
      ],
      "stateMutability": "view",
      "type": "function"
    },
    {
      "inputs": [],
      "name": "implementation",
      "outputs": [
        {
          "internalType": "address",
          "name": "",
          "type": "address"
        }
      ],
      "stateMutability": "view",
      "type": "function"
    }
  ],
  "bytecode": "0x60a060405234801561001057600080fd5b5060405162000e7d38038062000e7d833981810160405281019061003491906100c8565b8073ffffffffffffffffffffffffffffffffffffffff1660808173ffffffffffffffffffffffffffffffffffffffff1660601b8152505081600160006101000a81548173ffffffffffffffffffffffffffffffffffffffff021916908373ffffffffffffffffffffffffffffffffffffffff1602179055505050610156565b6000815190506100c28161013f565b92915050565b600080604083850312156100df576100de61013a565b5b60006100ed858286016100b3565b92505060206100fe858286016100b3565b9150509250929050565b60006101138261011a565b9050919050565b600073ffffffffffffffffffffffffffffffffffffffff82169050919050565b600080fd5b61014881610108565b811461015357600080fd5b50565b60805160601c610d016200017c6000396000818161012f015261027a0152610d016000f3fe60806040526004361061003f5760003560e01c80635c60da1b1461004457806365e17c9d1461006f578063954ba7201461009a578063ac52edfd146100ca575b600080fd5b34801561005057600080fd5b50610059610107565b604051610066919061086b565b60405180910390f35b34801561007b57600080fd5b5061008461012d565b6040516100919190610886565b60405180910390f35b6100b460048036038101906100af91906105fb565b610151565b6040516100c191906109bb565b60405180910390f35b3480156100d657600080fd5b506100f160048036038101906100ec9190610751565b61039d565b6040516100fe9190610960565b60405180910390f35b600160009054906101000a900473ffffffffffffffffffffffffffffffffffffffff1681565b7f000000000000000000000000000000000000000000000000000000000000000081565b6000823414610195576040517f08c379a000000000000000000000000000000000000000000000000000000000815260040161018c9061099b565b60405180910390fd5b60006101a160006103fb565b905060006101f9600160009054906101000a900473ffffffffffffffffffffffffffffffffffffffff16836040516020016101dc9190610850565b6040516020818303038152906040526101f490610ae4565b610409565b90508073ffffffffffffffffffffffffffffffffffffffff166343559118338e8e8e8e8e8e8e8e8e6040518b63ffffffff1660e01b81526004016102469a999897969594939291906108a1565b600060405180830381600087803b15801561026057600080fd5b505af1158015610274573d6000803e3d6000fd5b505050507f000000000000000000000000000000000000000000000000000000000000000073ffffffffffffffffffffffffffffffffffffffff166108fc869081150290604051600060405180830381858888f193505050501580156102de573d6000803e3d6000fd5b503373ffffffffffffffffffffffffffffffffffffffff16827f152014b245a12a32e125b8a4227ff155636ca7ca6ba15d04c5d07966e55c5cc789846040516103289291906109d6565b60405180910390a33373ffffffffffffffffffffffffffffffffffffffff16827f85bbb53304eefd1d0fb8bc80809aa9dc8b5d4a48c4b93c6e8e08bd2961caf17287846040516103799291906109d6565b60405180910390a361038b60006104e0565b81925050509998505050505050505050565b60006103f4600160009054906101000a900473ffffffffffffffffffffffffffffffffffffffff16836040516020016103d69190610850565b6040516020818303038152906040526103ee90610ae4565b306104f6565b9050919050565b600081600001549050919050565b60006040517f3d602d80600a3d3981f3363d3d373d3d3d363d7300000000000000000000000081528360601b60148201527f5af43d82803e903d91602b57fd5bf300000000000000000000000000000000006028820152826037826000f5915050600073ffffffffffffffffffffffffffffffffffffffff168173ffffffffffffffffffffffffffffffffffffffff1614156104da576040517f08c379a00000000000000000000000000000000000000000000000000000000081526004016104d19061097b565b60405180910390fd5b92915050565b6001816000016000828254019250508190555050565b60006040517f3d602d80600a3d3981f3363d3d373d3d3d363d7300000000000000000000000081528460601b60148201527f5af43d82803e903d91602b57fd5bf3ff0000000000000000000000000000000060288201528260601b603882015283604c82015260378120606c820152605560378201209150509392505050565b600061058961058484610a24565b6109ff565b9050828152602081018484840111156105a5576105a4610c35565b5b6105b0848285610b6f565b509392505050565b600082601f8301126105cd576105cc610c30565b5b81356105dd848260208601610576565b91505092915050565b6000813590506105f581610cb4565b92915050565b60008060008060008060008060006101208a8c03121561061e5761061d610c3f565b5b60008a013567ffffffffffffffff81111561063c5761063b610c3a565b5b6106488c828d016105b8565b99505060208a013567ffffffffffffffff81111561066957610668610c3a565b5b6106758c828d016105b8565b98505060408a013567ffffffffffffffff81111561069657610695610c3a565b5b6106a28c828d016105b8565b97505060608a013567ffffffffffffffff8111156106c3576106c2610c3a565b5b6106cf8c828d016105b8565b96505060808a013567ffffffffffffffff8111156106f0576106ef610c3a565b5b6106fc8c828d016105b8565b95505060a061070d8c828d016105e6565b94505060c061071e8c828d016105e6565b93505060e061072f8c828d016105e6565b9250506101006107418c828d016105e6565b9150509295985092959850929598565b60006020828403121561076757610766610c3f565b5b6000610775848285016105e6565b91505092915050565b61078781610a9e565b82525050565b61079681610a8c565b82525050565b6107a581610b4b565b82525050565b60006107b682610a70565b6107c08185610a7b565b93506107d0818560208601610b7e565b6107d981610c44565b840191505092915050565b60006107f1601783610a7b565b91506107fc82610c62565b602082019050919050565b6000610814600b83610a7b565b915061081f82610c8b565b602082019050919050565b61083381610ada565b82525050565b61084a61084582610ada565b610be2565b82525050565b600061085c8284610839565b60208201915081905092915050565b6000602082019050610880600083018461078d565b92915050565b600060208201905061089b600083018461077e565b92915050565b6000610140820190506108b7600083018d61078d565b81810360208301526108c9818c6107ab565b905081810360408301526108dd818b6107ab565b905081810360608301526108f1818a6107ab565b9050818103608083015261090581896107ab565b905081810360a083015261091981886107ab565b905061092860c083018761082a565b61093560e083018661082a565b61094361010083018561082a565b61095161012083018461082a565b9b9a5050505050505050505050565b6000602082019050610975600083018461079c565b92915050565b60006020820190508181036000830152610994816107e4565b9050919050565b600060208201905081810360008301526109b481610807565b9050919050565b60006020820190506109d0600083018461082a565b92915050565b60006040820190506109eb600083018561082a565b6109f8602083018461078d565b9392505050565b6000610a09610a1a565b9050610a158282610bb1565b919050565b6000604051905090565b600067ffffffffffffffff821115610a3f57610a3e610bec565b5b610a4882610c44565b9050602081019050919050565b6000819050602082019050919050565b600081519050919050565b600081519050919050565b600082825260208201905092915050565b6000610a9782610aba565b9050919050565b6000610aa982610aba565b9050919050565b6000819050919050565b600073ffffffffffffffffffffffffffffffffffffffff82169050919050565b6000819050919050565b6000610aef82610a65565b82610af984610a55565b9050610b0481610c1b565b92506020821015610b4457610b3f7fffffffffffffffffffffffffffffffffffffffffffffffffffffffffffffffff83602003600802610c55565b831692505b5050919050565b6000610b5682610b5d565b9050919050565b6000610b6882610aba565b9050919050565b82818337600083830152505050565b60005b83811015610b9c578082015181840152602081019050610b81565b83811115610bab576000848401525b50505050565b610bba82610c44565b810181811067ffffffffffffffff82111715610bd957610bd8610bec565b5b80604052505050565b6000819050919050565b7f4e487b7100000000000000000000000000000000000000000000000000000000600052604160045260246000fd5b6000610c278251610ab0565b80915050919050565b600080fd5b600080fd5b600080fd5b600080fd5b6000601f19601f8301169050919050565b600082821b905092915050565b7f455243313136373a2063726561746532206661696c6564000000000000000000600082015250565b7f57726f6e67207072696365000000000000000000000000000000000000000000600082015250565b610cbd81610ada565b8114610cc857600080fd5b5056fea2646970667358221220c590490b8ceaa07c3e53002112aafbc3cf3a8130ae462e7cd88315f5224ae4fe64736f6c63430008060033",
  "linkReferences": {},
  "deployedLinkReferences": {}
}