{
  "_format": "hh-sol-artifact-1",
  "contractName": "SharedNFTLogic",
  "sourceName": "src/web3/contracts/SharedNFTLogic.sol",
  "abi": [
    {
      "inputs": [
        {
          "internalType": "bytes",
          "name": "unencoded",
          "type": "bytes"
        }
      ],
      "name": "base64Encode",
      "outputs": [
        {
          "internalType": "string",
          "name": "",
          "type": "string"
        }
      ],
      "stateMutability": "pure",
      "type": "function"
    },
    {
      "inputs": [
        {
          "internalType": "string",
          "name": "name",
          "type": "string"
        },
        {
          "internalType": "string",
          "name": "description",
          "type": "string"
        },
        {
          "internalType": "string",
          "name": "imageUrl",
          "type": "string"
        },
        {
          "internalType": "string",
          "name": "animationUrl",
          "type": "string"
        },
        {
          "internalType": "uint256",
          "name": "tokenOfEdition",
          "type": "uint256"
        },
        {
          "internalType": "uint256",
          "name": "editionSize",
          "type": "uint256"
        }
      ],
      "name": "createMetadataEdition",
      "outputs": [
        {
          "internalType": "string",
          "name": "",
          "type": "string"
        }
      ],
      "stateMutability": "pure",
      "type": "function"
    },
    {
      "inputs": [
        {
          "internalType": "string",
          "name": "name",
          "type": "string"
        },
        {
          "internalType": "string",
          "name": "description",
          "type": "string"
        },
        {
          "internalType": "string",
          "name": "mediaData",
          "type": "string"
        },
        {
          "internalType": "uint256",
          "name": "tokenOfEdition",
          "type": "uint256"
        },
        {
          "internalType": "uint256",
          "name": "editionSize",
          "type": "uint256"
        }
      ],
      "name": "createMetadataJSON",
      "outputs": [
        {
          "internalType": "bytes",
          "name": "",
          "type": "bytes"
        }
      ],
      "stateMutability": "pure",
      "type": "function"
    },
    {
      "inputs": [
        {
          "internalType": "bytes",
          "name": "json",
          "type": "bytes"
        }
      ],
      "name": "encodeMetadataJSON",
      "outputs": [
        {
          "internalType": "string",
          "name": "",
          "type": "string"
        }
      ],
      "stateMutability": "pure",
      "type": "function"
    },
    {
      "inputs": [
        {
          "internalType": "uint256",
          "name": "value",
          "type": "uint256"
        }
      ],
      "name": "numberToString",
      "outputs": [
        {
          "internalType": "string",
          "name": "",
          "type": "string"
        }
      ],
      "stateMutability": "pure",
      "type": "function"
    },
    {
      "inputs": [
        {
          "internalType": "string",
          "name": "imageUrl",
          "type": "string"
        },
        {
          "internalType": "string",
          "name": "animationUrl",
          "type": "string"
        },
        {
          "internalType": "uint256",
          "name": "tokenOfEdition",
          "type": "uint256"
        }
      ],
      "name": "tokenMediaData",
      "outputs": [
        {
          "internalType": "string",
          "name": "",
          "type": "string"
        }
      ],
      "stateMutability": "pure",
      "type": "function"
    }
  ],
  "bytecode": "0x608060405234801561001057600080fd5b5061154e806100206000396000f3fe608060405234801561001057600080fd5b50600436106100625760003560e01c8063170dc6601461006757806358464f3014610097578063d01fde8c146100c7578063d5fb1b19146100f7578063df30dba014610127578063eb111ab614610157575b600080fd5b610081600480360381019061007c9190610abb565b610187565b60405161008e9190610fa5565b60405180910390f35b6100b160048036038101906100ac9190610961565b610199565b6040516100be9190610f83565b60405180910390f35b6100e160048036038101906100dc919061081b565b610218565b6040516100ee9190610fa5565b60405180910390f35b610111600480360381019061010c919061081b565b610249565b60405161011e9190610fa5565b60405180910390f35b610141600480360381019061013c9190610864565b61025b565b60405161014e9190610fa5565b60405180910390f35b610171600480360381019061016c9190610a30565b610294565b60405161017e9190610fa5565b60405180910390f35b606061019282610382565b9050919050565b60608060008311156101d0576101ae83610187565b6040516020016101be9190610f1c565b60405160208183030381529060405290505b866101da85610187565b8288886101e689610187565b8c6040516020016101fd9796959493929190610e3d565b60405160208183030381529060405291505095945050505050565b606061022382610249565b6040516020016102339190610efa565b6040516020818303038152906040529050919050565b60606102548261045a565b9050919050565b6060600061026a868686610294565b9050600061027b8989848888610199565b905061028681610218565b925050509695505050505050565b6060600080855111905060008085511190508180156102b05750805b156102f457856102bf85610187565b866102c987610187565b6040516020016102dc9493929190610dc8565b6040516020818303038152906040529250505061037b565b811561032d578561030485610187565b604051602001610315929190610d83565b6040516020818303038152906040529250505061037b565b8015610366578461033d85610187565b60405160200161034e929190610f3e565b6040516020818303038152906040529250505061037b565b60405180602001604052806000815250925050505b9392505050565b606060006001610391846105d3565b01905060008167ffffffffffffffff8111156103b0576103af611258565b5b6040519080825280601f01601f1916602001820160405280156103e25781602001600182028036833780820191505090505b509050600082602001820190505b60011561044f578080600190039150507f3031323334353637383961626364656600000000000000000000000000000000600a86061a8153600a858161043957610438611229565b5b049450600085141561044a5761044f565b6103f0565b819350505050919050565b606060008251141561047d576040518060200160405280600081525090506105ce565b60006040518060600160405280604081526020016114d960409139905060006003600285516104ac919061109c565b6104b691906110f2565b60046104c29190611123565b905060006020826104d3919061109c565b67ffffffffffffffff8111156104ec576104eb611258565b5b6040519080825280601f01601f19166020018201604052801561051e5781602001600182028036833780820191505090505b509050818152600183018586518101602084015b8183101561058d576003830192508251603f8160121c168501518253600182019150603f81600c1c168501518253600182019150603f8160061c168501518253600182019150603f8116850151825360018201915050610532565b6003895106600181146105a757600281146105b7576105c2565b613d3d60f01b60028303526105c2565b603d60f81b60018303525b50505050508093505050505b919050565b600080600090507a184f03e93ff9f4daa797ed6e38ed64bf6a1f0100000000000000008310610631577a184f03e93ff9f4daa797ed6e38ed64bf6a1f010000000000000000838161062757610626611229565b5b0492506040810190505b6d04ee2d6d415b85acef8100000000831061066e576d04ee2d6d415b85acef8100000000838161066457610663611229565b5b0492506020810190505b662386f26fc10000831061069d57662386f26fc10000838161069357610692611229565b5b0492506010810190505b6305f5e10083106106c6576305f5e10083816106bc576106bb611229565b5b0492506008810190505b61271083106106eb5761271083816106e1576106e0611229565b5b0492506004810190505b6064831061070e576064838161070457610703611229565b5b0492506002810190505b600a831061071d576001810190505b80915050919050565b600061073961073484610fec565b610fc7565b9050828152602081018484840111156107555761075461128c565b5b610760848285611187565b509392505050565b600061077b6107768461101d565b610fc7565b9050828152602081018484840111156107975761079661128c565b5b6107a2848285611187565b509392505050565b600082601f8301126107bf576107be611287565b5b81356107cf848260208601610726565b91505092915050565b600082601f8301126107ed576107ec611287565b5b81356107fd848260208601610768565b91505092915050565b600081359050610815816114c1565b92915050565b60006020828403121561083157610830611296565b5b600082013567ffffffffffffffff81111561084f5761084e611291565b5b61085b848285016107aa565b91505092915050565b60008060008060008060c0878903121561088157610880611296565b5b600087013567ffffffffffffffff81111561089f5761089e611291565b5b6108ab89828a016107d8565b965050602087013567ffffffffffffffff8111156108cc576108cb611291565b5b6108d889828a016107d8565b955050604087013567ffffffffffffffff8111156108f9576108f8611291565b5b61090589828a016107d8565b945050606087013567ffffffffffffffff81111561092657610925611291565b5b61093289828a016107d8565b935050608061094389828a01610806565b92505060a061095489828a01610806565b9150509295509295509295565b600080600080600060a0868803121561097d5761097c611296565b5b600086013567ffffffffffffffff81111561099b5761099a611291565b5b6109a7888289016107d8565b955050602086013567ffffffffffffffff8111156109c8576109c7611291565b5b6109d4888289016107d8565b945050604086013567ffffffffffffffff8111156109f5576109f4611291565b5b610a01888289016107d8565b9350506060610a1288828901610806565b9250506080610a2388828901610806565b9150509295509295909350565b600080600060608486031215610a4957610a48611296565b5b600084013567ffffffffffffffff811115610a6757610a66611291565b5b610a73868287016107d8565b935050602084013567ffffffffffffffff811115610a9457610a93611291565b5b610aa0868287016107d8565b9250506040610ab186828701610806565b9150509250925092565b600060208284031215610ad157610ad0611296565b5b6000610adf84828501610806565b91505092915050565b6000610af38261104e565b610afd8185611064565b9350610b0d818560208601611196565b610b168161129b565b840191505092915050565b6000610b2c8261104e565b610b368185611075565b9350610b46818560208601611196565b80840191505092915050565b6000610b5d82611059565b610b678185611080565b9350610b77818560208601611196565b610b808161129b565b840191505092915050565b6000610b9682611059565b610ba08185611091565b9350610bb0818560208601611196565b80840191505092915050565b6000610bc9600983611091565b9150610bd4826112ac565b600982019050919050565b6000610bec600183611091565b9150610bf7826112d5565b600182019050919050565b6000610c0f600483611091565b9150610c1a826112fe565b600482019050919050565b6000610c32601883611091565b9150610c3d82611327565b601882019050919050565b6000610c55600f83611091565b9150610c6082611350565b600f82019050919050565b6000610c78600483611091565b9150610c8382611379565b600482019050919050565b6000610c9b600383611091565b9150610ca6826113a2565b600382019050919050565b6000610cbe600a83611091565b9150610cc9826113cb565b600a82019050919050565b6000610ce1601d83611091565b9150610cec826113f4565b601d82019050919050565b6000610d04600b83611091565b9150610d0f8261141d565b600b82019050919050565b6000610d27601583611091565b9150610d3282611446565b601582019050919050565b6000610d4a600183611091565b9150610d558261146f565b600182019050919050565b6000610d6d601183611091565b9150610d7882611498565b601182019050919050565b6000610d8e82610bbc565b9150610d9a8285610b8b565b9150610da582610c02565b9150610db18284610b8b565b9150610dbc82610c6b565b91508190509392505050565b6000610dd382610bbc565b9150610ddf8287610b8b565b9150610dea82610c02565b9150610df68286610b8b565b9150610e0182610d1a565b9150610e0d8285610b8b565b9150610e1882610c02565b9150610e248284610b8b565b9150610e2f82610c6b565b915081905095945050505050565b6000610e4882610cb1565b9150610e54828a610b8b565b9150610e5f82610bdf565b9150610e6b8289610b8b565b9150610e778288610b21565b9150610e8282610c6b565b9150610e8d82610c48565b9150610e998287610b8b565b9150610ea482610c6b565b9150610eb08286610b8b565b9150610ebb82610c25565b9150610ec78285610b8b565b9150610ed282610cf7565b9150610ede8284610b8b565b9150610ee982610c8e565b915081905098975050505050505050565b6000610f0582610cd4565b9150610f118284610b8b565b915081905092915050565b6000610f2782610d3d565b9150610f338284610b8b565b915081905092915050565b6000610f4982610d60565b9150610f558285610b8b565b9150610f6082610c02565b9150610f6c8284610b8b565b9150610f7782610c6b565b91508190509392505050565b60006020820190508181036000830152610f9d8184610ae8565b905092915050565b60006020820190508181036000830152610fbf8184610b52565b905092915050565b6000610fd1610fe2565b9050610fdd82826111c9565b919050565b6000604051905090565b600067ffffffffffffffff82111561100757611006611258565b5b6110108261129b565b9050602081019050919050565b600067ffffffffffffffff82111561103857611037611258565b5b6110418261129b565b9050602081019050919050565b600081519050919050565b600081519050919050565b600082825260208201905092915050565b600081905092915050565b600082825260208201905092915050565b600081905092915050565b60006110a78261117d565b91506110b28361117d565b9250827fffffffffffffffffffffffffffffffffffffffffffffffffffffffffffffffff038211156110e7576110e66111fa565b5b828201905092915050565b60006110fd8261117d565b91506111088361117d565b92508261111857611117611229565b5b828204905092915050565b600061112e8261117d565b91506111398361117d565b9250817fffffffffffffffffffffffffffffffffffffffffffffffffffffffffffffffff0483118215151615611172576111716111fa565b5b828202905092915050565b6000819050919050565b82818337600083830152505050565b60005b838110156111b4578082015181840152602081019050611199565b838111156111c3576000848401525b50505050565b6111d28261129b565b810181811067ffffffffffffffff821117156111f1576111f0611258565b5b80604052505050565b7f4e487b7100000000000000000000000000000000000000000000000000000000600052601160045260246000fd5b7f4e487b7100000000000000000000000000000000000000000000000000000000600052601260045260246000fd5b7f4e487b7100000000000000000000000000000000000000000000000000000000600052604160045260246000fd5b600080fd5b600080fd5b600080fd5b600080fd5b6000601f19601f8301169050919050565b7f696d616765223a20220000000000000000000000000000000000000000000000600082015250565b7f2000000000000000000000000000000000000000000000000000000000000000600082015250565b7f3f69643d00000000000000000000000000000000000000000000000000000000600082015250565b7f70726f70657274696573223a207b226e756d626572223a200000000000000000600082015250565b7f6465736372697074696f6e223a20220000000000000000000000000000000000600082015250565b7f222c202200000000000000000000000000000000000000000000000000000000600082015250565b7f227d7d0000000000000000000000000000000000000000000000000000000000600082015250565b7f7b226e616d65223a202200000000000000000000000000000000000000000000600082015250565b7f646174613a6170706c69636174696f6e2f6a736f6e3b6261736536342c000000600082015250565b7f2c20226e616d65223a2022000000000000000000000000000000000000000000600082015250565b7f222c2022616e696d6174696f6e5f75726c223a20220000000000000000000000600082015250565b7f2f00000000000000000000000000000000000000000000000000000000000000600082015250565b7f616e696d6174696f6e5f75726c223a2022000000000000000000000000000000600082015250565b6114ca8161117d565b81146114d557600080fd5b5056fe4142434445464748494a4b4c4d4e4f505152535455565758595a6162636465666768696a6b6c6d6e6f707172737475767778797a303132333435363738392b2fa2646970667358221220eaef8cd74e6820b3177a70df715d65604ba04e87a3fb812e375fa86ee17a823764736f6c63430008060033",
  "linkReferences": {},
  "deployedLinkReferences": {}
}