{
  "_format": "hh-sol-artifact-1",
  "contractName": "SingleEditionMintableCreator",
  "sourceName": "src/web3/contracts/SingleEditionMintableCreator.sol",
  "abi": [
    {
      "inputs": [
        {
          "internalType": "address",
          "name": "_implementation",
          "type": "address"
        },
        {
          "internalType": "address",
          "name": "_feeAccount",
          "type": "address"
        }
      ],
      "stateMutability": "nonpayable",
      "type": "constructor"
    },
    {
      "anonymous": false,
      "inputs": [
        {
          "indexed": true,
          "internalType": "address",
          "name": "creator",
          "type": "address"
        },
        {
          "indexed": false,
          "internalType": "address",
          "name": "editionContractAddress",
          "type": "address"
        },
        {
          "indexed": false,
          "internalType": "uint256",
          "name": "salePrice",
          "type": "uint256"
        }
      ],
      "name": "CreatedEdition",
      "type": "event"
    },
    {
      "inputs": [
        {
          "internalType": "string",
          "name": "_name",
          "type": "string"
        },
        {
          "internalType": "string",
          "name": "_symbol",
          "type": "string"
        },
        {
          "internalType": "string",
          "name": "_description",
          "type": "string"
        },
        {
          "internalType": "string",
          "name": "_imageUrl",
          "type": "string"
        },
        {
          "internalType": "string",
          "name": "_contractURI",
          "type": "string"
        },
        {
          "internalType": "uint256",
          "name": "_editionSize",
          "type": "uint256"
        },
        {
          "internalType": "uint256",
          "name": "_royaltyBPS",
          "type": "uint256"
        },
        {
          "internalType": "uint256",
          "name": "_salePrice",
          "type": "uint256"
        }
      ],
      "name": "createEdition",
      "outputs": [
        {
          "internalType": "uint256",
          "name": "",
          "type": "uint256"
        }
      ],
      "stateMutability": "payable",
      "type": "function"
    },
    {
      "inputs": [],
      "name": "feeAccount",
      "outputs": [
        {
          "internalType": "address payable",
          "name": "",
          "type": "address"
        }
      ],
      "stateMutability": "view",
      "type": "function"
    },
    {
      "inputs": [
        {
          "internalType": "uint256",
          "name": "editionId",
          "type": "uint256"
        }
      ],
      "name": "getEditionAtId",
      "outputs": [
        {
          "internalType": "contract SingleEditionMintable",
          "name": "",
          "type": "address"
        }
      ],
      "stateMutability": "view",
      "type": "function"
    },
    {
      "inputs": [],
      "name": "implementation",
      "outputs": [
        {
          "internalType": "address",
          "name": "",
          "type": "address"
        }
      ],
      "stateMutability": "view",
      "type": "function"
    }
  ],
  "bytecode": "0x60a060405234801561001057600080fd5b50604051610cac380380610cac833981810160405281019061003291906100c6565b8073ffffffffffffffffffffffffffffffffffffffff1660808173ffffffffffffffffffffffffffffffffffffffff1660601b8152505081600160006101000a81548173ffffffffffffffffffffffffffffffffffffffff021916908373ffffffffffffffffffffffffffffffffffffffff1602179055505050610154565b6000815190506100c08161013d565b92915050565b600080604083850312156100dd576100dc610138565b5b60006100eb858286016100b1565b92505060206100fc858286016100b1565b9150509250929050565b600061011182610118565b9050919050565b600073ffffffffffffffffffffffffffffffffffffffff82169050919050565b600080fd5b61014681610106565b811461015157600080fd5b50565b60805160601c610b3a610172600039600061027c0152610b3a6000f3fe60806040526004361061003f5760003560e01c80634d9581f1146100445780635c60da1b1461007457806365e17c9d1461009f578063ac52edfd146100ca575b600080fd5b61005e600480360381019061005991906104c3565b610107565b60405161006b9190610846565b60405180910390f35b34801561008057600080fd5b50610089610254565b60405161009691906106fc565b60405180910390f35b3480156100ab57600080fd5b506100b461027a565b6040516100c19190610717565b60405180910390f35b3480156100d657600080fd5b506100f160048036038101906100ec9190610605565b61029e565b6040516100fe919061080b565b60405180910390f35b60008061011460006102fc565b9050600061016c600160009054906101000a900473ffffffffffffffffffffffffffffffffffffffff168360405160200161014f91906106e1565b60405160208183030381529060405261016790610946565b61030a565b90508073ffffffffffffffffffffffffffffffffffffffff1663d40cd8be338d8d8d8d8d8d8d8d6040518a63ffffffff1660e01b81526004016101b799989796959493929190610732565b600060405180830381600087803b1580156101d157600080fd5b505af11580156101e5573d6000803e3d6000fd5b505050503373ffffffffffffffffffffffffffffffffffffffff167f7f31df96ff26da41774ba2699a14b213dabe40e6e06ebcdc31ecfc014c67f8b782866040516102319291906107e2565b60405180910390a261024360006103c7565b819250505098975050505050505050565b600160009054906101000a900473ffffffffffffffffffffffffffffffffffffffff1681565b7f000000000000000000000000000000000000000000000000000000000000000081565b60006102f5600160009054906101000a900473ffffffffffffffffffffffffffffffffffffffff16836040516020016102d791906106e1565b6040516020818303038152906040526102ef90610946565b306103dd565b9050919050565b600081600001549050919050565b6000763d602d80600a3d3981f3363d3d373d3d3d363d730000008360601b60e81c176000526e5af43d82803e903d91602b57fd5bf38360781b1760205281603760096000f59050600073ffffffffffffffffffffffffffffffffffffffff168173ffffffffffffffffffffffffffffffffffffffff1614156103c1576040517f08c379a00000000000000000000000000000000000000000000000000000000081526004016103b890610826565b60405180910390fd5b92915050565b6001816000016000828254019250508190555050565b60006040518260388201526f5af43d82803e903d91602b57fd5bf3ff6024820152846014820152733d602d80600a3d3981f3363d3d373d3d3d363d7381528360588201526037600c8201206078820152605560438201209150509392505050565b600061045161044c84610886565b610861565b90508281526020810184848401111561046d5761046c610a97565b5b6104788482856109d1565b509392505050565b600082601f83011261049557610494610a92565b5b81356104a584826020860161043e565b91505092915050565b6000813590506104bd81610aed565b92915050565b600080600080600080600080610100898b0312156104e4576104e3610aa1565b5b600089013567ffffffffffffffff81111561050257610501610a9c565b5b61050e8b828c01610480565b985050602089013567ffffffffffffffff81111561052f5761052e610a9c565b5b61053b8b828c01610480565b975050604089013567ffffffffffffffff81111561055c5761055b610a9c565b5b6105688b828c01610480565b965050606089013567ffffffffffffffff81111561058957610588610a9c565b5b6105958b828c01610480565b955050608089013567ffffffffffffffff8111156105b6576105b5610a9c565b5b6105c28b828c01610480565b94505060a06105d38b828c016104ae565b93505060c06105e48b828c016104ae565b92505060e06105f58b828c016104ae565b9150509295985092959890939650565b60006020828403121561061b5761061a610aa1565b5b6000610629848285016104ae565b91505092915050565b61063b81610900565b82525050565b61064a816108ee565b82525050565b610659816109ad565b82525050565b600061066a826108d2565b61067481856108dd565b93506106848185602086016109e0565b61068d81610aa6565b840191505092915050565b60006106a56017836108dd565b91506106b082610ac4565b602082019050919050565b6106c48161093c565b82525050565b6106db6106d68261093c565b610a44565b82525050565b60006106ed82846106ca565b60208201915081905092915050565b60006020820190506107116000830184610641565b92915050565b600060208201905061072c6000830184610632565b92915050565b600061012082019050610748600083018c610641565b818103602083015261075a818b61065f565b9050818103604083015261076e818a61065f565b90508181036060830152610782818961065f565b90508181036080830152610796818861065f565b905081810360a08301526107aa818761065f565b90506107b960c08301866106bb565b6107c660e08301856106bb565b6107d46101008301846106bb565b9a9950505050505050505050565b60006040820190506107f76000830185610641565b61080460208301846106bb565b9392505050565b60006020820190506108206000830184610650565b92915050565b6000602082019050818103600083015261083f81610698565b9050919050565b600060208201905061085b60008301846106bb565b92915050565b600061086b61087c565b90506108778282610a13565b919050565b6000604051905090565b600067ffffffffffffffff8211156108a1576108a0610a4e565b5b6108aa82610aa6565b9050602081019050919050565b6000819050602082019050919050565b600081519050919050565b600081519050919050565b600082825260208201905092915050565b60006108f98261091c565b9050919050565b600061090b8261091c565b9050919050565b6000819050919050565b600073ffffffffffffffffffffffffffffffffffffffff82169050919050565b6000819050919050565b6000610951826108c7565b8261095b846108b7565b905061096681610a7d565b925060208210156109a6576109a17fffffffffffffffffffffffffffffffffffffffffffffffffffffffffffffffff83602003600802610ab7565b831692505b5050919050565b60006109b8826109bf565b9050919050565b60006109ca8261091c565b9050919050565b82818337600083830152505050565b60005b838110156109fe5780820151818401526020810190506109e3565b83811115610a0d576000848401525b50505050565b610a1c82610aa6565b810181811067ffffffffffffffff82111715610a3b57610a3a610a4e565b5b80604052505050565b6000819050919050565b7f4e487b7100000000000000000000000000000000000000000000000000000000600052604160045260246000fd5b6000610a898251610912565b80915050919050565b600080fd5b600080fd5b600080fd5b600080fd5b6000601f19601f8301169050919050565b600082821b905092915050565b7f455243313136373a2063726561746532206661696c6564000000000000000000600082015250565b610af68161093c565b8114610b0157600080fd5b5056fea26469706673582212202ca5d599cbf3c2ec08e5afef531510539414426fd6e3f45dacf82f2082b1a7d364736f6c63430008060033",
  "linkReferences": {},
  "deployedLinkReferences": {}
}